:020000040800F2
:100000000000032049420008412600084F2600084E
:10001000552600085B260008612600080000000045
:10002000000000000000000000000000672600083B
:1000300075260008000000008326000891260008AD
:100040009D4200089D4200089D4200084927000883
:100050009D4200089D4200089D4200089D42000804
:100060009D4200089D4200089D4200089D420008F4
:100070009D4200089D420008C52600089D420008D8
:100080009D4200089D4200089D420008B1260008DC
:100090009D2600089D4200089D4200089D420008E0
:1000A0009D4200089D4200089D4200089D420008B4
:1000B0009D4200089D4200089D4200089D420008A4
:1000C0009D4200089D4200089D4200089D42000894
:1000D000D9260008ED2600089D4200089D42000830
:1000E000392700089D4200089D4200089D420008F3
:1000F000012700080D270008192700089D42000865
:100100009D4200089D4200089D4200089D42000853
:100110009D4200089D4200089D4200089D42000843
:100120009D4200089D420008252700089D420008C6
:0C0130009D4200089D4200089D4200080E
:1001400010B5054C237833B9044B13B10448AFF311
:1001500000800123237010BD9403002000000000E4
:100160008823010808B5034B1BB103490348AFF3CB
:10017000008008BD000000009803002088230108CB
:10018000034613F8012B002AFBD1181A01387047D7
:1001900001F0FF01102A2BDB10F0070F08D010F838
:1001A000013B013A8B422DD010F0070F42B3F6D13C
:1001B000F0B441EA012141EA014122F007047FF055
:1001C00000070023F0E80256083C85EA010586EAAC
:1001D000010685FA47F5A3FA87F586FA47F6A5FAE8
:1001E00087F68EB9EED1F0BC01F0FF0102F00702F4
:1001F00032B110F8013B013A83EA010313B1F8D19F
:100200000020704701387047002D06BF354603387F
:10021000073815F0010F07D1013015F4807F02BFB8
:10022000013015F4C03F0130F0BC0138704700BF09
:1002300070B54FF0FF0C4CF4E06C1CEA11541DBF7C
:100240001CEA135594EA0C0F95EA0C0F00F0DEF847
:100250002C4481EA030621EA4C5123EA4C5350EA2C
:10026000013518BF52EA033541F4801143F480137D
:1002700038D0A0FB02CE4FF00005E1FB02E506F00E
:100280000042E0FB03E54FF00006E1FB03569CF063
:10029000000F18BF4EF0010EA4F1FF04B6F5007F69
:1002A00064F5407404D25FEA4E0E6D4146EB0606DB
:1002B00042EAC62141EA55514FEAC52040EA5E5064
:1002C0004FEACE2EB4F1FD0C88BFBCF5E06F1ED80E
:1002D000BEF1004F08BF5FEA500E50F1000041EB45
:1002E000045170BD06F0004646EA010140EA0200F2
:1002F00081EA0301B4EB5C04C2BFD4EB0C0541EA14
:10030000045170BD41F480114FF0000E013C00F328
:10031000AB8014F1360FDEBF002001F0004170BD4C
:10032000C4F10004203C35DA0C341BDC04F1140465
:10033000C4F1200500FA05F320FA04F001FA05F2F1
:1003400040EA020001F0004221F0004110EBD370BE
:1003500021FA04F642EB06015EEA430E08BF20EAEA
:10036000D37070BDC4F10C04C4F1200500FA04F38D
:1003700020FA05F001FA04F240EA020001F000411F
:1003800010EBD37041F100015EEA430E08BF20EA92
:10039000D37070BDC4F1200500FA05F24EEA020EDA
:1003A00020FA04F301FA05F243EA020321FA04F009
:1003B00001F0004121FA04F220EA020000EBD370C0
:1003C0005EEA430E08BF20EAD37070BD94F0000FC0
:1003D0000FD101F00046400041EB010111F4801FF4
:1003E00008BF013CF7D041EA060195F0000F18BFA5
:1003F000704703F00046520043EB030313F4801FE1
:1004000008BF013DF7D043EA0603704794EA0C0F9A
:100410000CEA135518BF95EA0C0F0CD050EA4106B0
:1004200018BF52EA4306D1D181EA030101F000412D
:100430004FF0000070BD50EA410606BF1046194655
:1004400052EA430619D094EA0C0F02D150EA013661
:1004500013D195EA0C0F05D152EA03361CBF1046A2
:1004600019460AD181EA030101F0004141F0FE4141
:1004700041F470014FF0000070BD41F0FE4141F4C5
:10048000780170BD81F0004102E000BF83F00043BD
:1004900030B54FEA41044FEA430594EA050F08BF1F
:1004A00090EA020F1FBF54EA000C55EA020C7FEAE3
:1004B000645C7FEA655C00F0E2804FEA5454D4EB60
:1004C0005555B8BF6D420CDD2C4480EA020281EA2A
:1004D000030382EA000083EA010180EA020281EA62
:1004E0000303362D88BF30BD11F0004F4FEA0131B4
:1004F0004FF4801C4CEA113102D0404261EB4101C3
:1005000013F0004F4FEA03334CEA133302D0524248
:1005100063EB430394EA050F00F0A780A4F1010404
:10052000D5F1200E0DDB02FA0EFC22FA05F280183E
:1005300041F1000103FA0EF2801843FA05F3594124
:100540000EE0A5F120050EF1200E012A03FA0EFCA3
:1005500028BF4CF0020C43FA05F3C01851EBE371CD
:1005600001F0004507D54FF0000EDCF1000C7EEBEA
:1005700000006EEB0101B1F5801F1BD3B1F5001F28
:100580000CD349085FEA30004FEA3C0C04F1010447
:100590004FEA445212F5800F80F09A80BCF1004F70
:1005A00008BF5FEA500C50F1000041EB045141EAF2
:1005B000050130BD5FEA4C0C404141EB0101013CBB
:1005C00028BFB1F5801FE9D291F0000F04BF0146AA
:1005D0000020B1FA81F308BF2033A3F10B03B3F17C
:1005E00020020CDA0C3208DD02F1140CC2F10C020C
:1005F00001FA0CF021FA02F10CE002F11402D8BF6A
:10060000C2F1200C01FA02F120FA0CFCDCBF41EA35
:100610000C019040E41AA2BF01EB0451294330BD04
:100620006FEA04041F3C1CDA0C340EDC04F11404E1
:10063000C4F1200220FA04F001FA02F340EA0300B8
:1006400021FA04F345EA030130BDC4F10C04C4F1FE
:10065000200220FA02F001FA04F340EA03002946DE
:1006600030BD21FA04F0294630BD94F0000F83F428
:10067000801306BF81F480110134013D4EE77FEA0B
:10068000645C18BF7FEA655C29D094EA050F08BF57
:1006900090EA020F05D054EA000C04BF1946104638
:1006A00030BD91EA030F1EBF0021002030BD5FEA7C
:1006B000545C05D14000494128BF41F0004130BDA4
:1006C00014F580043CBF01F5801130BD01F00045F8
:1006D00045F0FE4141F470014FF0000030BD7FEA6B
:1006E000645C1ABF194610467FEA655C1CBF0B4666
:1006F000024650EA013406BF52EA033591EA030F7D
:1007000041F4002130BD00BF90F0000F04BF002174
:10071000704730B54FF4806404F132044FF00005A7
:100720004FF0000150E700BF90F0000F04BF002120
:10073000704730B54FF4806404F1320410F0004586
:1007400048BF40424FF000013EE700BF42004FEA81
:10075000E2014FEA31014FEA02701FBF12F07F43FE
:1007600093F07F4F81F06051704732F07F4208BFB5
:10077000704793F07F4F04BF41F40021704730B5BC
:100780004FF4607401F0004521F000411CE700BF08
:1007900050EA010208BF704730B54FF000050AE08B
:1007A00050EA010208BF704730B511F0004502D58C
:1007B000404261EB41014FF4806404F132045FEA8E
:1007C000915C3FF4D8AE4FF003025FEADC0C18BF37
:1007D00003325FEADC0C18BF033202EBDC02C2F129
:1007E000200300FA03FC20FA02F001FA03FE40EABB
:1007F0000E0021FA02F11444BDE600BF80B483B0BC
:1008000000AF7860064BD3F8902005497B6813430E
:10081000C1F8903000BF0C37BD465DF8047B7047CF
:100820000008005880B485B000AF78604FF0B04346
:10083000DA6C4FF0B0417B681343CB644FF0B043A8
:10084000DA6C7B681340FB60FB6800BF1437BD4661
:100850005DF8047B704780B485B000AF78604FF0DE
:10086000B043D3F84C214FF0B0417B681343C1F83B
:100870004C314FF0B043D3F84C217B681340FB6000
:10088000FB6800BF1437BD465DF8047B704780B538
:1008900000AF03F0E7FE03F0EBFE4FF48030FFF70C
:1008A000ADFF0FF0D9FC00F021F800F0C3F800BF55
:1008B00080BD0000B0B588B000AF0B4B3C1D1D469D
:1008C0000FCD0FC495E8070003C422800234130C37
:1008D00023700EF07DFF3B1D18460EF018FA00BF86
:1008E0002037BD46B0BD00BFA023010880B588B049
:1008F00000AF3B1D00221A605A609A60DA601A61EC
:100900000023BB8300237B8300233B830023FB77EF
:1009100038E0FB7F444ADB0013449B79002B2BD04B
:10092000FB7F414A52F83330404A93421BD03F4A42
:10093000934223D8B3F1904F03D03D4A934209D05C
:100940001CE0FB7F384ADB0013449A88BB8B1343BF
:10095000BB8314E0FB7F344ADB0013449A887B8B13
:1009600013437B830BE0FB7F2F4ADB0013449A8801
:100970003B8B13433B8302E000BF00E000BFFB7FE3
:100980000133FB77FB7F252BC3D90023FB600123B9
:10099000BB6003233B61BB8B002B14D0BB8B7B6004
:1009A0000120FFF73FFF0120FFF755FF3B1D1946D0
:1009B0004FF0904004F022FABB8B002219464FF012
:1009C000904004F08BFB7B8B002B12D07B8B7B60E9
:1009D0000220FFF727FF0220FFF73DFF3B1D1946CE
:1009E000134804F00BFA7B8B00221946104804F0E0
:1009F00075FB3B8B002B13D03B8B7B600420FFF7F8
:100A000011FF0420FFF727FF3B1D1946074804F09C
:100A1000F5F93B8B00221946044804F05FFB00BF48
:100A200000BF2037BD4680BD3C34010800080048A7
:100A30000004004880B400AF00BFBD465DF8047BF1
:100A40007047000080B500AF002102480FF016FA91
:100A500000BF80BDB003002080B584B000AFF86057
:100A60000B467A607B817B897A681946F8680FF0BB
:100A700045FA7A897B68F968022001F08DFA00BF97
:100A80001037BD4680BD000080B483B000AF7860F1
:100A9000074BD3F8803023F0070205497B681343E6
:100AA000C1F8803000BF0C37BD465DF8047B70474D
:100AB0000004005880B483B000AF7860064BD3F8D0
:100AC000902005497B681343C1F8903000BF0C3774
:100AD000BD465DF8047B70470008005880B483B0C1
:100AE00000AF78604FF0B0430A4AC3F89C204FF043
:100AF000B043D3F89C3023F47C527B681B024FF048
:100B0000B0411343C1F89C3000BF0C37BD465DF8BF
:100B1000047B7047FECAFECA80B483B000AF786021
:100B20004FF0B0439B6823F400424FF0B0417B6824
:100B300013438B6000BF0C37BD465DF8047B7047E4
:100B400080B400AF4FF0B043D3F890304FF0B042D4
:100B500043F48033C2F8903000BFBD465DF8047B9B
:100B6000704780B400AF4FF0B043D3F890304FF0EF
:100B7000B04223F48033C2F8903000BFBD465DF828
:100B8000047B704780B400AF4FF0B043D3F894308B
:100B900003F08063B3F1806F01D1012300E00023F3
:100BA0001846BD465DF8047B704780B400AF4FF037
:100BB000B043D3F8943003F08053B3F1805F01D198
:100BC000012300E000231846BD465DF8047B704712
:100BD00080B485B000AF78604FF0B0431A6D4FF02D
:100BE000B0417B6813430B654FF0B0431A6D7B68CF
:100BF0001340FB60FB6800BF1437BD465DF8047B03
:100C00007047000080B400AF044B1B681B0C9BB204
:100C10001846BD465DF8047B704700BF002004E025
:100C200080B483B000AF786039607B685A683B68F5
:100C30001B041A437B685A6000BF0C37BD465DF841
:100C4000047B704780B483B000AF786039607B6804
:100C50005A683B681A437B685A6000BF0C37BD4630
:100C60005DF8047B704780B483B000AF7860396072
:100C70007B685A693B681B041A437B685A6100BF52
:100C80000C37BD465DF8047B704780B483B000AF7D
:100C9000786039607B685A693B681A437B685A619F
:100CA00000BF0C37BD465DF8047B704780B483B04D
:100CB00000AF786039607B683A689A6000BF0C3793
:100CC000BD465DF8047B704780B483B000AF7860A8
:100CD00039607B683A689A6100BF0C37BD465DF8A1
:100CE000047B704780B483B000AF78607B68FF22DC
:100CF0005A6200BF0C37BD465DF8047B704780B474
:100D000083B000AF78607B68CA225A627B68532246
:100D10005A6200BF0C37BD465DF8047B704780B453
:100D200083B000AF786039607B689B6823F007026E
:100D30003B681A437B689A6000BF0C37BD465DF87C
:100D4000047B704780B500AF044B4FF400421A613A
:100D500000F02EF800F06EF800BF80BD0040005893
:100D600080B500AF00F07AF800F092F80849002052
:100D700000F076FEFFF78BFD012101200FF0E4FF6C
:100D800000F0DCF900F0EAF900F092F800BF80BD55
:100D9000F009002080B400AF00BFBD465DF8047BC1
:100DA000704780B500AF5020FFF784FE00BF80BDC4
:100DB00080B500AF00F004F800F01AF800BF80BD65
:100DC00080B500AFFFF7DEFE0346002B0DD0FFF726
:100DD000ECFE0346002B08D105F0B8FF05F0B6FF86
:100DE000FFF7AEFEFFF7BDFE00BF00BF80BD0000F5
:100DF00080B500AF4FF48010FFF7EAFE3F210C48AA
:100E0000FFF754FF3F210A48FFF75EFF3F210848E4
:100E1000FFF706FF3F210648FFF725FF3F21044863
:100E2000FFF710FF3F210248FFF72FFF00BF80BDF3
:100E3000000C005880B582B000AF00200FF08AFA95
:100E400078607B68002B05D07B689B791846FFF79C
:100E500045FE00BF00BF0837BD4680BD80B500AF6E
:100E6000FFF798FFFFF79DFF00F002F800BF80BD7D
:100E700080B500AF0548FFF742FF00210348FFF7A8
:100E80004EFF0248FFF72EFF00BF80BD0028004044
:100E900080B500AF4FF40040FFF73EFE0FF042FF79
:100EA0000420FFF7F1FD05F06FFF00BF80BD0000DB
:100EB00080B588B000AF0EF0D5FA114A002140206D
:100EC00010F06EF80F4B3B600F4B7B603B461946B2
:100ED0000E480EF08DF90E4BBB600E4BFB600E4BB7
:100EE0003B6140F23C537B6107F1080318460EF06A
:100EF000FBFB0EF0B1FA00BF2037BD4680BD00BF3E
:100F000029F20008340703201D0F0008350F0008E0
:100F10004C09032040080320F801032080B483B06B
:100F200000AF0346FB7100BF0C37BD465DF8047B84
:100F30007047000080B588B000AF78607B685B6860
:100F40000B33FB61FB691B889BB2A3F51243072B94
:100F500060D801A252F823F0790F0008BB0F0008F7
:100F6000C90F000815100008E50F0008F50F00086C
:100F7000FD0F00080D10000807F10C0318460DF0D6
:100F8000F3FE3B7B19467B7B1A46BB7B244810F063
:100F900079FA3B7C1946234810F074FABB7D194658
:100FA000FB7D1A463B7E204810F06CFA1F4810F07B
:100FB00069FA786800F070F82DE01D4810F062FAC8
:100FC000786800F043F826E01A4810F0F7FAFB6959
:100FD00002331968FB6902335B681A46164810F041
:100FE00051FA18E0FB6902331B681946134810F0E8
:100FF00049FA10E0124810F045FA0CE0FB690233A0
:101000001B6819460F4810F03DFA04E00E4810F036
:1010100039FA00E000BF00BF2037BD4680BD00BFE9
:10102000BC230108E0230108FC2301081424010863
:101030003424010858240108A8240108D0240108F8
:101040000C250108302501086C25010880B584B005
:1010500000AF78607B685B680B33FB60FB68023332
:10106000BB60BB681B781946084810F00BFABB68D8
:101070001B78002B03D1064810F0A0FA03E00548C6
:1010800010F09CFA00BF1037BD4680BD90250108C6
:10109000C0250108FC25010880B58AB000AF786042
:1010A00007F10C0300221A605A609A609A810023AB
:1010B0007B627B685B680B333B623B6A0233FB619C
:1010C000FB691B78002B1ED1184810F077FAFFF748
:1010D000F1FB0D233B737F23BB73FFF793FD786216
:1010E000796A134810F0CEF97B6A9BB23B8307F113
:1010F0000C0318460DF022FE01F0CEFB002101206A
:101100000FF022FE0EE0FB691B78012B06D1094887
:1011100010F0B8F97B6800221A7003E0064810F05E
:10112000B1F900BF2837BD4680BD00BF3426010895
:101130005026010874260108A826010880B500AFD2
:10114000002003F0C5F8012003F0C2F8022003F0EC
:10115000BFF8012003F006F900BF80BD80B500AFE5
:101160000121002003F032F900BF80BD80B500AF3F
:101170004FF0FF300FF018FE00BF80BD80B400AF0D
:1011800000BFBD465DF8047B704780B582B000AFFC
:10119000786039604FF0FF300FF006FE00BF08376F
:1011A000BD4680BD80B582B000AF78600021402090
:1011B0000FF018FF00BF0837BD4680BD80B582B074
:1011C00000AF786002200FF079FF00BF0837BD46FE
:1011D00080BD80B582B000AF786002200FF08EFF36
:1011E00000BF0837BD4680BD80B582B000AF034662
:1011F000FB80FB88B3F5806F02D101F007FE00E0B1
:1012000000BF00BF0837BD4680BD000080B483B07A
:1012100000AF7860064BD3F8802005497B68134304
:10122000C1F8803000BF0C37BD465DF8047B7047C5
:101230000008005880B483B000AF7860054B1A688E
:1012400004497B6813430B6000BF0C37BD465DF853
:10125000047B70470008005880B483B000AF0D4B8A
:101260009B6A9BB27B600B4B9B6A9BB23B6005E029
:101270003B687B60074B9B6A9BB23B607A683B682C
:101280009A42F5D13B6818460C37BD465DF8047BA1
:10129000704700BF0028004080B485B000AF03460F
:1012A0000A46FB711346BB71BA791D4913465B00B0
:1012B0001344DB000B4415331B78FB73FB7B062BBD
:1012C00009D0FA7B164913465B001344DB000B443C
:1012D0001433FA791A70FA79114913465B001344F2
:1012E000DB000B441533FA7B1A70FA790C4913466C
:1012F0005B001344DB000B441433BA791A70BA79DB
:10130000074913465B001344DB000B441533FA799D
:101310001A7000BF1437BD465DF8047B704700BFEC
:101320000C02002080B485B000AF03460A46FB7172
:101330001346BB71294B1B78DBB2BA799A4232D083
:10134000BA79274913465B001344DB000B4414337E
:101350001B78FB73FA7B224913465B001344DB00C6
:101360000B441533FA791A70FA791D4913465B005C
:101370001344DB000B441533BA791A70FA79184913
:1013800013465B001344DB000B441433FA7B1A70E2
:10139000BA79134913465B001344DB000B44143342
:1013A000FA791A7014E0FA790D4913465B00134478
:1013B000DB000B441533BA791A70BA790849134621
:1013C0005B001344DB000B441433FA791A7000BF3E
:1013D0001437BD465DF8047B704700BF9C020020B7
:1013E0000C02002080B584B000AF0346FB714E4B69
:1013F0001B78DBB2062B18D14B4B1B78DAB24B4B68
:101400001A70494AFB791370FA79494913465B000F
:101410001344DB000B44153306221A70454B4FF082
:10142000FF321A600023FB8178E000F009F90346DF
:10143000FB81FA793E4913465B001344DB000B4401
:1014400008331968FB89FA791944394813465B0057
:101450001344DB00034408331960FA793449134616
:101460005B001344DB000B4408331B68BB602E4B4E
:101470001B78DBB219462E4A0B465B000B44DB009F
:10148000134408331B68BA689A4237D3264B1B783B
:101490007B737A7B264913465B001344DB000B44C5
:1014A00015331B783B7313E07A7B214913465B00AD
:1014B0001344DB000B4415331B787B737A7B1C4988
:1014C00013465B001344DB000B4415331B783B735E
:1014D0003B7B062B0BD03A7B154913465B0013442C
:1014E000DB000B4408331B68BA689A42DCD27A7B73
:1014F000FB7911461846FFF7CFFE0FE00A4B1B7829
:10150000DAB2FB7911461846FFF70CFF064B1B7841
:10151000DAB2064B1A70044AFB791370FB8918463D
:101520001037BD4680BD00BF9C0200209D020020F8
:101530000C020020A002002080B485B000AF03465A
:101540000A46FB711346BB71394B1B78DBB2FA7943
:101550009A4211D1364B1B78DAB2364B1A70FA79AF
:10156000354913465B001344DB000B4415331B78ED
:10157000DAB22F4B1A703EE0FA792F4913465B001E
:101580001344DB000B4414331B78FB73FA792A49AC
:1015900013465B001344DB000B4415331B78BB730D
:1015A000F979FA7B24480B465B000B44DB000344CB
:1015B00015331B78D8B2204913465B001344DB0077
:1015C0000B44153302461A70BB7B062B13D0F979F6
:1015D000BA7B19480B465B000B44DB000344143311
:1015E0001B78D8B2144913465B001344DB000B444C
:1015F000143302461A70FA790F4913465B001344FC
:10160000DB000B440C3301221A70094B1B78DBB250
:10161000062B07D1BB79002B04D1084B4FF0FF32CA
:101620001A6000BF00BF1437BD465DF8047B7047E9
:101630009C0200209D0200200C020020A00200203D
:1016400080B582B000AF1A4B1B68B3F1FF3F26D0C4
:10165000FFF702FE7860164B1B687A689A4205D83D
:10166000134B1A687B68D31A7B600AE0114B1B8806
:101670001A467B68D31A3B600D4B1B683A681344CB
:101680007B600D4B1B781A467B6802FB03F37B6083
:101690000A4B1B781A467B68D3407B6001E000232D
:1016A0007B607B689BB218460837BD4680BD00BF93
:1016B000A0020020B6070020B5070020B4070020D4
:1016C00080B582B000AF0346FB80FB88002B08D1B9
:1016D000FFF7C2FD0346244A1360032003F04BF9D1
:1016E0003EE0FB88012B03D8204B1B78012B02D056
:1016F000FB88013BFB8000BF1D4B1B681B68DB6840
:1017000003F00403002BF7D0194B1B681B68DB6840
:10171000DAB2174B1B681B6862F49062DA60154BF3
:101720004FF40022DA60032003F033F9124B5B69B7
:101730001B0C1B04FA88104913434B61FFF78CFD07
:101740000346094A13600A4B1B681B689A68084BDA
:101750001B681B6842F480629A60AFF3008000BF90
:101760000837BD4680BD00BFA0020020B40700209E
:10177000B0070020000800580028004080B584B061
:1017800000AF474B9B6803F48063B3F5806F08D1CB
:1017900000BF444B1B681B68DB6803F00403002B8D
:1017A000F7D1404B1B681B689A683E4B1B681B684F
:1017B00022F480629A603C4B1B78FB73FA7B3B49B6
:1017C00013465B001344DB000B4408331B68BB600B
:1017D000FFF736FF0346FB80FB88BA689A4205D2C2
:1017E0000023BB81324B01221A704DE0FB88314A45
:1017F000128892B213441A46BB68934206D92D4B05
:101800001B88BB812A4B00221A703DE0BB689AB24C
:10181000FB88D31ABB81264B01221A7034E0FA7B75
:10182000224913465B001344DB000B4408331A685B
:10183000FB889A420AD2FA7B1C4913465B00134488
:10184000DB000B44083300221A6013E0FA7B1749CF
:1018500013465B001344DB000B4408331968FB8814
:10186000FA7BC91A114813465B001344DB0003449A
:1018700008331960FA7B0D4913465B001344DB0003
:101880000B4415331B78FB73FB7B062BC7D1BB893D
:101890001846FFF715FF00BF1037BD4680BD00BFDB
:1018A00000280040B00700209C0200200C0200200D
:1018B000A4020020B807002080B58AB000AFEFF383
:1018C00010837B617B697B6272B600BF5F4B1B68D4
:1018D0001B68CA225A625D4B1B681B6853225A62FE
:1018E0005A4B1B681B689A68584B1B681B6822F48C
:1018F00080629A60564B1B7887F8233097F8232034
:10190000544913465B001344DB000B440C331B7833
:10191000DBB2022B72D197F823204E4913465B00AD
:101920001344DB000B441B68FB6197F823204949F3
:1019300013465B001344DB000B4410331B68BB6190
:10194000454B1B78DBB2002B50D097F82320414940
:1019500013465B001344DB000B440D331B78DBB2F2
:10196000012B26D197F8233001211846FFF7E4FD1B
:101970007B6A3B613B6983F3108800BF97F82320A3
:10198000344913465B001344DB000B4404331A68EC
:1019900097F823301146184600F068FA2B4B1B6865
:1019A0001B68CA225A62294B1B681B6853225A6261
:1019B00014E07B6AFB60FB6883F3108800BF97F834
:1019C0002330184600F0C6F9204B1B681B68CA225A
:1019D0005A621E4B1B681B6853225A6297F82330C9
:1019E000FA691946B86900F0C9FA25E0FFF7C6FEA2
:1019F0007B6ABB60BB6883F310881DE000BF134B9C
:101A00001B681B68DB6803F00403002BF7D00F4B47
:101A10001B681B68DB68DAB20C4B1B681B6862F43E
:101A20009062DA600D4B4FF40022DA607B6A7B60D3
:101A30007B6883F3108800BF044B1B681B68FF2280
:101A40005A6200BF2837BD4680BD00BFB0070020E6
:101A50009C0200200C020020A40200200008005874
:101A600080B588B000AF03463960FB71644A3B68BB
:101A70001360634B1B681B68CA225A62604B1B6869
:101A80001B6853225A625F4B9B685E4A43F02003F7
:101A900093605C4B9B68DBB203F00703DBB2C3F1DE
:101AA0000403DAB2584B1A70564B1B6903F4FE0359
:101AB0004FF4FE023A613A6992FAA2F2FA60FA68C9
:101AC0007A617A69002A01D1202203E07A69B2FAA8
:101AD00082F2D2B2D340DBB20133DAB24B4B1A708E
:101AE000484B1B699BB2C3F30E039BB201339AB2FE
:101AF000474B1A80464B1B88013B444A127802FB35
:101B000003F3A3F5A073404A1278D340BB61BB69CD
:101B10004FF6FE72934204D93E4B4FF6FF721A8085
:101B200003E0BB699AB23B4B1A804FF40020FFF7E9
:101B300081FB4FF40020FFF769FBFB79002B43D1B9
:101B4000354B01221A70354B4FF0FF321A600023DB
:101B5000FB770CE0FA7F324913465B001344DB004D
:101B60000B440C3300221A70FB7F0133FB77FB7FA1
:101B7000052BEFD92B4B06221A70214B1B681B68D3
:101B80009A681F4B1B681B6822F480629A601C4B8A
:101B90001B681B68DB68DAB2194B1B681B6862F4B0
:101BA0009062DA60204B4FF40022DA60032002F0EA
:101BB000F0FE134B1B681B689A68114B1B681B686F
:101BC00042F480429A600AE00D4B1B681B68DB6898
:101BD00003F48063002B02D0032002F0CCFE084BFC
:101BE0001B681B68FF225A6200220321032002F0B7
:101BF00080FE032002F097FE00BF2037BD4680BD67
:101C0000B007002000280040B4070020B5070020DE
:101C1000B6070020B8070020A4020020A002002080
:101C20000C0200209C0200200008005880B48BB0F9
:101C300000AFF860B9603B601346FB71002387F882
:101C40002630EFF31083FB61FB693B6272B600BF85
:101C500004E097F82630013387F8263097F82630CD
:101C6000052B0CD897F826202C4913465B0013440B
:101C7000DB000B440C331B78DBB2002BE9D197F867
:101C80002630062B38D097F82620244913465B00CF
:101C90001344DB000B440C3301221A703B6ABB6116
:101CA000BB6983F3108800BF97F826201B491346B1
:101CB0005B001344DB000B441033FA681A6097F89A
:101CC0002620164913465B001344DB000B440D33FA
:101CD000FA791A7097F82620104913465B001344CE
:101CE000DB000B443A681A60BB6897F826201A702C
:101CF000002387F8273008E03B6A7B617B6983F328
:101D0000108800BF012387F8273097F8273018463E
:101D10002C37BD465DF8047B704700BF0C020020E5
:101D200080B582B000AF0346FB71FB79184600F026
:101D300011F8FA79064913465B001344DB000B44A3
:101D40000C3300221A7000BF0837BD4680BD00BFAB
:101D50000C02002080B586B000AF0346FB71EFF3A4
:101D60001083FB60FB687B6172B600BF032002F04A
:101D7000E8FD384B1B681B68CA225A62354B1B684A
:101D80001B6853225A62FA79334913465B001344A5
:101D9000DB000B440C331B78DBB2022B48D1FB7900
:101DA00000211846FFF7C8FB2C4B1B78FB74FB7C0B
:101DB000062B35D12A4B9B6803F48063B3F5806F03
:101DC00008D100BF234B1B681B68DB6803F00403CA
:101DD000002BF7D11F4B1B681B689A681D4B1B68B3
:101DE0001B6822F480629A6000BF1A4B1B681B6854
:101DF000DB6803F00403002BF7D0164B1B681B684D
:101E0000DB68DAB2134B1B681B6862F49062DA601D
:101E1000144B4FF40022DA60032002F0BAFD07E011
:101E2000114B1B78DBB2FA7C9A4201D0FFF7A6FC7B
:101E3000084B1B681B68FF225A62032002F073FDE7
:101E40007B69BB60BB6883F3108800BF00BF183795
:101E5000BD4680BDB00700200C0200209C0200207F
:101E600000280040000800589D02002080B586B080
:101E700000AF03463960FB71FA793C4913465B00B9
:101E80001344DB000B440C331B78DBB2022B03D171
:101E9000FB791846FFF75EFFEFF31083FB60FB68EA
:101EA0007B6172B600BF032002F04BFD304B1B6814
:101EB0001B68CA225A622E4B1B681B6853225A6247
:101EC000FA792A4913465B001344DB000B440C33B8
:101ED00002221A70FA79254913465B001344DB008D
:101EE0000B4408333A681A60FA79204913465B00BC
:101EF0001344DB000B4404333A681A60FB7918463C
:101F0000FFF770FA03467B821A4B1B787B741A4BDF
:101F10001B78DBB27A7C9A4202D0FFF72FFC13E0E9
:101F2000FA79124913465B001344DB000B44083373
:101F300019687B8AFA79C91A0C4813465B00134466
:101F4000DB00034408331960094B1B681B68FF2240
:101F50005A62032002F0E7FC7B69BB60BB6883F335
:101F6000108800BF00BF1837BD4680BD0C0200209E
:101F7000B00700209C0200209D02002080B584B0A4
:101F800000AFF8600B467A60FB727B68984700BF31
:101F90001037BD4680BD000080B586B000AFB96087
:101FA0007B600346FB731346BB810023FB75002354
:101FB000BB75FB7B022B0ED1174A7B681360174B56
:101FC000174A1A60BB891A46B968144806F0CAFE57
:101FD0000346FB7500E000BFFB7D032B16D801A272
:101FE00052F823F0F51F0008FB1F0008012000082D
:101FF000072000080023BB7509E00123BB7506E03C
:102000000223BB7503E00323BB7500E000BFBB7D6B
:1020100018461837BD4680BDBC070020FC070020CD
:102020000080004080B582B000AF78607B681B689C
:102030001A46094B9A4207D1084B1B68002B05D062
:10204000064B1B68984701E000BF00E000BF00BFDF
:102050000837BD4680BD00BF00800040BC0700209F
:1020600080B400AF4FF0B043D3F898304FF0B04297
:1020700043F00103C2F8983000BFBD465DF8047B11
:10208000704780B400AF4FF0B043D3F8983003F0FE
:102090000203022B01D1012300E000231846BD46B4
:1020A0005DF8047B704780B483B000AF78604FF078
:1020B000B043D3F8903023F018024FF0B0417B6862
:1020C0001343C1F8903000BF0C37BD465DF8047B68
:1020D000704780B485B000AF78604FF0B0439A6C21
:1020E0004FF0B0417B6813438B644FF0B0439A6C60
:1020F0007B681340FB60FB6800BF1437BD465DF88A
:10210000047B704780B485B000AF78604FF0B04377
:10211000DA6C4FF0B0417B681343CB644FF0B043AF
:10212000DA6C7B681340FB60FB6800BF1437BD4668
:102130005DF8047B704780B485B000AF78604FF0E5
:10214000B0439A6D4FF0B0417B6813438B654FF0FD
:10215000B0439A6D7B681340FB60FB6800BF143787
:10216000BD465DF8047B704780B483B000AF7860F3
:1021700039607B683A68203253F82230054A93422E
:1021800001D0012300E0002318460C37BD465DF85E
:10219000047B70470004008080B500AF02F0DCF9DA
:1021A000FEF7D0FD00F016F800F070F800F096F899
:1021B00000F024F900F015F900F0F6F800F0A2F8AC
:1021C00000F0BEF800F0A6F8FEF7CAFDFEF7CEFF5D
:1021D000FCE7000080B59AB000AF07F12003482269
:1021E000002118460FF066F83B1D00221A605A6065
:1021F0009A60DA601A615A619A6104F0A7FD0020C2
:10220000FFF751FF204B1B6823F4C0631E4A43F4C1
:10221000007313601C4B1B6803F4C0633B603B6896
:1022200007233B624FF480337B620123BB624FF490
:102230008073FB6240233B630023FB6407F12003B0
:10224000184605F00FF90346002B01D000F01AF9EB
:102250006F237B600223BB600023FB6000233B6194
:1022600000237B610023BB610023FB613B1D012137
:10227000184605F06BFC0346002B01D000F002F974
:1022800000BF6837BD4680BD0004005880B594B0DB
:1022900000AF3B465022002118460FF00BF843F6E2
:1022A00003033B600023BB610023FB614FF4807399
:1022B0003B644FF480437B640223BB641023FB64C4
:1022C0003B46184606F078F80346002B01D000F094
:1022D000D9F800BF5037BD4680BD000080B500AFC3
:1022E000064B074A1A60054802F04CFF0346002BD4
:1022F00001D000F0C7F800BF80BD00BFC0070020BC
:10230000000C005880B400AF00BFBD465DF8047BF0
:102310007047000080B500AF074B084A1A60064BB3
:1023200000225A60044806F008FB0346002B01D047
:1023300000F0A8F800BF80BDDC09002000100058A4
:1023400080B500AF164B174A1A60154B00225A6031
:10235000134B0F229A60124B47F6FF72DA60104B54
:1023600000221A610E4B00229A610D4B0022DA61A5
:102370000B4B00225A610A4806F014FB0346002B5F
:1023800001D000F07FF800220021054806F0F8FB9C
:102390000346002B01D000F075F800BF80BD00BFE0
:1023A000F00900200028004080B500AF0420FFF7AE
:1023B00090FE0120FFF78DFE0220FFF78AFE00222B
:1023C0000F210E2002F095FA0E2002F0ACFA002246
:1023D0000F213A2002F08DFA3A2002F0A4FA00BF51
:1023E00080BD80B500AF0420FFF78CFE0120FFF711
:1023F00089FE0220FFF786FE00BF80BD80B59AB03F
:1024000000AF07F118035022002118460EF052FFCA
:102410003B4600221A605A609A60DA601A615A617B
:1024200005211748FFF7A0FEFFF71AFE00BFFFF7D0
:1024300028FE0346002BFAD04FF48073BB610023C3
:10244000FB6407F11803184605F0B6FF4FF08070E3
:10245000FFF771FE00233B604FF000537B604BF6AB
:102460007F33FB6022233B610023BB6020237B6121
:102470003B46184606F016F900BF6837BD4680BDDA
:102480000014005880B400AF00BFBD465DF8047B67
:10249000704780B483B000AF78604FF0B043D3F89A
:1024A000903023F440724FF0B0417B681343C1F881
:1024B000903000BF0C37BD465DF8047B704780B498
:1024C00000AF4FF0B043D3F890304FF0B04243F438
:1024D0000043C2F8903000BFBD465DF8047B7047F2
:1024E00080B485B000AF78604FF0B0431A6D4FF004
:1024F000B0417B6813430B654FF0B0431A6D7B68A6
:102500001340FB60FB6800BF1437BD465DF8047BD9
:10251000704780B485B000AF78604FF0B0439A6DDB
:102520004FF0B0417B6813438B654FF0B0439A6D19
:102530007B681340FB60FB6800BF1437BD465DF845
:10254000047B704780B500AF4FF40020FFF7C8FF51
:10255000002200212E2002F0CCF92E2002F0E3F917
:1025600000BF80BD80B582B000AF78607B681B681B
:102570000D4A934213D14FF48010FFF7B1FF0022B0
:1025800000212C2002F0B5F92C2002F0CCF9002219
:1025900000212D2002F0ADF92D2002F0C4F900BF7A
:1025A0000837BD4680BD00BF000C005880B596B00E
:1025B00000AF786007F108035022002118460EF0A2
:1025C00079FE7B681B680D4A934213D14FF4007368
:1025D000BB604FF080533B6407F10803184605F0D9
:1025E000EBFE0346002B01D0FFF74CFF4FF4802099
:1025F000FFF776FF00BF5837BD4680BD001000587A
:1026000080B582B000AF78607B681B680B4A93424C
:1026100010D104F09BFB04F099FB4FF48070FFF79E
:1026200038FFFFF74CFF4FF48060FFF772FF7868C8
:1026300006F062FB00BF0837BD4680BD00280040A1
:1026400080B400AF00BFBD465DF8047B704780B426
:1026500000AFFEE780B400AFFEE780B400AFFEE756
:1026600080B400AFFEE780B400AF00BFBD465DF8A8
:10267000047B704780B400AF00BFBD465DF8047BAB
:10268000704780B400AF00BFBD465DF8047B704763
:1026900080B500AF01F0BAFF00BF80BD80B500AFCC
:1026A000024802F002FF00BF80BD00BFB00A002058
:1026B00080B500AF024802F0F8FE00BF80BD00BF49
:1026C000B00A002080B500AF024802F0A9FA00BFAE
:1026D00080BD00BF1C09002080B500AF024806F095
:1026E000D3FB00BF80BD00BF8C08002080B500AFC9
:1026F000024806F0C9FB00BF80BD00BFFC070020F8
:1027000080B500AF01F050FC00BF80BD80B500AFC8
:1027100001F082FC00BF80BD80B500AF02F00EFD6D
:1027200000BF80BD80B500AF024802F079FA00BF5B
:1027300080BD00BF7C09002080B500AF4FF48060F1
:1027400002F0E4FC00BF80BD80B500AFFFF7B4F835
:1027500000BF80BD80B586B000AFF860B9607A6018
:1027600000237B610AE0AFF300800146BB685A1C7E
:10277000BA60CAB21A707B6901337B617A697B687F
:102780009A42F0DB7B6818461837BD4680BD80B49E
:1027900083B000AF78604FF0FF3318460C37BD466A
:1027A0005DF8047B704780B483B000AF7860396017
:1027B0003B684FF400525A60002318460C37BD4660
:1027C0005DF8047B704780B483B000AF786001236C
:1027D00018460C37BD465DF8047B704780B485B061
:1027E00000AFF860B9607A60002318461437BD4620
:1027F0005DF8047B7047000080B584B000AF78605E
:10280000114B1B68002B02D10F4B104A1A600E4B64
:102810001B68FB600C4B1A687B6813446A46934242
:1028200007D90EF0FFFC03460C221A604FF0FF336D
:1028300006E0054B1A687B681344034A1360FB6883
:1028400018461037BD4680BD140A002068220020BB
:1028500080B400AF034B1B681846BD465DF8047B8F
:10286000704700BF8075FF1F80B400AF034B1B682B
:10287000DBB21846BD465DF8047B70478475FF1FC8
:1028800080B400AF034B1B681B0A1846BD465DF8B9
:10289000047B70478475FF1FB0B590B000AF284B24
:1028A0003C1D1D460FCD0FC40FCD0FC40FCD0FC45F
:1028B00095E8030084E8030000F0B8FA0121022043
:1028C0000EF042FA1F4A002120200EF069FB3B1D4A
:1028D00018460CF005FA034687F83F3097F83F306A
:1028E000002B08D097F83F30194617480EF0CAFD64
:1028F000FFF7C8FD02E015480EF0C4FD00F0ACFA89
:102900000AF02EFF124A002101200EF049FB114A65
:10291000002102200EF044FB0F4B002283F88020A0
:1029200020200BF086FF00F053FD0C4B00220C49D9
:102930000020FFF77BF900BF4037BD46B0BD00BFA8
:102940003C270108FDEE0008DC26010814270108D9
:10295000AD31000809320008A802002085320008C5
:1029600029030020F0B59BB006AF7860922387F86A
:102970004B307B6801337B647B6C02333B64002308
:10298000FB647B6C1B78FF2B09D0FF2B00F30B82C1
:10299000052B00F098803E2B00F0B38003E2A04BA3
:1029A00001221A707B6C0233FB63FB6B1B889BB2AA
:1029B00040F60202934229D040F6020293427EDCA6
:1029C000042B71D040F20742934278D1FB6B023363
:1029D0003B633B6B1B78022B73D13B6B5B78002B0B
:1029E0006FD1002001F0D8FC8E480EF0E7FD8E4B31
:1029F00093F88230012B64D18B4B93F88030062BF7
:102A00005FD0002102200EF0EDFA5AE0FB6B02339A
:102A1000BB6300200BF00DFFBB6B9A78834B1A70E1
:102A2000BB6BB3F803309AB2804B5A80BB6BB3F8E0
:102A300005309AB27D4B9A80BB6BB3F807309AB2DF
:102A40007A4BDA80BB6BB3F809309AB2774B1A81B4
:102A5000BB6BB3F80B309AB2744B5A81724BD88A65
:102A6000724B9988714BDC88704B1D896F4B5B8969
:102A70006E4A1278012604960392102202921022C6
:102A8000019200932B4622460CF046F8034687F845
:102A9000373097F83730002B02D0022001F062FC6B
:102AA00020200BF0C6FE0DE0012001F05BFC5E4B28
:102AB00093F881300A211846FFF7D8F902E000BFE9
:102AC00074E100BF72E13B6CB3F801309AB2564B2F
:102AD000DB8A9A4240F06981534B0022DA82524BE2
:102AE000002283F8802052480EF068FD4C4B0122F2
:102AF0001A704D4BDA8A4A4B5A80494800F0AEFCB6
:102B000053E17B6C0233FB62FB6A1B78013B0B2BAE
:102B100000F2458101A252F823F000BF592C0008B1
:102B2000BB2C00084D2B00089F2D00089F2D00088E
:102B30009F2D00089F2D00089F2D00089F2D000845
:102B40009F2D00089F2D0008A52B0008FB6A01336C
:102B50007B6238480EF032FD7B6AB3F803309BB2DB
:102B60001846FDF7E1FD4FF00002334BFDF760FB27
:102B700002460B46104619467B6AB3F805309BB2F5
:102B80001C467B6AB3F807309BB21A4613469B007B
:102B900013445B000193009402460B4627480EF055
:102BA00071FCFFE0FB6A0133BB6225480EF06AFC52
:102BB000BB6A1B78002B03D122480EF0FFFC02E019
:102BC00021480EF0FBFC184BDB8A07F10E0207F1DF
:102BD0000F0118460BF0A5FE034687F84B3097F817
:102BE0004B30002B03D019480EF04CFCDAE01848AB
:102BF0000EF0E4FCFB7B022B0AD1BB7B022B07D13E
:102C0000FB7B1946BB7B1A4612480EF03BFCC9E021
:102C1000FB7B1946BB7B1A460E480EF033FCC1E025
:102C2000280A002074270108A80200202C0A00208E
:102C3000A4270108CC2701080000F43F0028010860
:102C40006C2801089C280108A8280108B42801085C
:102C5000D4280108F4280108FB6A01333B613B6971
:102C6000B3F801309AB2544BDA82534B062283F800
:102C7000802052480EF0A2FC514B00221A704E4B9D
:102C8000DA8A4F4B5A804E4800F0E8FB4A4BDB8A09
:102C900018460BF04DFA034687F8373097F837306F
:102CA000002B06D147480EF089FC47480EF0EAFB9E
:102CB00078E046480EF0E6FB74E0FB6A01333B62C5
:102CC0003B6A5B78FB773B6A5B7ABB773B6A09338D
:102CD0000133BB610023FB64FB7F002B61D159E012
:102CE000FB6CBA6913441B78FB75FB6C0133BA6942
:102CF00013441B78BB75BB7DFF2B09D0FF2B3FDC3A
:102D0000162B3FD0162B3BDC012B3DD00A2B3CE091
:102D1000FB7D062B30D9FB6C0233BA6913441B7858
:102D2000012B29D12A480EF049FCFB6C0333BA6908
:102D300013441B78832B21D126480EF03FFC1E4BF9
:102D4000012283F882203B6ADA78234B1A703B6AAF
:102D50001A79214B5A703B6A5A791F4B9A703B6A19
:102D60009A791D4BDA703B6ADA791B4B1A713B6A10
:102D70001A7A194B5A7102E000BF06E000BF04E066
:102D800000BF02E000BF00E000BFFB7D0133FA6C32
:102D90001344FB64BB7FFA6C9A42A1DB01E000BFE5
:102DA00004E000BF02E000BF00E000BF01231846BE
:102DB0005437BD46F0BD00BFA80200201829010805
:102DC000280A00203C29010870290108A0290108CF
:102DD000E0290108FC290108200A002080B483B002
:102DE00000AF0346FB80084BDB8AFA889A4203D186
:102DF000054B93F8803000E0002318460C37BD46A1
:102E00005DF8047B704700BFA802002080B500AFCA
:102E100000F088FE0346062B04D0002101200EF0AE
:102E2000E1F801E000F04CFB00BF80BD80B582B04E
:102E300000AF064B3B60064B7B603B46194605489E
:102E40000CF040F800BF0837BD4680BD28000320C5
:102E50009933000861330008F0B58DB006AF002348
:102E60003B809223FB75A2480EF0A8FB0BF035FDCA
:102E70000346FB75FB7D002B05D0FB7D19469D4865
:102E80000EF000FB02E09C480EF098FB00F002FA06
:102E900038613A69062100200BF0DFFB0346FB7521
:102EA000FB7D002B05D0FB7D194694480EF0EAFA15
:102EB00021E093480EF082FB3B6905331B781846EE
:102EC0003B6904331B781C463B6903331B781D4662
:102ED0003B6902331B781A463B6901331B7819465C
:102EE0003B691B780293019100922B4622460146D2
:102EF00084480EF0C7FA3B695A79834B1A723B69D2
:102F00001A79814B5A723B69DA787F4B9A723B6926
:102F10009A787D4BDA723B695A787B4B1A733B691E
:102F20001A78794B5A73794A102118200BF095FBC7
:102F30000346FB75FB7D002B05D0FB7D19467448CD
:102F40000EF0A0FA02E073480EF038FB724A10212E
:102F500008200BF082FB0346FB75FB7D002B05D0A0
:102F6000FB7D19466D480EF08DFA02E06C480EF0BC
:102F700025FB182101200BF0F5FB0346FB75FB7DBB
:102F8000002B05D0FB7D194666480EF07BFA02E067
:102F900065480EF013FB0AF0FDFF0346FB75FB7D51
:102FA000002B05D0FB7D194660480EF06BFA02E05D
:102FB0005F480EF003FB0023FB73FB7B43F004032D
:102FC000FB73FB7B002B2BD05A4BBB60BA1DF87BED
:102FD000BB1C01933B1D00931346072200210AF0FE
:102FE00099FD0346FB75FB7D002B05D0FB7D194643
:102FF00051480EF047FA02E050480EF0DFFAFC8824
:10300000BD88B868FDF7BCF80346DAB2BB68009328
:1030100013460022294620460AF0E1FF0346FB75CD
:10302000F88879883B460093022300220AF0D7FFF4
:103030000346FB750222022100200BF0F0FC034640
:10304000FB75FB7D002B05D0FB7D19463C480EF03F
:1030500019FA02E03B480EF0B1FA3B4B00221A701D
:10306000394B1B7818460AF03DFC0346FB75FB7D87
:10307000002B05D0FB7D194634480EF003FA02E020
:1030800033480EF09BFA304B01225A702E4B082227
:103090001A712D4B10225A712B4B0122DA702A4BD8
:1030A0002C4A9A60284B01229A70274B9C78264B19
:1030B0005D78254B1B79244A52792349C9782248E7
:1030C00080680026049603900291019200930023E9
:1030D0000022294620460AF059FC0346FB75FB7D79
:1030E000002B3BD0FB7D19461B480EF0CBF938E096
:1030F000202A01084C2A01087C2A01089C2A010880
:10310000F82A0108442B0108080000207435010842
:10311000802B0108D82B010884350108202C0108D8
:10312000782C0108C02C0108002D0108302D010861
:10313000642D0108882D0108902D0108C02D01087B
:10314000E02D01081C2E0108A8020020482E0108CD
:10315000882E010807B20100B82E01080E480EF0B3
:103160002DFA0E4B9B78002B0FD00AF080FD034602
:10317000FB75FB7D002B05D0FB7D194608480EF042
:1031800081F902E007480EF019FA07480EF07AF9C3
:1031900000BF1C37BD46F0BD042F0108A802002067
:1031A000402F0108802F0108B02F010880B582B0A0
:1031B00000AF124B93F88030062B1AD0002001F09C
:1031C000D1F8012300224FF448714FF448700AF0FF
:1031D00072FD0346FB71FB79002B03D108480EF00A
:1031E00051F906E0022001F0BDF806480EF04AF958
:1031F00000BF00BF0837BD4680BD00BFA802002049
:10320000DC2F01080C30010880B58AB008AF1A48DD
:103210000EF038F9194B93F88030062B28D0102384
:103220000693102305934FF4FA730493002303933A
:10323000502302932823019300230093104B002274
:103240004FF448714FF448700AF0C9FD0346FB7112
:10325000FB79002B04D1094B042283F8802007E07E
:10326000022001F07FF8054B002283F8802000BF88
:1032700000BF0837BD4680BD3C300108A8020020D1
:10328000200A002080B500AF012001F085F800BFC2
:1032900080BD000080B586B000AFFFF7D9FA386175
:1032A0003B69B3F1FF3F23D0FFF7EAFAB860FFF7BD
:1032B000DBFA78603B69DAB2164B1A703B691B0A7D
:1032C000DAB2144B5A707B68DAB2124B9A70BB6850
:1032D000DAB2104BDA70BB681B0ADAB20D4B1A7106
:1032E000BB681B0CDAB20B4B5A710A4B7B610BE0CB
:1032F00000200DF02FF8F860FB68002B02D0FB686F
:103300007B6101E0044B7B617B6918461837BD4641
:1033100080BD00BF180A00206C35010880B582B05E
:1033200000AF7860002120200DF05CFE00BF083760
:10333000BD4680BD80B582B000AF786001200DF041
:10334000BDFE00BF0837BD4680BD80B582B000AF6E
:10335000786001200DF0D2FE00BF0837BD4680BD69
:1033600080B584B000AF78607B68FB60FB685B6809
:10337000083318460AF046FA0346FB72FB7A002B24
:1033800003D0FB6801221A7003E0FB6800221A7068
:1033900000BF1037BD4680BD80B584B000AF034686
:1033A000FB71FB79002B02D0012B06D00BE03F23F1
:1033B000FB60F8680DF042FE05E03F23FB60F86813
:1033C0000DF05CFE00BF00BF1037BD4680BD0000A1
:1033D00080B582B000AF0023FB711A4A002104209F
:1033E0000DF0DEFD184A002108200DF0D9FD174B25
:1033F00000221A70154B0022DA80144B00225A70FA
:10340000124B00229A70114B0122DA700F4B0022EE
:103410001A710023FB7108E0FB790D4A1B0113446C
:1034200000221A70FB790133FB71FB79002BF3D07A
:1034300008480AF0CDF908480EF0C0F800BF083778
:10344000BD4680BDF93B0008B13B00083C030020AD
:103450002C030020D13400086830010880B584B006
:1034600000AF78607B681B78002B02D0012B05D061
:103470001EE07B685A88104BDA8019E00023FB734A
:103480000D4B0022DA8005E0FB7B0C4A1B01134444
:1034900000221A70FB7B002B06D1FB7B074A1B0125
:1034A00013441B78002BEFD1002000F075FF00BF04
:1034B00000BF1037BD4680BD3C0300202C03002018
:1034C00080B500AF002108200DF08CFD00BF80BD4D
:1034D00080B594B000AF7860002387F845307B68F2
:1034E00001333B643B6C1B78FF2B40F0B7823B6C95
:1034F0000233FB63FB6B1B889BB2A3F604430C2BCC
:1035000000F2A08201A252F823F000BF5138000857
:10351000453A0008F7360008453A0008453A0008E1
:10352000453A000841350008453A0008453A000888
:10353000453A0008453A00086D390008EF3900089F
:10354000FB6B02333B633B6B1A785B781B021343C4
:10355000FB85002387F84D302EE097F84D30B84AB0
:103560001B01134402331B881846FFF737FC034640
:1035700087F82D3097F84D30B14A1B0113441B7862
:10358000062B14D197F82D30002B10D197F84D3021
:10359000AB4A1B01134400221A7097F84D30A84A19
:1035A0001B01134402334FF6FF721A8010E097F8A4
:1035B0004D30013387F84D3097F84D30002B07D14F
:1035C00097F84D309E4A1B0113441B78002BC4D141
:1035D00097F84D30002B40F0378297F84D30984ADD
:1035E0001B0113440233FA8D1A803B6BDA783B6B74
:1035F0009B78B2FBF3F387F82C303B6B9B78142B52
:1036000040F02282102387F84E30002387F84F3095
:103610006AE097F84E303A6B13441B799AB297F8E8
:103620004E30396B0B44043301331B789BB21B02C1
:103630009BB213437B857B8D4FF64062934249D109
:1036400097F84D307E4A1B01134402331B881946FC
:103650007C480DF017FF97F84E30103B3A6B13443F
:103660001B7999B297F84E30103B3A6B13440433F0
:1036700001331B789BB21B029AB297F84D300A4374
:1036800091B26F4A1B01134404330A461A8097F81B
:103690004E300E3B3A6B13441B7999B297F84E307B
:1036A0000E3B3A6B1344043301331B789BB21B026D
:1036B0009AB297F84D300A4391B2614A1B01134404
:1036C00006330A461A8097F84D305D4A1B011344B1
:1036D00008221A7097F84E30063387F84E3097F864
:1036E0004F30013387F84F3097F84F2097F82C3040
:1036F0009A428ED3A8E1FB6B02337B62002387F8EA
:103700004B3004E097F84B30013387F84B3097F893
:103710004B30002B0BD197F84B30494A1B01134417
:1037200002331A887B6A1B889BB29A42EAD197F8C7
:103730004B30002B40F08A81112387F84C307B6A94
:103740009B78152B40F082817B6ADB78013BDAB2F3
:103750007B6ADA706FE097F84C307A6A13441B7911
:103760009AB297F84C30796A0B44043301331B78D2
:103770009BB21B029BB213437B8497F84C300E3BE9
:103780007A6A13441B799AB297F84C300E3B796AE7
:103790000B44043301331B789BB21B029BB21343CF
:1037A0003B847B8C4FF6416293421AD197F84B30A1
:1037B000234A1B01134402331B88194622480DF08B
:1037C00061FE97F84B301E4A1B01134409221A7000
:1037D00097F84B301A4A1B01134408333A8C1A806D
:1037E0001EE07B8C4FF64262934219D197F84B3022
:1037F000134A1B01134402331B88194613480DF06A
:1038000041FE97F84B300E4A1B0113440A221A70EE
:1038100097F84B300A4A1B0113440C333A8C1A8038
:103820007B6ADB78153BDAB27B6ADA7097F84C304A
:10383000153387F84C307B6ADB78002B8BD105E1A0
:103840002C03002084300108C0300108F830010842
:10385000FB6B0233FB61002387F8483004E097F8E4
:103860004830013387F8483097F84830002B0BD1A7
:1038700097F848307D4A1B01134402331A88FB69CC
:103880001B889BB29A42EAD197F84830002B40F04F
:10389000DF80FB69DB789B08FB76002387F84A30E2
:1038A000FB699B78012B40F0D380002387F84930D7
:1038B00056E097F84A30FA6913441B799AB297F8A0
:1038C0004A30F9690B44043301331B789BB21B0265
:1038D0009BB213433B8397F84A300233FA6913448F
:1038E0001B799AB297F84A300233F9690B440433D2
:1038F00001331B789BB21B029BB21343FB82FB8AF2
:1039000042F60212934221D197F84830574A1B01E0
:10391000134402331B88194655480DF0B3FD97F840
:103920004830524A1B0113441B780A2B0ED197F8DA
:1039300048304E4A1B0113440E333A8B1A8097F8D5
:1039400048304A4A1B0113440B221A7097F84A3038
:10395000043387F84A3097F84930013387F8493003
:1039600097F84920FB7E9A42A3D371E0FB6B0233A8
:103970007B63002387F8473004E097F84730013332
:1039800087F8473097F84730002B0BD197F847302E
:10399000364A1B01134402331A887B6B1B889BB287
:1039A0009A42EAD197F84730002B53D17B6B5B8862
:1039B0009AB297F847302D491B010B440C331B88F2
:1039C0009A4247D17B6B1B791A462A4B1B689A4255
:1039D00040D102233B727B6B1B793B747B6B0533BD
:1039E000FB6007F10803184600F048F832E0FB6B73
:1039F0000233BB6320480DF0E1FD0A200DF05AFDB3
:103A0000002387F8463004E097F84630013387F802
:103A1000463097F84630002B0BD197F84630134AC2
:103A20001B01134402331A88BB6B1B889BB29A425A
:103A3000EAD197F84630002B0ED1002104200DF07A
:103A4000D1FA09E000BF0AE000BF08E000BF06E0CD
:103A500000BF04E000BF02E000BF00E000BF97F835
:103A6000453018465037BD4680BD00BF2C030020AE
:103A70003C310108180000208431010880B582B073
:103A800000AF78607B681B78022B39D17B685B685C
:103A90001A781E4B5A707B685B6819461C480DF0FB
:103AA000F1FC1A4B5B78012B28D17B685B685A7854
:103AB000164B9A707B685B681B7819467B685B685D
:103AC00001331B781A4613480DF0DCFC0F4B9B7832
:103AD000002B09D1002000F05FFC0F480DF0D2FC54
:103AE0000E480DF0CFFC0AE00D480DF0CBFC0B4862
:103AF0000DF0C8FC002000F035FC00E000BF00E045
:103B000000BF00BF0837BD4680BD00BF3C0300209A
:103B1000B4310108C8310108F03101083032010820
:103B20003432010880B400AF034B1B781846BD4601
:103B30005DF8047B704700BF2C03002080B584B083
:103B400000AF03463A60FB800B467B719223FB7308
:103B50000023BB731BE0FB884FF64162934212D1F6
:103B6000BB7B124A1B01134402331888BB7B0F4AEC
:103B70001B011344083319883B6802220AF0D1FC68
:103B80000346FB7300E000BFBB7B0133BB73BB7B11
:103B9000002B06D1BB7B054A1B0113441B78002B6D
:103BA000D9D1FB7B18461037BD4680BD2C030020C1
:103BB00080B500AF0C480DF065FC0C480DF062FCC0
:103BC0000B4B1B79002B03D1094B01221A7102E028
:103BD000074B00221A71074A00214FF64160FFF798
:103BE000ADFF00BF80BD00BF743201083032010854
:103BF0003C0300203F03002080B582B000AF0123CA
:103C0000BB8000237B800023FB71A5E0FB795A4A2F
:103C10001B0113441B78073B052B00F2998001A27E
:103C200052F823F03D3C0008453C0008773C000872
:103C3000AD3C0008E33C00081D3D00084F480DF076
:103C4000BDFC86E04E480DF0B9FCFB794A4A1B01E9
:103C5000134402331888FB79474A1B011344043389
:103C60001988FB79444A1B01134406331B881A4602
:103C70000AF0B6FA6DE043480DF0A0FCFB793E4A2D
:103C80001B01134402331888FB793B4A1B01134480
:103C900008331988FB79384A1B01134408331B8801
:103CA00002339BB21A460AF01CFB52E036480DF074
:103CB00085FCFB79304A1B01134402331888FB79D9
:103CC0002D4A1B0113440C331988FB792A4A1B0126
:103CD00013440C331B8802339BB21A460AF001FBD3
:103CE00037E02A480DF06AFCFB79234A1B01134494
:103CF00002331888FB79204A1B0113440E331988BC
:103D00003B1D02220AF06EFBFB791B4A1B01134488
:103D100006221A70022000F03FFB1AE01C480DF04A
:103D20004DFCFB79144A1B01134402331888FB79BC
:103D3000114A1B0113440E331988BB1C02220AF0DE
:103D400051FBFB790C4A1B01134406221A7000E058
:103D500000BFFB790133FB71FB79002B08D1FB79A4
:103D6000054A1B0113441B78002B7FF44FAF00BFA3
:103D700000BF0837BD4680BD2C030020B4320108C7
:103D8000CC320108F43201083033010870330108E5
:103D90009433010880B400AF054BDB68044A43F458
:103DA0000043D36000BFBD465DF8047B704700BF91
:103DB0000004005880B483B000AF7860064BD3F89D
:103DC000D42005497B681343C1F8D43000BF0C37B9
:103DD000BD465DF8047B70470008005880B483B08E
:103DE00000AF7860054B1A6A04497B6813430B6285
:103DF00000BF0C37BD465DF8047B704700080058D3
:103E000080B485B000AF78604FF0B0431A6D4FF0CA
:103E1000B0417B6813430B654FF0B0431A6D7B686C
:103E20001340FB60FB6800BF1437BD465DF8047BA0
:103E3000704780B485B000AF78604FF0B043D3F8DE
:103E400050214FF0B0417B681343C1F850314FF01F
:103E5000B043D3F850217B681340FB60FB6800BF80
:103E60001437BD465DF8047B704780B483B000AF63
:103E700078607B681B6843F480327B681A6000BFFF
:103E80000C37BD465DF8047B704780B483B000AF4B
:103E900078607B681B6843F001027B681A6000BF92
:103EA0000C37BD465DF8047B704780B483B000AF2B
:103EB000786039607B685A683B681B04DB431A40B2
:103EC0007B685A6000BF0C37BD465DF8047B7047C5
:103ED00080B483B000AF786039607B685A683B6813
:103EE0001B041A437B685A6000BF0C37BD465DF85F
:103EF000047B704780B483B000AF786039607B6822
:103F00005A683B68DB431A407B685A6000BF0C3735
:103F1000BD465DF8047B704780B483B000AF786025
:103F200039607B683A689A6000BF0C37BD465DF81F
:103F3000047B704780B483B000AF786039603B6821
:103F40001A047B689A6000BF0C37BD465DF8047B9D
:103F5000704780B483B000AF786039607B68DA68FE
:103F60003B6813403A689A4201D1012300E00023E4
:103F700018460C37BD465DF8047B704780B483B0AB
:103F800000AF786039607B68DA693B6813403A6853
:103F90009A4201D1012300E0002318460C37BD46A8
:103FA0005DF8047B7047000080B500AF022119481E
:103FB000FFF7E4FF0346002B09D0164B5B68DB4399
:103FC00003F00203002B02D000F0DAF81FE0012119
:103FD0001048FFF7D3FF0346002B08D00D4B5B685A
:103FE00003F00103002B02D100F08EF80FE008214E
:103FF0000848FFF7C3FF0346002B09D0054B5B6859
:10400000DB4303F00803002B02D000F005F900BFEA
:1040100000BF80BD000C005880B500AF02211A48D7
:10402000FFF797FF0346002B09D1174B5B68DB4373
:1040300003F40033002B02D000F096F820E00821B2
:104040001148FFF786FF0346002B09D10E4B5B6832
:10405000DB4303F40023002B02D000F0BFF80FE095
:1040600020210948FFF775FF0346002B09D1064BB5
:104070005B68DB4303F40013002B02D000F050F820
:1040800000BF00BF80BD00BF000C005880B500AF6E
:104090004FF48010FFF7CDFE4FF40070FFF79EFE47
:1040A0004FF40070FFF786FE40BF20BFFFF772FE9F
:1040B00000BF80BD80B500AF4FF48010FFF7A0FEB9
:1040C0000648FFF7E2FE0548FFF7CFFE2C2000F080
:1040D0002AFC2D2000F027FC00BF80BD000C0058FA
:1040E00080B500AF01210248FFF704FF00BF80BD8B
:1040F000000C005880B500AF01210248FFF71AFFFD
:1041000000BF80BD000C005880B500AF0BF034FA42
:1041100001210248FFF700FF00BF80BD000C0058DE
:1041200080B500AF20210348FFF7D2FE0BF054FA10
:1041300000BF80BD000C005880B500AF02210248CE
:10414000FFF7D8FE00BF80BD000C005880B500AF5F
:1041500002210448FFF7EEFE02210248FFF7A5FE08
:1041600000BF80BD000C005880B500AF022103489D
:10417000FFF7AEFE0BF080FA00BF80BD000C0058C8
:1041800080B500AF0BF08EFA02210248FFF7C4FEA3
:1041900000BF80BD000C005880B582B000AF7860D1
:1041A00008210C48FFF7D5FE0346002B07D00A4A2A
:1041B0007B68136008210748FFF777FE06E07B68FD
:1041C000984708210348FFF7B5FE00BF0837BD46F2
:1041D00080BD00BF000C0058380A002080B500AF39
:1041E00008210648FFF774FE054B1B689847082115
:1041F0000248FFF79FFE00BF80BD00BF000C0058C3
:10420000380A002080B500AF08210248FFF772FE8F
:1042100000BF80BD000C005880B500AF0BF0EAFA7B
:1042200008210248FFF778FE00BF80BD000C00584F
:10423000D458C4500433C4188C42F9D37047036077
:1042400004308842FBD370470C48854600F00EF9D5
:104250000B480C490C4A0023FFF7EDFF0B480C49B3
:104260000023FFF7EEFF0B480B490023FFF7E9FFA0
:104270000CF0DEFFFDF790FFFEE7000000000320DA
:10428000080000200C020020E436010894030020FE
:1042900064220020E4010320670A0320FEE780B4C3
:1042A00085B000AF78604FF0B043DA6C4FF0B041AA
:1042B0007B681343CB644FF0B043DA6C7B681340E8
:1042C000FB60FB6800BF1437BD465DF8047B704798
:1042D00080B588B000AF0346FB7107F10C030022E4
:1042E0001A605A609A60DA601A61FB79002B03D178
:1042F0000120FFF7D4FF0CE0FB79012B03D1022052
:10430000FFF7CDFF05E0FB79022B02D10220FFF77A
:10431000C6FFFB79114A32F81330FB6001233B6181
:1043200000237B610223BB61FB790D4A52F82330E5
:1043300007F10C021146184600F060FDFB79084AAF
:1043400052F82300FB79054A32F81330002219464F
:1043500000F0C4FE00BF2037BD4680BD9435010883
:104360001C00002080B582B000AF0346FB71FB79D2
:10437000074A52F82300FB79064A32F8133001222B
:10438000194600F0ABFE00BF0837BD4680BD00BF38
:104390001C0000209435010880B582B000AF0346B0
:1043A000FB71FB79074A52F82300FB79064A32F881
:1043B00013300022194600F091FE00BF0837BD46B9
:1043C00080BD00BF1C0000209435010880B588B076
:1043D00000AF03460A46FB711346BB7107F10C039D
:1043E00000221A605A609A60DA601A610120FFF7B1
:1043F00056FFBB79002B12D14FF48063FB60002382
:104400003B6101237B610223BB61FB79164A52F8B1
:10441000233007F10C021146184600F0EFFCBB797F
:10442000012B1DD14FF48063FB6001237B614FF4AE
:1044300004133B61FB790C4A52F8233007F10C025C
:104440001146184600F0DAFC28235BB200220F2147
:10445000184600F04EFA28235BB2184600F063FAC3
:1044600000BF2037BD4680BD2800002080B400AFCB
:10447000264B00229A60254BD3F88830234A43F418
:104480007003C2F888304FF0B0431B684FF0B04261
:1044900043F0010313604FF0B0434FF4E0229A6001
:1044A0004FF0B0431A684FF0B041194B13400B6006
:1044B0004FF0B043D3F894304FF0B04223F00503EF
:1044C000C2F894304FF0B043D3F898304FF0B04278
:1044D00023F00103C2F898304FF0B0430D4ADA6080
:1044E0004FF0B0430B4A1A614FF0B0431B684FF0D6
:1044F000B04223F4802313604FF0B04300229A614E
:1045000000BFBD465DF8047B704700BF00ED00E0D2
:10451000FBFEF6FA0010042280B400AF054B5B6886
:10452000044A43F00103536000BFBD465DF8047BBD
:10453000704700BF002004E080B400AF054B5B680B
:10454000044A43F00203536000BFBD465DF8047B9C
:10455000704700BF002004E080B582B000AF0023A8
:10456000FB710C4B1B680B4A43F4807313600320F0
:1045700000F0B4F9002000F00FF80346002B02D041
:104580000123FB7101E0FDF7DDFFFB7918460837D9
:10459000BD4680BD0040005880B584B000AF786053
:1045A0000023FB73174B1B78002B24D003F07AFCFD
:1045B0000246144B1B7819464FF47A73B3FBF1F3A0
:1045C000B2FBF3F3184600F0CAF90346002B0FD1F3
:1045D0007B680F2B09D8002279684FF0FF3000F07C
:1045E00088F9094A7B68136007E00123FB7304E044
:1045F0000123FB7301E00123FB73FB7B184610379B
:10460000BD4680BD340000203000002080B400AFE3
:10461000064B1B781A46064B1B681344044A13606A
:1046200000BFBD465DF8047B704700BF340000202A
:104630003C0A002080B400AF034B1B681846BD46FF
:104640005DF8047B704700BF3C0A002080B400AFD7
:10465000034B1B681846BD465DF8047B704700BFDE
:104660003000002080B500AFFFF756FF00BF80BDCF
:1046700080B500AFFFF760FF00BF80BD80B485B09C
:1046800000AF78607B6803F00703FB600C4BDB68CE
:10469000BB60BA684FF6FF031340BB60FB681A02A9
:1046A000BB68134343F0BF6343F40033BB60044A69
:1046B000BB68D36000BF1437BD465DF8047B70470C
:1046C00000ED00E080B400AF044BDB681B0A03F090
:1046D00007031846BD465DF8047B704700ED00E017
:1046E00080B483B000AF0346FB7197F90730002B0D
:1046F0000BDBFB7903F01F02074997F907305B09D1
:10470000012000FA02F241F8232000BF0C37BD4619
:104710005DF8047B704700BF00E100E080B483B027
:1047200000AF0346FB7197F90730002B12DBFB79D2
:1047300003F01F020A4997F907305B09012000FACC
:1047400002F2203341F82320BFF34F8F00BFBFF3A5
:104750006F8F00BF00BF0C37BD465DF8047B70470C
:1047600000E100E080B483B000AF0346FB7197F92D
:104770000730002B0CDBFB7903F01F02074997F988
:1047800007305B09012000FA02F2403341F8232090
:1047900000BF0C37BD465DF8047B704700E100E0C8
:1047A00080B483B000AF0346FB7197F90730002B4C
:1047B0000CDBFB7903F01F02074997F907305B090F
:1047C000012000FA02F2603341F8232000BF0C37C9
:1047D000BD465DF8047B704700E100E080B483B023
:1047E00000AF03463960FB7197F90730002B0ADBF5
:1047F0003B68DAB20C4997F907301201D2B20B4488
:1048000083F800230AE03B68DAB20849FB7903F039
:104810000F03043B1201D2B20B441A7600BF0C37CF
:10482000BD465DF8047B704700E100E000ED00E06C
:1048300080B489B000AFF860B9607A60FB6803F0BB
:104840000703FB61FB69C3F10703042B28BF0423A3
:10485000BB61FB690433062B02D9FB69033B00E013
:1048600000237B614FF0FF32BB6902FA03F3DA43A6
:10487000BB681A407B699A404FF0FF317B6901FAAF
:1048800003F3D9437B680B40134318462437BD46D6
:104890005DF8047B7047000080B582B000AF78609F
:1048A0007B68013BB3F1807F01D301230FE00A4A0B
:1048B0007B68013B53600F214FF0FF30FFF78EFF05
:1048C000054B00229A60044B07221A600023184609
:1048D0000837BD4680BD00BF10E000E080B582B063
:1048E00000AF78607868FFF7C9FE00BF0837BD46A3
:1048F00080BD80B586B000AF0346B9607A60FB73B7
:10490000FFF7E0FE78617A68B9687869FFF790FF91
:10491000024697F90F3011461846FFF75FFF00BFB8
:104920001837BD4680BD80B582B000AF0346FB712D
:1049300097F907301846FFF7D3FE00BF0837BD468A
:1049400080BD80B582B000AF0346FB7197F9073098
:104950001846FFF7E3FE00BF0837BD4680BD80B5AF
:1049600082B000AF78607868FFF796FF034618467C
:104970000837BD4680BD80B582B000AF0346FB71ED
:1049800097F907301846FFF7EDFE00BF0837BD4620
:1049900080BD80B582B000AF0346FB7197F9073048
:1049A0001846FFF7FDFE00BF0837BD4680BD80B545
:1049B00086B000AFF860B9607A603B600023FB7599
:1049C000FB6893F82430012B01D1022366E0FB68D9
:1049D000012283F82420FB6893F82530DBB2012BF9
:1049E00055D1FB68022283F82520FB680022DA6398
:1049F000FB681B681A68FB681B6822F001021A60DA
:104A00003B687A68B968F86800F0B9F9FB681B6B15
:104A1000002B08D0FB681B681A68FB681B6842F013
:104A20000E021A600FE0FB681B681A68FB681B68BF
:104A300022F004021A60FB681B681A68FB681B6896
:104A400042F00A021A60FB689B6C1B6803F4803317
:104A5000002B07D0FB689B6C1A68FB689B6C42F4C8
:104A600080721A60FB685B6D002B07D0FB685B6D82
:104A70001A68FB685B6D42F480721A60FB681B6801
:104A80001A68FB681B6842F001021A6005E0FB68C7
:104A9000002283F824200223FB75FB7D184618377B
:104AA000BD4680BD80B483B000AF78607B68002BCA
:104AB00001D101234FE07B6893F82530DBB2022B54
:104AC00008D07B680422DA637B68002283F8242004
:104AD000012340E07B681B681A687B681B6822F032
:104AE0000E021A607B689B6C1A687B689B6C22F4D0
:104AF00080721A607B681B681A687B681B6822F0EA
:104B000001021A607B685B6C03F01C027B681B6C03
:104B1000012101FA02F25A607B68DB6C7A68126D3F
:104B20005A607B685B6D002B0CD07B685B6D1A68EC
:104B30007B685B6D22F480721A607B689B6D7A687B
:104B4000D26D5A607B68012283F825207B680022A1
:104B500083F82420002318460C37BD465DF8047BFB
:104B6000704780B584B000AF78600023FB737B682A
:104B700093F82530DBB2022B05D07B680422DA6380
:104B80000123FB7347E07B681B681A687B681B681E
:104B900022F00E021A607B681B681A687B681B682B
:104BA00022F001021A607B689B6C1A687B689B6C20
:104BB00022F480721A607B685B6C03F01C027B68D5
:104BC0001B6C012101FA02F25A607B68DB6C7A6887
:104BD000126D5A607B685B6D002B0CD07B685B6D3F
:104BE0001A687B685B6D22F480721A607B689B6D2B
:104BF0007A68D26D5A607B68012283F825207B6831
:104C0000002283F824207B689B6B002B03D07B68F9
:104C10009B6B78689847FB7B18461037BD4680BD74
:104C200080B584B000AF78607B681B6C1B68FB604C
:104C30007B681B681B68BB607B685B6C03F01C03B4
:104C400004229A40FB681340002B26D0BB6803F077
:104C50000403002B21D07B681B681B6803F0200332
:104C6000002B07D17B681B681A687B681B6822F0E1
:104C700004021A607B685B6C03F01C027B681B6C8F
:104C8000042101FA02F25A607B681B6B002B71D081
:104C90007B681B6B786898476CE07B685B6C03F003
:104CA0001C0302229A40FB681340002B2ED0BB68E5
:104CB00003F00203002B29D07B681B681B6803F0FC
:104CC0002003002B0BD17B681B681A687B681B686C
:104CD00022F00A021A607B68012283F825207B6893
:104CE0005B6C03F01C027B681B6C022101FA02F270
:104CF0005A607B68002283F824207B68DB6A002BE3
:104D000038D07B68DB6A7868984733E07B685B6CF7
:104D100003F01C0308229A40FB681340002B2AD0A2
:104D2000BB6803F00803002B25D07B681B681A685A
:104D30007B681B6822F00E021A607B685B6C03F0D4
:104D40001C027B681B6C012101FA02F25A607B682D
:104D50000122DA637B68012283F825207B68002228
:104D600083F824207B685B6B002B04D07B685B6B33
:104D70007868984700BF00BF1037BD4680BD80B43B
:104D800085B000AFF860B9607A603B60FB68DB6CAF
:104D9000FA68126D5A60FB685B6D002B04D0FB68EB
:104DA0009B6DFA68D26D5A60FB685B6C03F01C0265
:104DB000FB681B6C012101FA02F25A60FB681B6858
:104DC0003A685A60FB689B68102B08D1FB681B6827
:104DD0007A689A60FB681B68BA68DA6007E0FB686B
:104DE0001B68BA689A60FB681B687A68DA6000BF63
:104DF0001437BD465DF8047B7047000080B487B06F
:104E000000AF7860396000237B614CE13B681A6831
:104E100001217B6901FA03F31340FB60FB68002B5F
:104E200000F03E813B685B6803F00303012B05D073
:104E30003B685B6803F00303022B30D17B689B68FF
:104E40003B617B695B00032202FA03F3DB433A69AF
:104E500013403B613B68DA687B695B0002FA03F34D
:104E60003A6913433B617B683A699A607B685B6887
:104E70003B6101227B6902FA03F3DB433A69134089
:104E80003B613B685B681B0903F001027B6902FA26
:104E900003F33A6913433B617B683A695A603B68A4
:104EA0005B6803F00303032B17D07B68DB683B616F
:104EB0007B695B00032202FA03F3DB433A69134088
:104EC0003B613B689A687B695B0002FA03F33A69CD
:104ED00013433B617B683A69DA603B685B6803F0C7
:104EE0000303022B23D17B69DA087B68083253F86D
:104EF00022303B617B6903F007039B000F2202FA1B
:104F000003F3DB433A6913403B613B681A697B69F1
:104F100003F007039B0002FA03F33A6913433B6172
:104F20007B69DA087B680832396943F822107B68AC
:104F30001B683B617B695B00032202FA03F3DB43DE
:104F40003A6913403B613B685B6803F003027B698D
:104F50005B0002FA03F33A6913433B617B683A69E9
:104F60001A603B685B6803F44033002B00F09880C4
:104F7000544A7B699B08023352F823303B617B69BA
:104F800003F003039B000F2202FA03F3DB433A69A9
:104F900013403B617B68B3F1904F19D07B684A4A5C
:104FA000934213D07B68494A93420DD07B68484AAC
:104FB000934207D07B68474A934201D1042308E01B
:104FC000072306E0032304E0022302E0012300E0BC
:104FD00000237A6902F00302920093403A69134376
:104FE0003B6138497B699B0802333A6941F82320C9
:104FF000394B1B683B61FB68DB433A6913403B61FB
:105000003B685B6803F48013002B03D03A69FB68AC
:1050100013433B61304A3B6913602F4B5B683B6134
:10502000FB68DB433A6913403B613B685B6803F410
:105030000013002B03D03A69FB6813433B61264AF7
:105040003B695360244BD3F880303B61FB68DB4302
:105050003A6913403B613B685B6803F48033002B83
:1050600003D03A69FB6813433B611B4A3B69C2F8B2
:105070008030194BD3F884303B61FB68DB433A69DD
:1050800013403B613B685B6803F40033002B03D0A3
:105090003A69FB6813433B610F4A3B69C2F88430AD
:1050A0007B6901337B613B681A687B6922FA03F3F1
:1050B000002B7FF4ABAE00BF00BF1C37BD465DF8D0
:1050C000047B7047000001400004004800080048CD
:1050D000000C0048001000480008005880B483B05D
:1050E00000AF78600B467B8013467B707B78002B8B
:1050F00003D07A887B689A6102E07A887B689A623A
:1051000000BF0C37BD465DF8047B704780B582B0A8
:1051100000AF0346FB80084BDA68FB881340002B86
:1051200006D0054AFB88D360FB881846FCF75CF87C
:1051300000BF0837BD4680BD0008005880B582B06A
:1051400000AF0A4BDB687B60084B1A687B68DB4367
:10515000064913400B60054A7B685360786800F08D
:1051600007F800BF0837BD4680BD00BF00150058D6
:1051700080B483B000AF786000BF0C37BD465DF8E7
:10518000047B704780B584B000AF78600023FB7368
:105190007B68002B1ED0134BBB607B6893F83830C4
:1051A000DBB2002B02D17868FDF7DCF9B86800F0BB
:1051B0005BF8BB681B6843F00112BB681A60786833
:1051C00000F02CF87B6800225A637B68012283F888
:1051D000382001E00123FB73FB7B18461037BD46E6
:1051E00080BD00BF000C005880B485B000AFF860EF
:1051F000B9601346FB7100BF1437BD465DF8047BF0
:10520000704780B485B000AFF860B9601346FB7199
:1052100000BF1437BD465DF8047B704780B485B08D
:1052200000AF78600023FB600FE07A68FB689B00AA
:1052300013440B4A5A607A68FB6806339B00134498
:10524000084A5A60FB680133FB60FB68052BECD908
:1052500000BF00BF1437BD465DF8047B704700BF38
:10526000E95100080352000880B483B000AF7860B1
:105270007B6800221A607B684FF03F125A607B689F
:105280003F229A6000BF0C37BD465DF8047B704733
:10529000F0B58BB006AF78607B68002B01D101239D
:1052A000DDE07B6893F8AD32DBB2002B06D17B6882
:1052B000002283F8AC2278680AF02FFB7B68032277
:1052C00083F8AD227B6800225A627B681B6818460F
:1052D00004F0CAFA0023FB734DE0FB7B79685A1C8B
:1052E00013469B001344DB000B44053301221A7064
:1052F000FB7B79685A1C13469B001344DB000B446C
:105300000433FA7B1A70FA7BFB7B98B279681346F8
:105310009B001344DB000B443A3302461A80FB7BAC
:1053200079685A1C13469B001344DB000B44073377
:1053300000221A70FA7B796813469B001344DB0045
:105340000B443C3300221A60FA7B796813469B00B9
:105350001344DB000B44403300221A60FA7B796867
:1053600013469B001344DB000B44443300221A60B5
:10537000FB7B0133FB73FA7B7B685B689A42ACD39F
:105380000023FB7344E0FA7B796813469B001344C7
:10539000DB000B4403F26D1300221A70FA7B79686C
:1053A00013469B001344DB000B4403F5B673FA7BF2
:1053B0001A70FA7B796813469B001344DB000B4498
:1053C00003F26F1300221A70FA7B796813469B0070
:1053D0001344DB000B4403F5BE7300221A60FA7B12
:1053E000796813469B001344DB000B4403F5C0733C
:1053F00000221A60FA7B796813469B001344DB0095
:105400000B4403F5C27300221A60FB7B0133FB736C
:10541000FA7B7B685B689A42B5D37B681B683B600C
:105420007E686D4606F110040FCC0FC594E80300AA
:1054300085E80300331D0ECB386804F030FA7B6832
:10544000002283F828207B68012283F8AD227B6844
:10545000DB69012B02D1786801F042FC0023184679
:105460001437BD46F0BD80B582B000AF78607B6870
:1054700093F8AC32012B01D1022312E07B680122A8
:1054800083F8AC227B681B68184604F0D6F97B6869
:105490001B68184606F014FC7B68002283F8AC22D7
:1054A000002318460837BD4680BD80B584B000AFE4
:1054B00078607B681B68184606F019FCF860FB688A
:1054C00003F40043002B03D0786800F030FB10E1B8
:1054D000FB6803F48063002B13D07B681B68B3F870
:1054E00044309AB27B681B6822F4806292B2A3F8BF
:1054F000442078680AF07AFA0021786800F0FCF815
:10550000F7E0FB6803F48043002B0CD07B681B683A
:10551000B3F844309AB27B681B6822F4804292B29E
:10552000A3F84420E5E0FB6803F40053002B0CD003
:105530007B681B68B3F844309AB27B681B6822F41E
:10554000005292B2A3F84420D3E0FB6803F48053E6
:10555000002B34D07B681B68B3F840309AB27B686C
:105560001B6822F0040292B2A3F840207B681B68FB
:10557000B3F840309AB27B681B6822F0080292B2FE
:10558000A3F840207B6893F8E432012B07D17B68B5
:10559000002283F8E4220021786801F0CBFB7868D0
:1055A0000AF047FA7B681B68B3F844309AB27B680C
:1055B0001B6822F4805292B2A3F8442099E0FB6861
:1055C00003F40063002B27D07B681B68B3F84030DE
:1055D0009AB27B681B6842F0080292B2A3F840209E
:1055E0007B681B68B3F844309AB27B681B6822F46E
:1055F000006292B2A3F844207B681B68B3F8403085
:105600009AB27B681B6842F0040292B2A3F8402071
:1056100078680AF000FA6CE0FB6803F08003002B66
:1056200040D07B681B68B3F844309AB27B681B6833
:1056300022F0800292B2A3F844207B6893F8E4320F
:10564000002B2BD17B681B68B3F840309AB27B6883
:105650001B6842F0040292B2A3F840207B681B68EA
:10566000B3F840309AB27B681B6842F0080292B2ED
:10567000A3F840207B68012283F8E4227B681B6842
:10568000B3F854309BB29B0803F03C027B68C3F82C
:10569000E8220121786801F04DFB2AE078680AF0E1
:1056A000BAF926E0FB6803F40073002B0FD07B6887
:1056B0001B68B3F844309AB27B681B6822F400720E
:1056C00092B2A3F8442078680AF082F911E0FB68EE
:1056D00003F48073002B0CD07B681B68B3F8443054
:1056E0009AB27B681B6822F4807292B2A3F84420BD
:1056F00000BF1037BD4680BD80B582B000AF786076
:105700000B46FB707B6893F8AC32012B01D102236E
:1057100013E07B68012283F8AC227B68FA7883F877
:1057200028207B681B68FA781146184606F0B4FA00
:105730007B68002283F8AC22002318460837BD4658
:1057400080BD80B584B000AF7860084611461A4627
:105750000346FB700B463B801346BB700023FB7275
:1057600097F90330002B0FDAFB7803F007035A1C7C
:1057700013469B001344DB007A6813440433FB6038
:10578000FB6801225A700FE0FB7803F00702134612
:105790009B001344DB0003F5B4737A6813440433AD
:1057A000FB60FB6800225A70FB7803F00703DAB253
:1057B000FB681A703A88FB681A61FB68BA78DA707D
:1057C000FB685B78002B04D0FB681B789AB2FB68FF
:1057D000DA81BB78022B02D1FB6800221A717B6848
:1057E00093F8AC32012B01D102230EE07B68012239
:1057F00083F8AC227B681B68F968184604F070F8DF
:105800007B68002283F8AC22FB7A18461037BD462D
:1058100080BD80B584B000AF78600B46FB7097F90F
:105820000330002B0FDAFB7803F007035A1C1346F2
:105830009B001344DB007A6813440433FB60FB686D
:1058400001225A700FE0FB7803F0070213469B0019
:105850001344DB0003F5B4737A6813440433FB602C
:10586000FB6800225A70FB7803F00703DAB2FB688A
:105870001A707B6893F8AC32012B01D102230EE041
:105880007B68012283F8AC227B681B68F9681846A4
:1058900004F0E0FB7B68002283F8AC22002318466A
:1058A0001037BD4680BD80B586B000AFF8607A6025
:1058B0003B600B46FB72FB7A03F0070213469B002A
:1058C0001344DB0003F5B473FA68134404337B61BB
:1058D0007B697A685A617B693A689A617B690022C0
:1058E000DA617B6900225A70FB7A03F00703DAB2AF
:1058F0007B691A70FB7A03F00703002B06D1FB6863
:105900001B687969184604F092FD05E0FB681B6886
:105910007969184604F08BFD002318461837BD46F8
:1059200080BD80B483B000AF78600B46FB70FB781D
:1059300003F00702796813469B001344DB000B4415
:1059400003F5C4731B6818460C37BD465DF8047B2D
:10595000704780B586B000AFF8607A603B600B4658
:10596000FB72FB7A03F007035A1C13469B00134497
:10597000DB00FA68134404337B617B697A685A61FF
:105980007B693A689A617B69012283F824207B69EC
:105990003A681A627B690022DA617B6901225A70D7
:1059A000FB7A03F00703DAB27B691A70FB7A03F023
:1059B0000703002B06D1FB681B687969184604F0C1
:1059C00036FD05E0FB681B687969184604F02FFD79
:1059D000002318461837BD4680BD80B584B000AF9F
:1059E00078600B46FB70FB7803F007027B685B680E
:1059F0009A4201D9012340E097F90330002B0FDAD6
:105A0000FB7803F007035A1C13469B001344DB008A
:105A10007A6813440433FB60FB6801225A700DE07E
:105A2000FA7813469B001344DB0003F5B4737A68DD
:105A300013440433FB60FB6800225A70FB680122A8
:105A40009A70FB7803F00703DAB2FB681A707B6880
:105A500093F8AC32012B01D102230EE07B680122C6
:105A600083F8AC227B681B68F968184606F015F8C5
:105A70007B68002283F8AC22002318461037BD460D
:105A800080BD80B584B000AF78600B46FB70FB78BA
:105A900003F00F027B685B689A4201D9012342E060
:105AA00097F90330002B0FDAFB7803F007035A1C39
:105AB00013469B001344DB007A6813440433FB60F5
:105AC000FB6801225A700FE0FB7803F007021346CF
:105AD0009B001344DB0003F5B4737A68134404336A
