:020000040800F2
:1000000000000320CD560008793600088736000826
:100010008D3600089336000899360008000000006D
:100020000000000000000000000000009F360008F3
:10003000AD36000800000000BB360008C9360008D5
:10004000215700082157000821570008D936000819
:1000500021570008215700089B370008A9370008DE
:1000600021570008215700088D370008E5360008A1
:1000700021570008215700080137000821570008C0
:10008000215700082157000815370008215700089C
:100090002157000821570008215700082157000860
:1000A0002157000821570008215700082157000850
:1000B0002157000821570008215700082157000840
:1000C0002157000821570008215700082157000830
:1000D0002D37000841370008215700082157000834
:1000E0002157000821570008215700082157000810
:1000F00055370008613700086D37000821570008A0
:1001000021570008215700082157000821570008EF
:1001100021570008215700082157000821570008DF
:100120002157000821570008793700082157000897
:0C01300021570008215700082157000843
:1001400010B5054C237833B9044B13B10448AFF311
:1001500000800123237010BDA803002000000000D0
:10016000EC52010808B5034B1BB103490348AFF338
:10017000008008BD00000000AC030020EC52010824
:1001800001F0FF01102A2BDB10F0070F08D010F848
:10019000013B013A8B422DD010F0070F42B3F6D14C
:1001A000F0B441EA012141EA014122F007047FF065
:1001B00000070023F0E80256083C85EA010586EABC
:1001C000010685FA47F5A3FA87F586FA47F6A5FAF8
:1001D00087F68EB9EED1F0BC01F0FF0102F0070204
:1001E00032B110F8013B013A83EA010313B1F8D1AF
:1001F0000020704701387047002D06BF3546033890
:10020000073815F0010F07D1013015F4807F02BFC8
:10021000013015F4C03F0130F0BC0138704700BF19
:10022000034613F8012B002AFBD1181A0138704736
:1002300081F0004102E000BF83F0004330B54FEA97
:1002400041044FEA430594EA050F08BF90EA020F04
:100250001FBF54EA000C55EA020C7FEA645C7FEA97
:10026000655C00F0E2804FEA5454D4EB5555B8BFBA
:100270006D420CDD2C4480EA020281EA030382EA2B
:10028000000083EA010180EA020281EA0303362DBD
:1002900088BF30BD11F0004F4FEA01314FF4801C90
:1002A0004CEA113102D0404261EB410113F0004FA2
:1002B0004FEA03334CEA133302D0524263EB430359
:1002C00094EA050F00F0A780A4F10104D5F1200EF7
:1002D0000DDB02FA0EFC22FA05F2801841F1000152
:1002E00003FA0EF2801843FA05F359410EE0A5F126
:1002F00020050EF1200E012A03FA0EFC28BF4CF057
:10030000020C43FA05F3C01851EBE37101F000450C
:1003100007D54FF0000EDCF1000C7EEB00006EEB19
:100320000101B1F5801F1BD3B1F5001F0CD34908A3
:100330005FEA30004FEA3C0C04F101044FEA4452FA
:1003400012F5800F80F09A80BCF1004F08BF5FEA81
:10035000500C50F1000041EB045141EA050130BD61
:100360005FEA4C0C404141EB0101013C28BFB1F573
:10037000801FE9D291F0000F04BF01460020B1FABE
:1003800081F308BF2033A3F10B03B3F120020CDA91
:100390000C3208DD02F1140CC2F10C0201FA0CF06F
:1003A00021FA02F10CE002F11402D8BFC2F1200CD4
:1003B00001FA02F120FA0CFCDCBF41EA0C0190408A
:1003C000E41AA2BF01EB0451294330BD6FEA0404D3
:1003D0001F3C1CDA0C340EDC04F11404C4F12002BE
:1003E00020FA04F001FA02F340EA030021FA04F3D0
:1003F00045EA030130BDC4F10C04C4F1200220FA27
:1004000002F001FA04F340EA0300294630BD21FA64
:1004100004F0294630BD94F0000F83F4801306BF2A
:1004200081F480110134013D4EE77FEA645C18BF1E
:100430007FEA655C29D094EA050F08BF90EA020FB5
:1004400005D054EA000C04BF1946104630BD91EAAD
:10045000030F1EBF0021002030BD5FEA545C05D1B0
:100460004000494128BF41F0004130BD14F58004EF
:100470003CBF01F5801130BD01F0004545F0FE4163
:1004800041F470014FF0000030BD7FEA645C1ABF98
:10049000194610467FEA655C1CBF0B46024650EACF
:1004A000013406BF52EA033591EA030F41F40021FB
:1004B00030BD00BF90F0000F04BF0021704730B581
:1004C0004FF4806404F132044FF000054FF0000156
:1004D00050E700BF90F0000F04BF0021704730B517
:1004E0004FF4806404F1320410F0004548BF4042EC
:1004F0004FF000013EE700BF42004FEAE2014FEA41
:1005000031014FEA02701FBF12F07F4393F07F4F1B
:1005100081F06051704732F07F4208BF704793F01E
:100520007F4F04BF41F40021704730B54FF4607431
:1005300001F0004521F000411CE700BF50EA010234
:1005400008BF704730B54FF000050AE050EA0102DD
:1005500008BF704730B511F0004502D5404261EB4D
:1005600041014FF4806404F132045FEA915C3FF48E
:10057000D8AE4FF003025FEADC0C18BF03325FEA2B
:10058000DC0C18BF033202EBDC02C2F1200300FADC
:1005900003FC20FA02F001FA03FE40EA0E0021FA01
:1005A00002F11444BDE600BF70B54FF0FF0C4CF4EF
:1005B000E06C1CEA11541DBF1CEA135594EA0C0FA1
:1005C00095EA0C0F00F0DEF82C4481EA030621EADC
:1005D0004C5123EA4C5350EA013518BF52EA033517
:1005E00041F4801143F4801338D0A0FB02CE4FF0C9
:1005F0000005E1FB02E506F00042E0FB03E54FF0F9
:100600000006E1FB03569CF0000F18BF4EF0010EF0
:10061000A4F1FF04B6F5007F64F5407404D25FEAEC
:100620004E0E6D4146EB060642EAC62141EA55519F
:100630004FEAC52040EA5E504FEACE2EB4F1FD0CE1
:1006400088BFBCF5E06F1ED8BEF1004F08BF5FEA5F
:10065000500E50F1000041EB045170BD06F0004611
:1006600046EA010140EA020081EA0301B4EB5C04BE
:10067000C2BFD4EB0C0541EA045170BD41F48011B6
:100680004FF0000E013C00F3AB8014F1360FDEBFDB
:10069000002001F0004170BDC4F10004203C35DAB7
:1006A0000C341BDC04F11404C4F1200500FA05F33A
:1006B00020FA04F001FA05F240EA020001F00042DB
:1006C00021F0004110EBD37021FA04F642EB060151
:1006D0005EEA430E08BF20EAD37070BDC4F10C047B
:1006E000C4F1200500FA04F320FA05F001FA04F23F
:1006F00040EA020001F0004110EBD37041F100012B
:100700005EEA430E08BF20EAD37070BDC4F1200535
:1007100000FA05F24EEA020E20FA04F301FA05F29D
:1007200043EA020321FA04F001F0004121FA04F245
:1007300020EA020000EBD3705EEA430E08BF20EA15
:10074000D37070BD94F0000F0FD101F0004640004F
:1007500041EB010111F4801F08BF013CF7D041EAD1
:10076000060195F0000F18BF704703F000465200D5
:1007700043EB030313F4801F08BF013DF7D043EAA6
:100780000603704794EA0C0F0CEA135518BF95EA5C
:100790000C0F0CD050EA410618BF52EA4306D1D1E3
:1007A00081EA030101F000414FF0000070BD50EA02
:1007B000410606BF1046194652EA430619D094EA8C
:1007C0000C0F02D150EA013613D195EA0C0F05D176
:1007D00052EA03361CBF104619460AD181EA0301CA
:1007E00001F0004141F0FE4141F470014FF0000082
:1007F00070BD41F0FE4141F4780170BD70B54FF01D
:10080000FF0C4CF4E06C1CEA11541DBF1CEA13559C
:1008100094EA0C0F95EA0C0F00F0A7F8A4EB05047E
:1008200081EA030E52EA03354FEA013100F0888075
:100830004FEA03334FF0805545EA131343EA12633E
:100840004FEA022245EA111545EA10654FEA0026F3
:100850000EF000419D4208BF964244F1FD0404F5AC
:10086000407402D25B084FEA3202B61A65EB030508
:100870005B084FEA32024FF480104FF4002CB6EBC5
:10088000020E75EB030E22BFB61A754640EA0C0045
:100890005B084FEA3202B6EB020E75EB030E22BF85
:1008A000B61A754640EA5C005B084FEA3202B6EBC6
:1008B000020E75EB030E22BFB61A754640EA9C0085
:1008C0005B084FEA3202B6EB020E75EB030E22BF55
:1008D000B61A754640EADC0055EA060E18D04FEA13
:1008E000051545EA16754FEA06164FEAC30343EAB3
:1008F00052734FEAC2025FEA1C1CC0D111F4801F80
:100900000BD141EA00014FF000004FF0004CB6E778
:1009100011F4801F04BF01430020B4F1FD0C88BF17
:10092000BCF5E06F3FF6AFAEB5EB030C04BFB6EB22
:10093000020C5FEA500C50F1000041EB045170BD15
:100940000EF0004E4EEA113114EB5C04C2BFD4EB42
:100950000C0541EA045170BD41F480114FF0000EC6
:10096000013C90E645EA060E8DE60CEA135594EA42
:100970000C0F08BF95EA0C0F3FF43BAF94EA0C0F45
:100980000AD150EA01347FF434AF95EA0C0F7FF4BA
:1009900025AF104619462CE795EA0C0F06D152EA0E
:1009A00003353FF4FDAE1046194622E750EA4106F2
:1009B00018BF52EA43067FF4C5AE50EA41047FF403
:1009C0000DAF52EA43057FF4EBAE12E74FF0FF3C68
:1009D00006E000BF4FF0010C02E000BF4FF0010C39
:1009E0004DF804CD4FEA410C7FEA6C5C4FEA430CB2
:1009F00018BF7FEA6C5C1BD001B050EA410C0CBF01
:100A000052EA430C91EA030F02BF90EA020F002062
:100A1000704710F1000F91EA030F58BF994208BFC9
:100A200090422CBFD8176FEAE37040F00100704786
:100A30004FEA410C7FEA6C5C02D150EA013C07D1DD
:100A40004FEA430C7FEA6C5CD6D152EA033CD3D028
:100A50005DF8040B704700BF8446104662468C4622
:100A60001946634600E000BF01B5FFF7B7FF002855
:100A700048BF10F1000F01BD4DF808EDFFF7F4FF7E
:100A80000CBF012000205DF808FB00BF4DF808ED09
:100A9000FFF7EAFF34BF012000205DF808FB00BF2C
:100AA0004DF808EDFFF7E0FF94BF012000205DF84E
:100AB00008FB00BF4DF808EDFFF7CEFF94BF012003
:100AC00000205DF808FB00BF4DF808EDFFF7C4FFFC
:100AD00034BF012000205DF808FB00BF4FEA410C45
:100AE0007FEA6C5C02D150EA013C0AD14FEA430C28
:100AF0007FEA6C5C02D152EA033C02D14FF0000065
:100B000070474FF0010070474FEA410212F50012A2
:100B100015D211D56FF47873B3EB625212D94FEA44
:100B2000C12343F0004343EA505311F0004F23FA2E
:100B300002F018BF404270474FF00000704750EA83
:100B4000013005D111F0004008BF6FF00040704740
:100B50004FF00000704700BF4A0011D212F500129A
:100B600011D20DD56FF47873B3EB62520ED44FEA05
:100B7000C12343F0004343EA505323FA02F0704785
:100B80004FF00000704750EA013002D14FF0FF30C3
:100B900070474FF0000070474FEA4102B2F1E04366
:100BA00024BFB3F5001CDCF1FE5C0DD901F0004C54
:100BB0004FEAC0024CEA5070B2F1004F40EB8300A4
:100BC00008BF20F00100704711F0804F21D113F1D0
:100BD0003872BCBF01F00040704741F480114FEA09
:100BE0005252C2F11802C2F1200C10FA0CF320FA92
:100BF00002F018BF40F001004FEAC1234FEAD323AF
:100C000003FA0CFC40EA0C0023FA02F34FEA430318
:100C1000CCE77FEA625307D150EA01331EBF4FF0A1
:100C2000FE4040F44000704701F0004040F0FE40BC
:100C300040F40000704700BF53B94AB9002908BF0B
:100C400000281CBF4FF0FF314FF0FF3000F0A6B975
:100C5000ADF1080C6DE904CE00F03CF8DDF804E0DD
:100C6000DDE9022304B0704738B5002200230446B2
:100C70000D46FFF70BFF28B920462946BDE838404E
:100C800000F00AB8204605F1004100F005F84042A6
:100C900061EB410138BD00BFD0B50C4B00220646C8
:100CA0000F46FFF781FCFFF757FF0446FFF702FCF2
:100CB000074B0022FFF778FC02460B4630463946C8
:100CC000FFF7BAFAFFF748FF2146D0BD0000F03D1C
:100CD0000000F0412DE9F047089E0D4604460F46FE
:100CE000002B4AD18A42944665D9B2FA82F343B1C5
:100CF00002FA03FCC3F120029F4020FA02F21743DC
:100D00009C404FEA1C4E1FFA8CF5B7FBFEF1220CFB
:100D10000EFB117742EA074201FB05F090420AD927
:100D20001CEB020201F1FF3780F01C81904240F27F
:100D3000198102396244121AA4B2B2FBFEF00EFB12
:100D4000102244EA024400FB05F5A5420AD91CEB37
:100D5000040400F1FF3280F00781A54240F20481D3
:100D60006444023840EA0140641B00211EB1DC40AB
:100D70000023C6E90043BDE8F0878B4208D9002E66
:100D800000F0ED800021C6E900050846BDE8F087C7
:100D9000B3FA83F1002949D1AB4202D3824200F277
:100DA000F880841A65EB030201201746002EE2D07A
:100DB000C6E90047DFE702B9FFDEB2FA82F3002B93
:100DC00040F090808A1A4FEA1C471FFA8CFE0121DE
:100DD000B2FBF7F507FB1520220C42EA00420EFB9E
:100DE00005F0904208D91CEB020205F1FF3802D24F
:100DF000904200F2CB804546121AA4B2B2FBF7F043
:100E000007FB102244EA02440EFB00FEA64508D967
:100E10001CEB040400F1FF3202D2A64500F2BB80B5
:100E20001046A4EB0E0440EA05409FE7C1F12007FD
:100E30008B4022FA07FC4CEA030C05FA01F420FA75
:100E400007F3FD404FEA1C492343B5FBF9F81FFAAD
:100E50008CFE09FB18551C0C44EA054408FB0EF5F2
:100E6000A54202FA01F200FA01F00BD91CEB0404CE
:100E700008F1FF3A80F08880A54240F28580A8F111
:100E800002086444641B9DB2B4FBF9F309FB1344EC
:100E900045EA044403FB0EFEA64508D91CEB0404F6
:100EA00003F1FF356CD2A6456AD9023B644443EA9C
:100EB0000843A3FB0295A4EB0E04AC42C846AE4621
:100EC00056D353D056B1B0EB080264EB0E0404FACB
:100ED00007F7CA40CC401743C6E900741846002102
:100EE000BDE8F087C3F1200102FA03FC20FA01F209
:100EF00025FA01F19D402A434FEA1C471FFA8CFE58
:100F0000B1FBF7F007FB1015110C41EA054100FB9E
:100F10000EF58D4204FA03F408D91CEB010100F12F
:100F2000FF382FD28D422DD902386144491B92B22D
:100F3000B1FBF7F507FB151142EA014205FB0EF183
:100F4000914208D91CEB020205F1FF3816D29142FA
:100F500014D9023D6244521A45EA004138E731464D
:100F6000304608E73946E6E61046FBE64845A9D292
:100F7000B9EB020865EB0C0E013BA3E74546EAE737
:100F80002B4694E74046D1E7D0467BE7023D6244DA
:100F900032E708460AE76444023842E7704700BF78
:100FA00080B586B002AF78607B681B783B737B6846
:100FB0005B787B737B689B78BB7307F10C026423BF
:100FC000009303231821054807F0F2F90346FB7349
:100FD000FB7B18461037BD4680BD00BF9C04002037
:100FE00080B586B000AF034687ED000BFB7397ED2D
:100FF000000B00F039F80346FB82FB7B002B02D18B
:1010000031233B7401E038233B7400237B750023BC
:101010003B75FB8A1B099BB2DAB27B7D1343DBB2C3
:101020007B74FB8A1B015AB297F9143013435BB2ED
:10103000DBB2BB7407F110031846FFF7B1FF00BF26
:101040001837BD4680BD80B582B000AF7C233B71B0
:1010500000237B713C23BB713B1D1846FFF7A0FFAB
:1010600000BF0837BD4680BD80B586B000AF87EDB4
:10107000000B4FF000024FF00003C7E904234FF0CC
:1010800000020E4BD7E90001FFF7B8FB02460B4602
:10109000104619464FF00002094BFFF785FA024649
:1010A0000B46C7E90423D7E90401FFF72DFD0346EA
:1010B000FB81FB8918461837BD4680BD00000440FF
:1010C0000000B04080B483B000AF7860064BD3F826
:1010D000902005497B681343C1F8903000BF0C375E
:1010E000BD465DF8047B70470008005880B485B0A9
:1010F00000AF78604FF0B043DA6C4FF0B0417B68DE
:101100001343CB644FF0B043DA6C7B681340FB6051
:10111000FB6800BF1437BD465DF8047B704780B4A0
:1011200085B000AF78604FF0B043D3F84C214FF05A
:10113000B0417B681343C1F84C314FF0B043D3F852
:101140004C217B681340FB60FB6800BF1437BD4631
:101150005DF8047B704780B500AF04F0CBFC04F071
:10116000CFFC4FF48030FFF7ADFF0CF031FA00F008
:1011700021F800F0C1F800BF80BD0000B0B588B014
:1011800000AF0B4B3C1D1D460FCD0FC495E807006B
:1011900003C422800234130C23700DF05FFF3B1D4B
:1011A00018460CF0B4FD00BF2037BD46B0BD00BFEF
:1011B0000853010880B588B000AF3B1D00221A60BB
:1011C0005A609A60DA601A610023BB8300237B8334
:1011D00000233B830023FB7736E0FB7F434ADB00A1
:1011E00013449B79002B2CD0FB7F404A52F83330BC
:1011F0003F4A93421BD03E4A934221D8B3F1904FCD
:1012000003D03C4A934209D01AE0FB7F374ADB0007
:1012100013449A88BB8B1343BB8312E0FB7F334A92
:10122000DB0013449A887B8B13437B8309E0FB7FAD
:101230002E4ADB0013449A883B8B13433B8300E028
:1012400000BFFB7F0133FB77FB7F252BC5D9002334
:10125000FB600123BB6003233B61BB8B002B14D0DD
:10126000BB8B7B600120FFF741FF0120FFF757FF99
:101270003B1D19464FF0904006F046FEBB8B002206
:1012800019464FF0904006F0AFFF7B8B002B12D039
:101290007B8B7B600220FFF729FF0220FFF73FFFD7
:1012A0003B1D1946134806F02FFE7B8B0022194682
:1012B000104806F099FF3B8B002B13D03B8B7B60D3
:1012C0000420FFF713FF0420FFF729FF3B1D1946F9
:1012D000074806F019FE3B8B00221946044806F029
:1012E00083FF00BF00BF2037BD4680BDFC660108FC
:1012F000000800480004004880B400AF00BFBD46AD
:101300005DF8047B704780B500AF01F031FD00BF90
:1013100080BD80B584B000AFF8600B467A607B81F9
:101320007A897B68F968002001F0B0FA00BF1037B5
:10133000BD4680BD80B483B000AF7860074BD3F862
:10134000803023F0070205497B681343C1F88030E1
:1013500000BF0C37BD465DF8047B704700040058A1
:1013600080B483B000AF7860064BD3F89020054975
:101370007B681343C1F8903000BF0C37BD465DF861
:10138000047B70470008005880B483B000AF7860D9
:101390004FF0B0430A4AC3F89C204FF0B043D3F853
:1013A0009C3023F47C527B681B024FF0B041134306
:1013B000C1F89C3000BF0C37BD465DF8047B704718
:1013C000FECAFECA80B483B000AF78604FF0B0436D
:1013D0009B6823F400424FF0B0417B6813438B605D
:1013E00000BF0C37BD465DF8047B704780B400AF8A
:1013F0004FF0B043D3F890304FF0B04243F4803315
:10140000C2F8903000BFBD465DF8047B704780B4E1
:1014100000AF4FF0B043D3F890304FF0B04223F418
:101420008033C2F8903000BFBD465DF8047B704742
:1014300080B400AF4FF0B043D3F8943003F0806332
:10144000B3F1806F01D1012300E000231846BD46AF
:101450005DF8047B704780B400AF4FF0B043D3F821
:10146000943003F08053B3F1805F01D1012300E099
:1014700000231846BD465DF8047B704780B485B0F4
:1014800000AF78604FF0B0431A6D4FF0B0417B6809
:1014900013430B654FF0B0431A6D7B681340FB603C
:1014A000FB6800BF1437BD465DF8047B7047000041
:1014B00080B400AF044B1B681B0C9BB21846BD46A2
:1014C0005DF8047B704700BF002004E080B483B067
:1014D00000AF786039607B685A683B681B041A4328
:1014E0007B685A6000BF0C37BD465DF8047B7047CF
:1014F00080B483B000AF786039607B685A683B681D
:101500001A437B685A6000BF0C37BD465DF8047B08
:10151000704780B483B000AF786039607B685A69E7
:101520003B681B041A437B685A6100BF0C37BD46F9
:101530005DF8047B704780B483B000AF7860396099
:101540007B685A693B681A437B685A6100BF0C3755
:10155000BD465DF8047B704780B483B000AF78600F
:1015600039607B683A689A6000BF0C37BD465DF809
:10157000047B704780B483B000AF786039607B68CB
:101580003A689A6100BF0C37BD465DF8047B70472E
:1015900080B400AF054B1B69044A23F004031361B8
:1015A00000BFBD465DF8047B704700BF00ED00E062
:1015B00080B483B000AF78607B68FF225A6200BFBE
:1015C0000C37BD465DF8047B704780B483B000AF34
:1015D00078607B68CA225A627B6853225A6200BFD5
:1015E0000C37BD465DF8047B704780B483B000AF14
:1015F000786039607B689B6823F007023B681A4378
:101600007B689A6000BF0C37BD465DF8047B70476D
:1016100080B500AF044B4FF400421A6100F02EF881
:1016200000F06EF800BF80BD0040005880B500AFEC
:1016300000F07AF800F092F80849002000F0A4FECB
:10164000FFF789FD012101200DF0A6FD00F0DAF978
:1016500000F0DFF900F090F800BF80BD2007002007
:1016600080B400AF00BFBD465DF8047B704780B515
:1016700000AF5020FFF774FE00BF80BD80B500AF03
:1016800000F004F800F01AF800BF80BD80B500AF8C
:10169000FFF7CEFE0346002B0DD0FFF7DCFE03461E
:1016A000002B08D107F094FA07F092FAFFF79EFE9C
:1016B000FFF7ADFE00BF00BF80BD000080B500AFEA
:1016C0004FF48010FFF7DAFE3F210C48FFF744FF8C
:1016D0003F210A48FFF74EFF3F210848FFF7F6FE7B
:1016E0003F210648FFF715FF3F210448FFF700FFA1
:1016F0003F210248FFF71FFF00BF80BD000C0058CC
:1017000080B582B000AF00200CF096F978607B685D
:10171000002B05D07B689B791846FFF735FE00BF8C
:1017200000BF0837BD4680BD80B500AFFFF798FF0A
:10173000FFF79DFF00F002F800BF80BD80B500AF4D
:101740000548FFF742FF00210348FFF74EFF02481C
:10175000FFF72EFF00BF80BD0028004080B500AF1E
:101760004FF40040FFF72EFE0DF004FD0420FFF7BC
:10177000E1FD00BF80BD000080B588B000AF0DF076
:10178000B7FA114A002140200DF032FE0F4B3B60AA
:101790000F4B7B603B4619460E480CF093FB0E4BFB
:1017A000BB600E4BFB600E4B3B6140F23C537B61D8
:1017B00007F1080318460DF0DDFB0DF093FA00BFAA
:1017C0002037BD4680BD00BFFDDE00083407032082
:1017D000E5170008FD1700084C0903204008032006
:1017E000F801032080B483B000AF0346FB7100BF53
:1017F0000C37BD465DF8047B7047000080B588B0AB
:1018000000AF78607B685B680B33FB61FB691B880A
:101810009BB2A3F51243072B60D801A252F823F024
:10182000411800088318000891180008DD18000806
:10183000AD180008BD180008C5180008D518000824
:1018400007F10C0318460CF08FFA3B7B19467B7BA3
:101850001A46BB7B24480EF045FE3B7C19462348C4
:101860000EF040FEBB7D1946FB7D1A463B7E2048AC
:101870000EF038FE1F480EF035FE786800F070F864
:101880002DE01D480EF02EFE786800F043F826E0AB
:101890001A480EF095FEFB6902331968FB690233A2
:1018A0005B681A4616480EF01DFE18E0FB6902330D
:1018B0001B68194613480EF015FE10E012480EF092
:1018C00011FE0CE0FB6902331B6819460F480EF04D
:1018D00009FE04E00E480EF005FE00E000BF00BF68
:1018E0002037BD4680BD00BF24530108485301087E
:1018F000645301087C5301089C530108C05301083C
:10190000105401083854010874540108985401080F
:10191000D454010880B584B000AF78607B685B6800
:101920000B33FB60FB680233BB60BB681B78194656
:1019300008480EF0D7FDBB681B78002B03D1064882
:101940000EF03EFE03E005480EF03AFE00BF1037F1
:10195000BD4680BDF85401082855010864550108AA
:1019600080B58AB000AF786007F10C0300221A60DE
:101970005A609A609A8100237B627B685B680B33B4
:101980003B623B6A0233FB61FB691B78002B1ED173
:1019900018480EF015FEFFF7F1FB0D233B737F2374
:1019A000BB73FFF785FD7862796A13480EF09AFDE4
:1019B0007B6A9BB23B8307F10C0318460CF0BEF91F
:1019C00001F0C6FF002101200DF0E6FB0EE0FB69EF
:1019D0001B78012B06D109480EF084FD7B6800229C
:1019E0001A7003E006480EF07DFD00BF2837BD46A3
:1019F00080BD00BF9C550108B8550108DC550108A1
:101A00001056010880B400AF00BFBD465DF8047BEE
:101A1000704780B500AF0121002003F0CFFE012107
:101A2000012003F0CBFE0121022003F0C7FE00BF1E
:101A300080BD80B584B000AF786004F00FF8B86066
:101A40007B68FB60FB68B3F1FF3F0AD004F046F807
:101A500003461A46FB681344FB6002E0FFF798FD5B
:101A600030BF03F0FBFF0246BB68D31AFA689A4204
:101A7000F4D800BF00BF1037BD4680BD80B500AFB1
:101A80004FF0FF300DF0B8FB00BF80BD80B400AF59
:101A900000BFBD465DF8047B704780B582B000AFE3
:101AA000786039604FF0FF300DF0A6FB00BF0837BB
:101AB000BD4680BD80B582B000AF78600021402077
:101AC0000DF0B8FC00BF0837BD4680BD80B582B0C0
:101AD00000AF786002200DF019FD00BF0837BD4649
:101AE00080BD80B582B000AF786002200DF02EFD81
:101AF00000BF0837BD4680BD80B582B000AF034649
:101B0000FB80FB88102B06D0102B0DDC012B05D0A1
:101B1000022B06D008E002F029FA06E002F02CFAC7
:101B200003E002F031FA00E000BF00BF0837BD4615
:101B300080BD000080B483B000AF7860064BD3F85E
:101B4000802005497B681343C1F8803000BF0C3703
:101B5000BD465DF8047B70470008005880B483B030
:101B600000AF7860054B1A6804497B6813430B602B
:101B700000BF0C37BD465DF8047B70470008005875
:101B800080B483B000AF0D4B9B6A9BB27B600B4B64
:101B90009B6A9BB23B6005E03B687B60074B9B6A9E
:101BA0009BB23B607A683B689A42F5D13B68184625
:101BB0000C37BD465DF8047B704700BF002800402D
:101BC00080B485B000AF03460A46FB711346BB7173
:101BD000BA791D4913465B001344DB000B441533EF
:101BE0001B78FB73FB7B062B09D0FA7B1649134647
:101BF0005B001344DB000B441433FA791A70FA7952
:101C0000114913465B001344DB000B441533FA7B88
:101C10001A70FA790C4913465B001344DB000B443D
:101C20001433BA791A70BA79074913465B00134422
:101C3000DB000B441533FA791A7000BF1437BD4628
:101C40005DF8047B704700BF2802002080B485B097
:101C500000AF03460A46FB711346BB71294B1B7844
:101C6000DBB2BA799A4232D0BA79274913465B007F
:101C70001344DB000B4414331B78FB73FA7B2249BB
:101C800013465B001344DB000B441533FA791A70DA
:101C9000FA791D4913465B001344DB000B441533EE
:101CA000BA791A70FA79184913465B001344DB00BD
:101CB0000B441433FA7B1A70BA79134913465B004C
:101CC0001344DB000B441433FA791A7014E0FA79E8
:101CD0000D4913465B001344DB000B441533BA79FE
:101CE0001A70BA79084913465B001344DB000B44B1
:101CF0001433FA791A7000BF1437BD465DF8047BBF
:101D0000704700BFB80200202802002080B584B0D0
:101D100000AF0346FB714E4B1B78DBB2062B18D18C
:101D20004B4B1B78DAB24B4B1A70494AFB79137054
:101D3000FA79494913465B001344DB000B44153321
:101D400006221A70454B4FF0FF321A600023FB81C8
:101D500078E000F009F90346FB81FA793E49134621
:101D60005B001344DB000B4408331968FB89FA79E4
:101D70001944394813465B001344DB00034408331D
:101D80001960FA79344913465B001344DB000B44B5
:101D900008331B68BB602E4B1B78DBB219462E4AFA
:101DA0000B465B000B44DB00134408331B68BA6826
:101DB0009A4237D3264B1B787B737A7B264913468E
:101DC0005B001344DB000B4415331B783B7313E0BB
:101DD0007A7B214913465B001344DB000B44153327
:101DE0001B787B737A7B1C4913465B001344DB0032
:101DF0000B4415331B783B733B7B062B0BD03A7B94
:101E0000154913465B001344DB000B4408331B6881
:101E1000BA689A42DCD27A7BFB7911461846FFF702
:101E2000CFFE0FE00A4B1B78DAB2FB791146184659
:101E3000FFF70CFF064B1B78DAB2064B1A70044A08
:101E4000FB791370FB8918461037BD4680BD00BF73
:101E5000B8020020B902002028020020BC020020A5
:101E600080B485B000AF03460A46FB711346BB71D0
:101E7000394B1B78DBB2FA799A4211D1364B1B7879
:101E8000DAB2364B1A70FA79354913465B001344BF
:101E9000DB000B4415331B78DAB22F4B1A703EE08F
:101EA000FA792F4913465B001344DB000B441433CB
:101EB0001B78FB73FA792A4913465B001344DB0055
:101EC0000B4415331B78BB73F979FA7B24480B4616
:101ED0005B000B44DB00034415331B78D8B2204968
:101EE00013465B001344DB000B44153302461A70A3
:101EF000BB7B062B13D0F979BA7B19480B465B00E4
:101F00000B44DB00034414331B78D8B21449134646
:101F10005B001344DB000B44143302461A70FA7959
:101F20000F4913465B001344DB000B440C330122C2
:101F30001A70094B1B78DBB2062B07D1BB79002B3B
:101F400004D1084B4FF0FF321A6000BF00BF1437B6
:101F5000BD465DF8047B7047B8020020B90200203E
:101F600028020020BC02002080B582B000AF1A4BCE
:101F70001B68B3F1FF3F26D0FFF702FE7860164BD7
:101F80001B687A689A4205D8134B1A687B68D31A83
:101F90007B600AE0114B1B881A467B68D31A3B60B2
:101FA0000D4B1B683A6813447B600D4B1B781A4637
:101FB0007B6802FB03F37B600A4B1B781A467B6845
:101FC000D3407B6001E000237B607B689BB21846B6
:101FD0000837BD4680BD00BFBC020020CA030020F8
:101FE000C9030020C803002080B582B000AF0346BB
:101FF000FB80FB88002B08D1FFF7C2FD0346244A73
:102000001360032005F0EBFB3EE0FB88012B03D8B7
:10201000204B1B78012B02D0FB88013BFB8000BFCB
:102020001D4B1B681B68DB6803F00403002BF7D013
:10203000194B1B681B68DB68DAB2174B1B681B68FF
:1020400062F49062DA60154B4FF40022DA600320EC
:1020500005F0D3FB124B5B691B0C1B04FA8810497B
:1020600013434B61FFF78CFD0346094A13600A4B8B
:102070001B681B689A68084B1B681B6842F48062E7
:102080009A60AFF3008000BF0837BD4680BD00BF37
:10209000BC020020C8030020C40300200008005830
:1020A0000028004080B584B000AF474B9B6803F424
:1020B0008063B3F5806F08D100BF444B1B681B6879
:1020C000DB6803F00403002BF7D1404B1B681B684F
:1020D0009A683E4B1B681B6822F480629A603C4BF6
:1020E0001B78FB73FA7B3B4913465B001344DB0010
:1020F0000B4408331B68BB60FFF736FF0346FB80C9
:10210000FB88BA689A4205D20023BB81324B012278
:102110001A704DE0FB88314A128892B213441A4675
:10212000BB68934206D92D4B1B88BB812A4B0022EA
:102130001A703DE0BB689AB2FB88D31ABB81264B6C
:1021400001221A7034E0FA7B224913465B001344E3
:10215000DB000B4408331A68FB889A420AD2FA7BE8
:102160001C4913465B001344DB000B440833002278
:102170001A6013E0FA7B174913465B001344DB0037
:102180000B4408331968FB88FA7BC91A11481346B7
:102190005B001344DB00034408331960FA7B0D49EC
:1021A00013465B001344DB000B4415331B78FB73B1
:1021B000FB7B062BC7D1BB891846FFF715FF00BF75
:1021C0001037BD4680BD00BF00280040C40300207A
:1021D000B802002028020020C0020020CC0300200A
:1021E00080B58AB000AFEFF310837B617B697B62BF
:1021F00072B600BF5F4B1B681B68CA225A625D4BF8
:102200001B681B6853225A625A4B1B681B689A68EA
:10221000584B1B681B6822F480629A60564B1B78EF
:1022200087F8233097F82320544913465B00134462
:10223000DB000B440C331B78DBB2022B72D197F816
:1022400023204E4913465B001344DB000B441B68FC
:10225000FB6197F82320494913465B001344DB00D8
:102260000B4410331B68BB61454B1B78DBB2002B62
:1022700050D097F82320414913465B001344DB00FC
:102280000B440D331B78DBB2012B26D197F823309A
:1022900001211846FFF7E4FD7B6A3B613B6983F34C
:1022A000108800BF97F82320344913465B0013447D
:1022B000DB000B4404331A6897F8233011461846A4
:1022C00000F04EFA2B4B1B681B68CA225A62294B3E
:1022D0001B681B6853225A6214E07B6AFB60FB6830
:1022E00083F3108800BF97F82330184600F0ACF94C
:1022F000204B1B681B68CA225A621E4B1B681B6856
:1023000053225A6297F82330FA691946B86900F0E7
:10231000AFFA25E0FFF7C6FE7B6ABB60BB6883F3BC
:1023200010881DE000BF134B1B681B68DB6803F0BF
:102330000403002BF7D00F4B1B681B68DB68DAB275
:102340000C4B1B681B6862F49062DA600D4B4FF413
:102350000022DA607B6A7B607B6883F3108800BFB1
:10236000044B1B681B68FF225A6200BF2837BD461A
:1023700080BD00BFC4030020B80200202802002056
:10238000C00200200008005880B588B000AF0346A6
:102390003960FB71644A3B681360634B1B681B68C0
:1023A000CA225A62604B1B681B6853225A625F4BF9
:1023B0009B685E4A43F0200393605C4B9B68DBB2F2
:1023C00003F00703DBB2C3F10403DAB2584B1A700F
:1023D000564B1B6903F4FE034FF4FE023A613A695F
:1023E00092FAA2F2FA60FA687A617A69002A01D157
:1023F000202203E07A69B2FA82F2D2B2D340DBB291
:102400000133DAB24B4B1A70484B1B699BB2C3F3D2
:102410000E039BB201339AB2474B1A80464B1B887E
:10242000013B444A127802FB03F3A3F5A073404A30
:102430001278D340BB61BB694FF6FE72934204D958
:102440003E4B4FF6FF721A8003E0BB699AB23B4BDA
:102450001A804FF40020FFF781FB4FF40020FFF7B4
:1024600069FBFB79002B43D1354B01221A70354BA8
:102470004FF0FF321A600023FB770CE0FA7F3249FD
:1024800013465B001344DB000B440C3300221A702C
:10249000FB7F0133FB77FB7F052BEFD92B4B06220C
:1024A0001A70214B1B681B689A681F4B1B681B68BE
:1024B00022F480629A601C4B1B681B68DB68DAB2EE
:1024C000194B1B681B6862F49062DA60204B4FF472
:1024D0000022DA60032005F090F9134B1B681B689B
:1024E0009A68114B1B681B6842F480429A600AE0AC
:1024F0000D4B1B681B68DB6803F48063002B02D064
:10250000032005F06CF9084B1B681B68FF225A6218
:1025100000220321032005F020F9032005F037F9FC
:1025200000BF2037BD4680BDC40300200028004006
:10253000C8030020C9030020CA030020CC030020E8
:10254000C0020020BC02002028020020B8020020A7
:102550000008005880B48BB000AFF860B9603B60F1
:102560001346FB71002387F82630EFF31083FB61DD
:10257000FB693B6272B600BF04E097F82630013376
:1025800087F8263097F82630052B0CD897F82620A8
:102590002C4913465B001344DB000B440C331B78BF
:1025A000DBB2002BE9D197F82630062B38D097F80C
:1025B0002620244913465B001344DB000B440C33F4
:1025C00001221A703B6ABB61BB6983F3108800BFAC
:1025D00097F826201B4913465B001344DB000B448D
:1025E0001033FA681A6097F82620164913465B00E4
:1025F0001344DB000B440D33FA791A7097F8262048
:10260000104913465B001344DB000B443A681A6020
:10261000BB6897F826201A70002387F8273008E057
:102620003B6A7B617B6983F3108800BF012387F8D5
:10263000273097F8273018462C37BD465DF8047BC5
:10264000704700BF2802002080B586B000AF034667
:10265000FB71EFF31083FB60FB687B6172B600BF18
:10266000032005F0A2F8384B1B681B68CA225A6287
:10267000354B1B681B6853225A62FA79334913465B
:102680005B001344DB000B440C331B78DBB2022BE2
:1026900048D1FB7900211846FFF7E2FB2C4B1B7851
:1026A000FB74FB7C062B35D12A4B9B6803F48063BB
:1026B000B3F5806F08D100BF234B1B681B68DB6834
:1026C00003F00403002BF7D11F4B1B681B689A68AB
:1026D0001D4B1B681B6822F480629A6000BF1A4B76
:1026E0001B681B68DB6803F00403002BF7D0164B54
:1026F0001B681B68DB68DAB2134B1B681B6862F44B
:102700009062DA60144B4FF40022DA60032005F087
:1027100074F807E0114B1B78DBB2FA7C9A4201D0C7
:10272000FFF7C0FC084B1B681B68FF225A6203209E
:1027300005F02DF87B69BB60BB6883F3108800BF90
:1027400000BF1837BD4680BDC4030020280200200A
:10275000B80200200028004000080058B9020020FC
:1027600080B586B000AF03463960FB71FA793C4909
:1027700013465B001344DB000B440C331B78DBB2C5
:10278000022B03D1FB791846FFF75EFFEFF31083AE
:10279000FB60FB687B6172B600BF032005F005F8A3
:1027A000304B1B681B68CA225A622E4B1B681B6881
:1027B00053225A62FA792A4913465B001344DB001C
:1027C0000B440C3302221A70FA79254913465B0038
:1027D0001344DB000B4408333A681A60FA79204945
:1027E00013465B001344DB000B4404333A681A6061
:1027F000FB791846FFF78AFA03467B821A4B1B784F
:102800007B741A4B1B78DBB27A7C9A4202D0FFF7BA
:1028100049FC13E0FA79124913465B001344DB00CC
:102820000B44083319687B8AFA79C91A0C48134695
:102830005B001344DB00034408331960094B1B6839
:102840001B68FF225A62032004F0A1FF7B69BB6072
:10285000BB6883F3108800BF00BF1837BD4680BD3A
:1028600028020020C4030020B8020020B902002082
:1028700080B584B000AFF8600B467A60FB727B686D
:10288000984700BF1037BD4680BD000080B586B0B8
:1028900000AFB9607B600346FB731346BB81002326
:1028A000FB750023BB75FB7B002B02D0022B0FD0E6
:1028B0001DE01F4A7B6813601E4B1F4A1A60BB89CC
:1028C0001A46B9681B4808F0BBF90346FB750EE0D1
:1028D0001A4A7B6813601A4B1A4A1A60BB891A4657
:1028E000B968174808F0ACF90346FB7500BFFB7DDB
:1028F000032B17D801A252F823F000BF0D290008BE
:1029000013290008192900081F2900080023BB7596
:1029100009E00123BB7506E00223BB7503E0032336
:10292000BB7500E000BFBB7D18461837BD4680BDB3
:10293000D0030020BC05002000380140D403002053
:102940002C0500200080004080B582B000AF786088
:102950007B681B680F4A93420AD00F4A93420FD1FB
:102960000E4B1B68002B0DD00C4B1B68984709E0E1
:102970000B4B1B68002B07D0094B1B68984703E0E3
:1029800000BF02E000BF00E000BF00BF0837BD4647
:1029900080BD00BF0080004000380140D00300200F
:1029A000D403002080B483B000AF78604FF0B04310
:1029B000D3F8903023F018024FF0B0417B681343F6
:1029C000C1F8903000BF0C37BD465DF8047B7047FE
:1029D00080B485B000AF78604FF0B0439A6C4FF090
:1029E000B0417B6813438B644FF0B0439A6C7B68B3
:1029F0001340FB60FB6800BF1437BD465DF8047BE5
:102A0000704780B485B000AF78604FF0B043DA6CA7
:102A10004FF0B0417B681343CB644FF0B043DA6CA6
:102A20007B681340FB60FB6800BF1437BD465DF850
:102A3000047B70470000000080B500AF02F0A0FFEB
:102A4000FEF7E6FD00F03EF800F0AAF800F07CF991
:102A500000F088FA00F060FA00F0D8F900F0F4F91C
:102A600000F0DCF900F030F900F0BAF800F016FAE6
:102A7000012003F00BF800BF7F21114804F09EFCF9
:102A80000346002BF8D1FEF7DEFA9FED0B0B00207A
:102A9000FEF7A6FA9FED080B0120FEF7A1FA01222E
:102AA00002214FF0904005F09FFBFEF7BFFDFEF7BF
:102AB000E5FFFCE7AFF30080000000000000E03F0E
:102AC000D803002080B59AB000AF07F12003482258
:102AD000002118460DF074FE3B1D00221A605A605A
:102AE0009A60DA601A615A619A6106F071F8002002
:102AF000FFF758FF294B1B6823F4C063274A43F4B0
:102B000000731360254B1B6803F4C0633B603B6894
:102B100047233B624FF480337B620123BB624FF457
:102B20008073FB620123BB6440233B630223FB648D
:102B300002233B6500237B650823BB654FF400330C
:102B4000FB654FF000537B664FF000733B6607F167
:102B50002003184606F0D0FB0346002B01D000F0FE
:102B600041FA6F237B600223BB600023FB600023DC
:102B70003B6100237B610023BB610023FB613B1DA4
:102B80000121184606F02CFF0346002B01D000F06F
:102B900029FA00BF6837BD4680BD00BF0004005859
:102BA00080B594B000AF3B465022002118460DF08E
:102BB00007FE4FF440533B604FF480437B64022395
:102BC000BB641023FB643B46184607F046FB0346F4
:102BD000002B01D000F006FA00BF5037BD4680BD83
:102BE00080B586B000AF3B4600221A605A609A60FA
:102BF000DA601A615A61304B304A1A602E4B00225B
:102C00005A602D4B00229A602B4B0022DA602A4B2F
:102C100001221A61284B04225A61274B00221A769E
:102C2000254B01225A76244B0222DA61224B0022E4
:102C300083F82020204B00229A621F4B0022DA6288
:102C40001D4B012283F830201B4B00225A631A4B84
:102C5000002283F83820184803F08EF90346002B31
:102C600001D000F0BFF9164B3B6006237B600223C6
:102C7000BB607F23FB6004233B6100237B613B46F9
:102C800019460D4803F07EFD0346002B01D000F0ED
:102C9000A9F90C4B3B600C237B603B461946064868
:102CA00003F070FD0346002B01D000F09BF900BF3C
:102CB0001837BD4680BD00BFD80300200000045077
:102CC0000080F03E0010603280B500AF1B4B1C4A04
:102CD0001A601A4B1B4A5A60184B00229A60174B15
:102CE0000122DA60154B00221A61144B00225A614E
:102CF000124B00229A61114B0022DA610F4B002225
:102D00001A620E4805F0C4FA0346002B01D000F009
:102D100069F90021094805F03DFE0346002B01D06A
:102D200000F060F90021054805F07FFE0346002B06
:102D300001D000F057F900BF80BD00BF9C04002007
:102D400000540040BB7C700080B500AF064B074AC2
:102D50001A60054805F0B6FE0346002B01D000F0CE
:102D600041F900BF80BD00BFF0040020000C0058F6
:102D700080B500AF234B244A1A60224B4FF4E13256
:102D80005A60204B00229A601E4B0022DA601D4BD5
:102D900000221A611B4B0C225A611A4B00229A61C5
:102DA000184B4FF40042DA61164B00221A62154BA1
:102DB00000225A62134B00229A62124807F0F0FE7A
:102DC0000346002B01D000F00DF900210D4809F059
:102DD000B6F80346002B01D000F004F900210948A1
:102DE00009F0EBF80346002B01D000F0FBF8054892
:102DF00009F06CF80346002B01D000F0F3F800BF97
:102E000080BD00BFBC0500200038014080B400AF89
:102E100000BFBD465DF8047B7047000080B500AF81
:102E2000074B084A1A60064B00225A60044807F014
:102E30009BFC0346002B01D000F0D4F800BF80BDFE
:102E40000C0700200010005880B500AF114B124A4B
:102E50001A60104B00225A600E4B0F229A600D4BE5
:102E600047F6FF72DA600B4B00221A61094B002211
:102E70009A61084B0022DA61064B00225A6105482C
:102E800007F0A7FC0346002B01D000F0ABF800BF11
:102E900080BD00BF200700200028004080B500AFA3
:102EA0001B4B1C4A1A601A4B4FF482725A60184B23
:102EB00000229A60164B4FF44072DA60144B0022E5
:102EC0001A61134B00225A61114B4FF400729A6140
:102ED0000F4B0022DA610E4B00221A620C4B0022CB
:102EE0005A620B4B00229A62094B0722DA62084BA6
:102EF00000221A63064B08225A63054807F08DFD2D
:102F00000346002B01D000F06DF800BF80BD00BF6C
:102F1000440700200038004080B500AF0420FFF7D0
:102F200057FD0120FFF754FD0220FFF751FD00225D
:102F300000210B2004F011FC0B2004F028FC0022DF
:102F40000F210E2004F009FC0E2004F020FC0022CA
:102F50000F213A2004F001FC3A2004F018FC00BFD5
:102F600080BD000080B586B000AF3B1D00221A6016
:102F70005A609A60DA601A610420FFF742FD02206D
:102F8000FFF73FFD0120FFF73CFD012202214FF03A
:102F9000904005F029F901222021114805F024F97B
:102FA00002237B600123BB600023FB6000233B61A5
:102FB0003B1D19464FF0904004F0A6FF20237B6094
:102FC0000123BB600123FB6002233B613B1D1946CB
:102FD000034804F099FF00BF1837BD4680BD00BF0D
:102FE0000008004880B400AF00BFBD465DF8047B18
:102FF000704780B400AF4FF0B043D3F890304FF03B
:10300000B04243F40043C2F8903000BFBD465DF8C3
:10301000047B704780B485B000AF78604FF0B04358
:10302000DA6C4FF0B0417B681343CB644FF0B04390
:10303000DA6C7B681340FB60FB6800BF1437BD4649
:103040005DF8047B704780B485B000AF78604FF0C6
:10305000B0431A6D4FF0B0417B6813430B654FF0DE
:10306000B0431A6D7B681340FB60FB6800BF1437E8
:10307000BD465DF8047B704780B485B000AF7860D2
:103080004FF0B0439A6D4FF0B0417B6813438B65AE
:103090004FF0B0439A6D7B681340FB60FB6800BF44
:1030A0001437BD465DF8047B704780B485B000AF2F
:1030B00078604FF0B043DA6D4FF0B0417B68134356
:1030C000CB654FF0B043DA6D7B681340FB60FB6863
:1030D00000BF1437BD465DF8047B704780B485B0EF
:1030E00000AF78604FF0B0431A6E4FF0B0417B688C
:1030F00013430B664FF0B0431A6E7B681340FB60BE
:10310000FB6800BF1437BD465DF8047B704780B58F
:1031100000AF4FF40020FFF796FF002200212E2081
:1031200004F01BFB2E2004F032FB00BF80BD00002A
:1031300080B59CB000AF786007F15C0300221A6094
:103140005A609A60DA601A6107F10C03502200217C
:1031500018460DF035FB7B681B68374A934266D1F1
:103160004FF48063FB604FF00053BB6407F10C0326
:10317000184607F072F80346002B01D0FFF732FF24
:103180004FF40050FFF746FF0120FFF743FF0420F4
:10319000FFF740FF4FF4C073FB6503233B6600233A
:1031A0007B6607F15C0319464FF0904004F0ACFEDB
:1031B0001023FB6503233B6600237B6607F15C035A
:1031C00019461E4804F0A0FE1D4B1E4A1A601C4BF7
:1031D00005225A601A4B00229A60194B0022DA60CD
:1031E000174B80221A61164B4FF480725A61144BB0
:1031F0004FF480629A61124B2022DA61104B002258
:103200001A620F4804F00EFB0346002B01D0FFF7B3
:10321000E9FE7B680A4ADA64094A7B689362002205
:103220000021122004F099FA122004F0B0FA00BF35
:103230007037BD4680BD00BF000004500008004844
:103240003C0400200800024080B59CB000AF7860CC
:1032500007F15C0300221A605A609A60DA601A6112
:1032600007F10C035022002118460DF0A9FA7B68E3
:103270001B68174A934226D10423FB604FF4403366
:10328000FB6207F10C03184606F0E7FF0346002B2C
:1032900001D0FFF7A7FE0220FFF7BCFE4FF44073FA
:1032A000FB6512233B6601237B660323BB66042375
:1032B000FB6607F15C031946064804F025FE4FF44F
:1032C0000010FFF7D9FE00BF7037BD4680BD00BFBC
:1032D000005400400004004880B582B000AF786020
:1032E0007B681B680D4A934213D14FF48010FFF79F
:1032F000AAFE002200212C2004F02FFA2C2004F03A
:1033000046FA002200212D2004F027FA2D2004F097
:103310003EFA00BF0837BD4680BD00BF000C005814
:1033200080B5A0B000AF786007F16C0300221A608E
:103330005A609A60DA601A6107F10C03502200218A
:1033400018460DF03DFA7B681B68684A93426ED1BF
:103350000223FB600023BB6207F10C03184606F052
:103360007CFF0346002B01D0FFF73CFE0120FFF756
:103370009CFE0120FFF74EFE0C23FB6602233B67F9
:1033800000237B670323BB670823FB6707F16C03FC
:1033900019464FF0904004F0B7FD554B554A1A605E
:1033A000534B11225A60524B10229A60504B00220C
:1033B000DA604F4B80221A614D4B00225A614C4B10
:1033C00000229A614A4B0022DA61494B00221A62BC
:1033D000474804F027FA0346002B01D0FFF702FE0E
:1033E0004FF08853FB6500233B66002387F8643069
:1033F000002387F865300123BB6607F15C0319469B
:103400003B4804F041FD0346002B01D0FFF7EAFDE5
:103410007B68374A9A67364A7B68936200220021AC
:10342000252004F09AF9252004F0B1F95AE07B68D0
:103430001B68314A934255D10123FB6000237B6214
:1034400007F10C03184606F008FF0346002B01D0D5
:10345000FFF7C8FD4FF48040FFF740FE0220FFF762
:10346000D9FDC023FB6602233B6701237B6703234F
:10347000BB670723FB6707F16C0319461F4804F07D
:1034800043FD1F4B1F4A1A601D4B0F225A601C4BF5
:1034900010229A601A4B0022DA60194B80221A61BE
:1034A000174B00225A61164B00229A61144B0022DE
:1034B000DA61134B00221A62114804F0B3F9034693
:1034C000002B01D0FFF78EFD7B680D4A9A670C4AEE
:1034D0007B68936200220021242004F03EF924201E
:1034E00004F055F900BF8037BD4680BD0080004024
:1034F0004C0600204400024000380140000400480F
:10350000AC0600204404024080B596B000AF78605D
:1035100007F108035022002118460DF051F97B688D
:103520001B680D4A934213D14FF40073BB604FF0F8
:1035300080533B6407F10803184606F08EFE0346ED
:10354000002B01D0FFF74EFD4FF48020FFF77BFDED
:1035500000BF5837BD4680BD0010005880B596B0FA
:1035600000AF786007F108035022002118460DF0E3
:1035700027F97B681B68144A934220D14FF40063FB
:10358000BB604FF48073BB6407F10803184606F074
:1035900064FE0346002B01D0FFF724FDFFF729FD51
:1035A0004FF48060FFF768FD00220021032004F043
:1035B000D4F8032004F0EBF8786807F0F8F900BFBE
:1035C0005837BD4680BD00BF0028004080B588B098
:1035D00000AF786007F10C0300221A605A609A600D
:1035E000DA601A617B681B68214A93423BD14FF431
:1035F0008040FFF741FD0420FFF70CFD0120FFF79D
:1036000009FD0223FB6002233B6100237B61002351
:10361000BB610323FB6107F10C031946154804F055
:1036200073FC0423FB6002233B6100237B610023C6
:10363000BB610523FB6107F10C0319460D4804F03B
:1036400063FC4FF40073FB6002233B6100237B614A
:103650000023BB610523FB6107F10C0319464FF002
:10366000904004F051FC00BF2037BD4680BD00BF34
:10367000003800400008004880B400AF00BFBD46DD
:103680005DF8047B704780B400AFFEE780B400AF04
:10369000FEE780B400AFFEE780B400AFFEE780B481
:1036A00000AF00BFBD465DF8047B704780B400AF3B
:1036B00000BFBD465DF8047B704780B400AF00BF1B
:1036C000BD465DF8047B704780B500AF02F0B2F9EB
:1036D00004F0A1F800BF80BD80B500AFFEF780FD0B
:1036E00000BF80BD80B500AF034801F051FD034825
:1036F00004F079FA00BF80BDD80300203C0400200C
:1037000080B500AF024804F06EFA00BF80BD00BF74
:103710004C06002080B500AF034801F039FD024897
:1037200002F05BFE00BF80BDD803002080B500AF73
:10373000024807F017FB00BF80BD00BFBC0500209A
:1037400080B500AF024807F00DFB00BF80BD00BF91
:103750002C05002080B500AF01F06EFE00BF80BDDB
:1037600080B500AF01F09EFE00BF80BD80B500AF08
:1037700004F06AFD00BF80BD80B500AF024804F0D0
:1037800032FA00BF80BD00BFAC06002080B500AF9C
:10379000102004F041FD00BF80BD80B500AF0120C6
:1037A00004F03AFD00BF80BD80B500AF022004F0F8
:1037B00033FD00BF80BD80B400AF01231846BD4675
:1037C0005DF8047B704780B582B000AF78603960E7
:1037D0000DF048F8034616221A604FF0FF331846E2
:1037E0000837BD4680BD80B582B000AF78604FF02D
:1037F000FF317868FFF7E7FFFEE780B586B000AFDE
:10380000F860B9607A6000237B610AE0AFF3008062
:103810000146BB685A1CBA60CAB21A707B69013390
:103820007B617A697B689A42F0DB7B6818461837BF
:10383000BD4680BD80B483B000AF78604FF0FF33E9
:1038400018460C37BD465DF8047B704780B483B0E2
:1038500000AF786039603B684FF400525A60002333
:1038600018460C37BD465DF8047B704780B483B0C2
:1038700000AF7860012318460C37BD465DF8047B25
:10388000704780B485B000AFF860B9607A600023FB
:1038900018461437BD465DF8047B704780B586B086
:1038A00000AF7860144A154BD31A7B617B693B618A
:1038B000134B1B68002B02D1114B124A1A60104B9C
:1038C0001A687B6813443A699A4207D20CF0CAFF1F
:1038D00003460C221A604FF0FF3309E0084B1B68C7
:1038E000FB60074B1A687B681344054A1360FB684A
:1038F00018461837BD4680BD0000032000100000A8
:10390000A8070020781A002080B400AF034B1B6882
:103910001846BD465DF8047B704700BF8075FF1FE9
:1039200080B400AF034B1B68DBB21846BD465DF8A0
:10393000047B70478475FF1F80B400AF034B1B6886
:103940001B0A1846BD465DF8047B70478475FF1F4F
:10395000B0B590B000AF922387F83F303F4B3C1D8D
:103960001D460FCD0FC40FCD0FC40FCD0FC495E86A
:10397000030084E8030000F00FFB012102200BF09C
:103980000BFC374A002104200BF032FD3B1D18468A
:103990000AF0A6F9034687F83E3097F83E30002B30
:1039A00008D097F83E3019462E480CF09BFDFFF7E3
:1039B00019FB02E02C480CF095FD00F003FB0BF026
:1039C000EBF82A4B002283F88020284B4FF6FF7239
:1039D000DA82274A002101200BF00AFD254A002146
:1039E00002200BF005FD062009F0A7FB034687F82F
:1039F0003F3097F83F30002B06D097F83F301946FC
:103A00001D480CF06FFD02E01C480CF06BFD1C4BD8
:103A100000221A701B4B01221A7000F029FF1A4B6A
:103A200000221A490020FEF795FD194B0022194982
:103A30000020FEF78FFD0D4B00225A760B4B002223
:103A40001A76154B80221A80144BA0221A8001206E
:103A500000F068FC00BF4037BD46B0BD20570108EC
:103A600005D70008445601087C560108C40200200E
:103A7000054500084D460008A4560108E85601080F
:103A8000B8070020B907002065450008450300205D
:103A90007545000846030020480300204A03002023
:103AA000B0B590B004AF7860922387F82F307B6870
:103AB0000133BB62BB6A1B78FF2B00F02681FF2B12
:103AC00000F32182052B02D03E2B34D01BE2BB6ACF
:103AD0000233FB60FB68B3F801309AB2AA4BDB8A71
:103AE0009A421AD1A84B0022DA82A74B002283F80F
:103AF0008020002202214FF0904004F075FBA34883
:103B00000CF05EFDFB68B3F801309BB21946FB6810
:103B1000DB781A469E480CF0E5FC012000F002FC20
:103B20009C4B01221A70984BDA8A9A4B5A8099481A
:103B300000F08AFEEAE1BB6A0233FB61FB691B7895
:103B40000C2B33D00C2B00F3DE80012B6CD0032B1D
:103B500040F0D980FB6901337B618F480CF030FD68
:103B60007B69B3F803309BB21846FCF7B3FC4FF007
:103B700000028A4BFCF718FD02460B461046194618
:103B80007B69B3F805309BB21C467B69B3F80730FC
:103B90009BB21A4613469B0013445B0001930094AA
:103BA00002460B467E480CF09DFCADE0FB690133FC
:103BB000BB617C480CF096FCBB691B78002B03D1E1
:103BC00079480CF0FDFC02E078480CF0F9FC6E4BF3
:103BD000DB8A07F10A0207F10B01184609F025FB01
:103BE000034687F82F3097F82F30002B03D070480A
:103BF0000CF078FC88E06F480CF0E2FCFB7A022BBA
:103C00000AD1BB7A022B07D1FB7A1946BB7A1A4636
:103C100069480CF067FC77E0FB7A1946BB7A1A46D4
:103C200065480CF05FFC6FE0FB6901333B61564B6C
:103C300093F881301846FEF707FD3B69B3F8013071
:103C40009BB219465D480CF04DFC3B699B7A1846C7
:103C50003B695B7A1C463B691B7A1D463B69DB79F5
:103C60001A463B699B7919463B695B79029301913E
:103C700000922B462246014651480CF033FC3B692A
:103C8000B3F80B309BB21846FCF724FC4FF000024F
:103C9000424BFCF789FC02460B46104619463B692D
:103CA000B3F80D309BB21C463B69B3F80F309BB2A2
:103CB0001A4613469B0013445B000193009402468E
:103CC0000B4637480CF00EFC2F4B93F88030042B3A
:103CD00004D12D4B062283F8802003E02A4B0522D5
:103CE00083F880203B69B3F801309AB2264BDA8220
:103CF000284B00221A70244BDA8A264B5A8025481A
:103D000000F0A2FD00E000BF00E1BB6A02337B626D
:103D10007B6A1B889BB2B3F5006F00F0E080B3F5BF
:103D2000006F00F3F280042B00F0E180042BC0F25E
:103D3000EC8040F20A42934200F3E780B3F5806FD3
:103D4000C0F2E380A3F580630A2B00F2DE8001A2BB
:103D500052F823F0813D0008A93E0008C93D000843
:103D6000FF3D0008073E00080F3E00080B3F00081B
:103D7000E73E0008433E0008533E00084B3E000863
:103D800010480CF01DFCBDE0C4020020585701088B
:103D900084570108B4070020C05701080000F43F11
:103DA000F457010860580108905801089C58010810
:103DB000A8580108C8580108E85801080C5901081A
:103DC00054590108A459010853480CF0F9FB534B0E
:103DD000DB8A5349184608F0B3FB034687F82F30B7
:103DE00097F82F30002B06D097F82F3019464D4802
:103DF0000CF078FB86E04C480CF0E2FB82E04B488C
:103E00000CF0DEFB7EE04A480CF0DAFB7AE0494831
:103E10000CF0D6FB414BDB8A184608F03BFD03460D
:103E200087F82F3097F82F30002B06D097F82F30D7
:103E3000194641480CF056FB64E040480CF0C0FBCA
:103E400060E03F480CF0BCFB5CE03E480CF0B8FB87
:103E500058E03C480CF0B4FB7B6A0233D3F80230E4
:103E6000194639480CF03EFB7B6A0233D3F8023026
:103E7000194636480CF036FB284BDB8A01211846E0
:103E800008F05CFD034687F82F3097F82F30002BA1
:103E900006D097F82F3019462D480CF023FB31E05F
:103EA0002C480CF08DFB2DE07B6A02333B622A48E4
:103EB0000CF086FB3B6A9B78002B03D127480CF063
:103EC0007FFB08E03B6A9B7819463B6ADB781A4621
:103ED00023480CF007FB0A200CF016FB12E0214BE4
:103EE00001221A700EE020480CF0FCFA0AE00120D2
:103EF00001F030FC094B93F882300A211846FEF796
:103F00002FFC00BF01E000BF00E000BF0123184606
:103F10003037BD46B0BD00BFD4590108C4020020EF
:103F200040E20100FC590108305A0108585A0108C2
:103F3000845A0108B85A0108DC5A01080C5B0108D0
:103F4000345B0108605B0108905B0108AC5B010811
:103F5000C45B0108145C01085C5C0108885C010812
:103F6000A05C0108B9070020DC5C010880B500AF47
:103F700000F0A6FC00BF80BD80B500AF002102208C
:103F80000BF058FA00BF80BD80B400AF00BFBD4643
:103F90005DF8047B7047000080B582B000AF064B2F
:103FA0003B60064B7B603B461946054809F08EFB9B
:103FB00000BF0837BD4680BD28000320F546000835
:103FC000BD460008F0B58DB006AF00233B809223BC
:103FD000FB75A5480CF0F4FA09F003F90346FB75EC
:103FE000FB7D002B05D0FB7D1946A0480CF07AFA2A
:103FF00002E09F480CF0E4FA00F040FA38613A69B8
:104000000621002008F0ADFF0346FB75FB7D002B69
:1040100005D0FB7D194697480CF064FA21E09648DC
:104020000CF0CEFA3B6905331B7818463B69043324
:104030001B781C463B6903331B781D463B690233E2
:104040001B781A463B6901331B7819463B691B787C
:104050000293019100922B462246014687480CF0BC
:1040600041FA3B6905331A78854B1A723B69043370
:104070001A78834B5A723B6903331A78804B9A72D1
:104080003B6902331A787E4BDA723B6901331A7846
:104090007B4B1A733B691A78794B5A73794A102112
:1040A000182008F05EFF0346FB75FB7D002B05D052
:1040B000FB7D194674480CF015FA02E073480CF0C9
:1040C0007FFA734A1021082008F04BFF0346FB7566
:1040D000FB7D002B05D0FB7D19466E480CF002FAE3
:1040E00002E06D480CF06CFA1821012008F0BEFFC8
:1040F0000346FB75FB7D002B05D0FB7D1946674809
:104100000CF0F0F902E066480CF05AFA08F07DFC79
:104110000346FB75FB7D002B05D0FB7D19466148EE
:104120000CF0E0F902E060480CF04AFA0023FB735F
:10413000FB7B43F00103FB73FB7B002B2BD05B4B22
:10414000BB60BA1DF87BBB1C01933B1D009313465B
:104150000722002108F05BFA0346FB75FB7D002B6C
:1041600005D0FB7D194652480CF0BCF902E05148DD
:104170000CF026FAFC88BD88B868FCF751F80346B5
:10418000DAB2BB680093134600222946204608F0A5
:104190003FFE0346FB75F88879883B46009302236F
:1041A000002208F035FE0346FB75022202210020A2
:1041B00009F0B9F80346FB75FB7D002B05D0FB7DAC
:1041C00019463D480CF08EF902E03C480CF0F8F935
:1041D0003B4B01221A703A4B1B78184608F098F8AE
:1041E0000346FB75FB7D002B05D0FB7D194635484A
:1041F0000CF078F902E034480CF0E2F9304B01227F
:104200005A702F4B08221A712D4B10225A712C4BC9
:104210000022DA702A4B2D4A9A60294B01229A70AB
:10422000274B9C78264B5D78254B1B79244A527985
:104230002349C97822488068002604960390029199
:1042400001920093002301222946204608F0B4F889
:104250000346FB75FB7D002B3CD0FB7D19461C48BB
:104260000CF040F939E000BF045D0108305D010841
:10427000605D0108805D0108DC5D0108285E0108C1
:104280001000002034680108645E0108BC5E01086B
:1042900044680108045F01085C5F0108A45F01082D
:1042A000E45F010814600108486001086C600108BF
:1042B00074600108A4600108C4600108006101087D
:1042C000C40200202C6101086C61010807B20100E2
:1042D0009C6101080E480CF073F90E4B9B78002B83
:1042E0000FD008F0B3FA0346FB75FB7D002B05D019
:1042F000FB7D194608480CF0F5F802E007480CF081
:104300005FF907480CF0EEF800BF1C37BD46F0BD62
:10431000E8610108C4020020246201086462010807
:104320009462010880B58CB008AF0346FB719223FC
:10433000FB72FB79012B06D1414B1B88FB81414B62
:104340001B88BB8105E04FF4C863FB814FF47A639F
:10435000BB813D4B93F881301846FEF775F9FB7928
:10436000022B19D1384B93F88030012B04D0364BF7
:1043700093F88030022B0FD107F0ACFE0346FB729E
:10438000FB7A002B05D0FB7A194630480CF0AAF8CE
:1043900002E02F480CF014F92B4AFB7982F88030A8
:1043A000294B1B7EBA89F9890020069000200590D0
:1043B000284804900393284B029308230193002379
:1043C00000930023002007F0A9FE0346FB72FB7A4E
:1043D000002B05D0FB7A194620480CF083F802E048
:1043E0001F480CF0EDF81F490E2008F0BDF90346F8
:1043F000FB72FB7A002B0ED0FB79012B05D1FB7AE7
:10440000194619480CF06EF817E0FB7A1946174860
:104410000CF068F811E0FB79012B0AD114480CF07C
:1044200061F8094B93F8813012491846FEF798F964
:1044300003E011480CF056F800BF1037BD4680BDB0
:10444000480300204A030020C4020020C062010883
:104450000C630108DD020020546801085463010860
:104460008C63010810000020B4630108E8630108B0
:104470002064010846E001004864010880B586B068
:1044800000AFFFF741FA38613B69B3F1FF3F23D03A
:10449000FFF752FAB860FFF743FA78603B69DAB287
:1044A000164B1A703B691B0ADAB2144B5A707B68C0
:1044B000DAB2124B9A70BB68DAB2104BDA70BB6892
:1044C0001B0ADAB20D4B1A71BB681B0CDAB20B4B2C
:1044D0005A710A4B7B610BE0002009F0ADFAF860DD
:1044E000FB68002B02D0FB687B6101E0044B7B6121
:1044F0007B6918461837BD4680BD00BFAC07002059
:104500002C68010880B582B000AF012001F03CF9B1
:10451000104B93F88030052B17D09223FB7107F0D6
:10452000D9FD0346FB710B4B002283F88020FB79F9
:10453000002B03D008480BF0D5FF06E007480BF02E
:10454000D1FF07480BF0CEFF00BF00BF0837BD46C4
:1045500080BD00BFC4020020786401089C6401088B
:10456000A464010880B500AF002101200AF062FFB9
:1045700000BF80BD80B500AF012001F005F900BF8C
:1045800080BD000090B589B002AF0346FB80294B87
:104590001B78012B49D1274B00221A70264B1B7820
:1045A0000133002B03F00103B8BF5B42DAB2224BA8
:1045B0001A70214B1B78214A9B00134493ED007A1B
:1045C000F7EE046AC7EE267AFDEEE77A17EE903A28
:1045D000FB82194B1B78194A9B00134493ED007A18
:1045E000F7EE046AC7EE267AFDEEE77A17EE903A08
:1045F000BB8200237B824FF4FA733B82104BD88A34
:104600007C8ABA8AF98A3B8A0093234608F008FF1D
:104610000346FB73FB7B002B03D00A480BF062FFC1
:1046200003E009480BF05EFF00BF00BF1C37BD462A
:1046300090BD00BFB9070020B80700200800002087
:10464000C4020020C0640108E864010880B500AF1E
:10465000084B93F88030012B0AD0064B93F880303A
:10466000002B05D0034BDB8A1846FFF78BFF00BFFA
:1046700000BF80BDC402002080B582B000AF78606A
:10468000002104200AF0D6FE00BF0837BD4680BDD9
:1046900080B582B000AF786001200AF037FF00BF1C
:1046A0000837BD4680BD80B582B000AF786001207C
:1046B0000AF04CFF00BF0837BD4680BD80B584B00E
:1046C00000AF78607B68FB60FB685B680833184666
:1046D0000AF0B4FA0346FB72FB7A002B03D0FB68A6
:1046E00001221A7003E0FB6800221A7000BF103725
:1046F000BD4680BD80B584B000AF0346FB71FB7939
:10470000002B02D0012B06D00BE03F23FB60F868A2
:104710000AF0BCFE05E03F23FB60F8680AF0D6FE15
:1047200000BF00BF1037BD4680BD000080B582B01D
:1047300000AF78607B681B78032B1AD0032B6BDCEF
:10474000002B02D0012B0AD066E0374B01221A70F1
:1047500036480BF035FF36480BF0C4FE5FE0324BB5
:1047600000221A7033480BF02BFF31480BF0BAFED1
:1047700055E07B685B681B78002B23D17B685B6806
:1047800001331B78012B0BD1002000F0E3FF2A48F6
:104790000BF016FF26480BF0A5FE234B01229A7062
:1047A0007B685B6801331B78002B0BD1002000F085
:1047B000EBFF22480BF004FF1D480BF093FE1A4B51
:1047C00000229A707B685B681B78012B26D17B687E
:1047D0005B6801331B78012B0BD1002000F0BAFF7E
:1047E00017480BF0EDFE12480BF07CFE0E4B012239
:1047F0009A707B685B6801331B78002B0ED1002018
:1048000000F0C2FF0F480BF0DBFE09480BF06AFE18
:10481000054B00229A7001E000BF00E000BF00BF1E
:104820000837BD4680BD00BF4C0300201865010855
:104830004C6501085065010884650108AC650108F4
:10484000D4650108FC65010880B582B000AF7860CE
:104850007B681B78002B05D0012B00D003E000F013
:1048600019F800E000BF00BF0837BD4680BD00005A
:1048700080B500AF054A002108200AF0B9FD044BBD
:1048800000221A7000F006F800BF80BDE151000858
:104890004C03002080B500AF002000F075FF074BEF
:1048A00001225A70054B00229A70044B0122DA70E3
:1048B000024B00221A7100BF80BD00BF4C030020D4
:1048C00080B500AF002108200AF0B4FD00BF80BD14
:1048D00080B588B000AF87ED040B87ED021B87ED34
:1048E000002BD34B3C22DA71D14B52221A72D04B9F
:1048F00056225A72CE4B49229A73CD4B3E225A769B
:10490000D7E90401FCF700F90246CA4B83FB021306
:104910009910D317C91A0B469B000B445B00D11AA0
:10492000CBB23033DAB2C24B9A724FF00002C24BB4
:10493000D7E90401FBF738FE02460B46104619463C
:10494000FCF7E2F80246BB4B83FB02139910D31726
:10495000C91A0B469B000B445B00D11ACBB2303313
:10496000DAB2B34BDA724FF00002B44BD7E904016C
:10497000FBF71AFE02460B4610461946FCF7C4F830
:104980000246AC4B83FB02139910D317C91A0B468E
:104990009B000B445B00D11ACBB23033DAB2A44B8C
:1049A0001A734FF00002A64BD7E90401FBF7FCFD98
:1049B00002460B4610461946FCF7A6F802469D4BE8
:1049C00083FB02139910D317C91A0B469B000B44A3
:1049D0005B00D11ACBB23033DAB2954B5A7397EDF4
:1049E000020B0FF0C5FA53EC102B10461946FCF7DA
:1049F0008BF80346FB61FB69002BB8BF5B4218468E
:104A0000FBF768FD02460B4643EC112B9FED860B2E
:104A10000FF0ECFA51EC100BD7E90223FBF7C4FDC1
:104A200002460B4610461946FCF76EF80246814BCB
:104A300083FB02139910D317C91A0B469B000B4432
:104A40005B00D11ACBB23033DAB2794BDA73FB693F
:104A5000002BB8BF5B4201331846FBF73BFD024613
:104A60000B4643EC112B9FED700B0FF0BFFA51EC8E
:104A7000100BD7E90223FBF797FD02460B461046C1
:104A80001946FCF741F802466A4B83FB0213991062
:104A9000D317C91A0B469B000B445B00D11ACBB24B
:104AA0003033DAB2624B1A74FB69002BB8BF5B4239
:104AB00002331846FBF70EFD02460B4643EC112B62
:104AC0009FED590B0FF092FA51EC100BD7E902232E
:104AD000FBF76AFD02460B4610461946FCF714F830
:104AE0000246544B83FB02139910D317C91A0B4685
:104AF0009B000B445B00D11ACBB23033DAB24C4B83
:104B00005A74FB69002BB8BF5B4203331846FBF7AE
:104B1000E1FC02460B4643EC112B9FED430B0FF0DB
:104B200065FA51EC100BD7E90223FBF73DFD024675
:104B30000B4610461946FBF7E7FF02463D4B83FB49
:104B400002139910D317C91A0B469B000B445B0044
:104B5000D11ACBB23033DAB2354B9A74FB69002BE1
:104B6000B8BF5B42DBB23133DAB2314BDA7497ED66
:104B7000000B0FF0FDF953EC102B10461946FBF714
:104B8000C3FF0346FB61FB69002BB8BF5B421846BD
:104B9000FBF7A0FC02460B4643EC112B9FED220BCA
:104BA0000FF024FA51EC100BD7E90023FBF7FCFCC3
:104BB00002460B4610461946FBF7A6FF02461D4B60
:104BC00083FB02139910D317C91A0B469B000B44A1
:104BD0005B00D11ACBB23033DAB2154B1A75FB69D0
:104BE000002BB8BF5B4201331846FBF773FC02464B
:104BF0000B4643EC112B9FED0C0B0FF0F7F951EC2A
:104C0000100BD7E90023FBF7CFFC02460B461046FA
:104C10001946FBF779FF0246064B83FB02139910F6
:104C2000D317C91A0B460DE0000000000000244015
:104C30004C0300206766666600002440000059406F
:104C400000408F409B000B445B00D11ACBB2303345
:104C5000DAB2394B5A75FB69002BB8BF5B4202339D
:104C60001846FBF737FC02460B4643EC112B9FED31
:104C7000300B0FF0BBF951EC100BD7E90023FBF719
:104C800093FC02460B4610461946FBF73DFF0246D1
:104C90002A4B83FB02139910D317C91A0B469B00AA
:104CA0000B445B00D11ACBB23033DAB2224B9A7587
:104CB000FB69002BB8BF5B4203331846FBF70AFCC5
:104CC00002460B4643EC112B9FED190B0FF08EF9AA
:104CD00051EC100BD7E90023FBF766FC02460B46AC
:104CE00010461946FBF710FF0246144B83FB0213D4
:104CF0009910D317C91A0B469B000B445B00D11ABD
:104D0000CBB23033DAB20C4BDA75FB69002BB8BF8B
:104D10005B42DBB23133DAB2074B1A76002108204E
:104D20000AF088FB00BF2037BD4680BDAFF300808E
:104D300000000000000024404C0300206766666607
:104D4000F0B59DB010AFA44B1B68002B0DD1A34B49
:104D50001B78012B09D1A04B01221A60A04998A30E
:104D6000D3E90023C1E90023E1E19B4B1B68012B40
:104D700040F06E81994B1B78012B40F06981984B74
:104D8000D3E900014FF000024FF08043FBF788FEAB
:104D90000346002B00F05C81914BD3E900014FF0FA
:104DA00000024FF00003FBF785FE0346002B00F0E6
:104DB0004F818C4B1B68002B32D18B4B1B68002B17
:104DC0002ED1874B93ED007BB0EE470AF0EE670AD9
:104DD0000020FCF705F9824B93ED007BB0EE470A0B
:104DE000F0EE670A0120FCF7FBF8804B00221A6006
:104DF0007F4B00221A607F4B00221A607E4B0022FC
:104E00001A607E4B00221A60774B01221A60754BA4
:104E100001221A6002227A497A4801F0F9F916E172
:104E2000724B1B685A2B40F3F3806E4B1B68012BAF
:104E300040F0EE806C4B1B68012B40F0E980674B23
:104E40001B78012B40F0E4806E4801F065FA654B59
:104E500000221A60684B1B68664A1268B3FBF2F3C3
:104E6000FB62664B1B68634A1268B3FBF2F3BB62DA
:104E7000F86AFBF72FFB4FF00002634BFBF7BEFC19
:104E800002460B46104619464FA3D3E90023FBF711
:104E90008BFB02460B46C7E90823B86AFBF71AFBEF
:104EA0004FF00002584BFBF7A9FC02460B46104698
:104EB000194645A3D3E90023FBF776FB02460B46D0
:104EC000C7E90623F86AFBF705FB4FF000024E4BDB
:104ED000FBF794FC02460B46104619463AA3D3E969
:104EE0000023FBF761FB02460B461046194638A328
:104EF000D3E90023FBF782FC02460B46C7E90423F3
:104F0000B86AFBF7E7FA4FF000023F4BFBF776FC7D
:104F100002460B46104619462BA3D3E90023FBF7A4
:104F200043FB02460B461046194629A3D3E900234A
:104F3000FBF764FC02460B46C7E90223284BD3E982
:104F400000012D4B1C682B4B1D682C4B1E68294BF8
:104F50001B687B60D7E90223CDE90E23D7E906233E
:104F6000CDE90C23BB6A0A937B6809930896D7E9BD
:104F70000423CDE90623D7E90823CDE90423FB6AFE
:104F800002930195009402460B4620480BF0AAFAC2
:104F9000184B00221A60184B00221A60174B00228F
:104FA0001A600F4B93ED007B97ED062B97ED081BD6
:104FB000B0EE470AF0EE670AFFF78AFC47E000BF51
:104FC000333333333333C33F6666666666660A40FF
:104FD00000000000006AF840CC0700204C030020CD
:104FE000C0070020D4070020E8070020D0070020D9
:104FF000E4070020D8070020DC070020E00700209D
:10500000EC070020D80300200000B040246601080F
:10501000554B1B68002B40F08980544B1B68642B58
:1050200040F38480524B1B68012B7FD1504B0022F0
:105030001A60504BD3E9000147A3D3E90023FBF7E3
:10504000FDF802460B464B49C1E900236EE06DE0D6
:10505000494B1B68012B31D1484B1B78012B2DD1BB
:10506000444BD3E900014FF000024FF08043FBF7BF
:105070002BFD0346002B21D03E4BD3E900014FF01E
:1050800000023F4BFBF7F8FC0346002B16D13949D1
:105090004FF000023A4BC1E90023364B93ED007B01
:1050A0009FED2F2B9FED2E1BB0EE470AF0EE670A07
:1050B000FFF70EFC334B00221A6038E0314B1B68BF
:1050C00042F21072934232DD2B4B1B68012B2ED122
:1050D0002A4B1B78012B2AD1264BD3E900014FF034
:1050E0000002294BFBF7DCFC0346002B1FD02149B3
:1050F0004FF000024FF00003C1E900231D4B93ED78
:10510000007BB0EE470AF0EE670A0020FBF768FF6D
:10511000184B93ED007BB0EE470AF0EE670A0120D2
:10512000FBF75EFF144B00221A6000E000BF154B36
:105130001B680133134A1360144B1B680133134A75
:1051400013600A4B1B680133084A136000BF3437F1
:10515000BD46F0BDAFF300807B14AE47E17A843FDB
:105160000000000000000000D4070020E407002039
:10517000E8070020C0070020CC0700204C030020D7
:105180000000F0BFC80700200000E0BFD0070020EB
:1051900080B483B000AF78600D4B1B881A460D4B6E
:1051A0001B6813440B4A1360094B5B881A460A4B71
:1051B0001B681344084A1360084B1B680133074AF5
:1051C000136000BF0C37BD465DF8047B704700BF1D
:1051D000EC070020DC070020E0070020D8070020B3
:1051E00080B500AF0C4B1B79002B03D10A4B012279
:1051F0001A7102E0084B00221A71074B1B78002B32
:1052000005D006494FF6426008F048FD03E0044827
:105210000BF068F900BF80BD4C0300205303002051
:105220005C66010880B400AF054BDB68044A43F4B8
:105230000043D36000BFBD465DF8047B704700BFEC
:105240000004005880B483B000AF7860064BD3F8F8
:10525000D42005497B681343C1F8D43000BF0C3714
:10526000BD465DF8047B70470008005880B483B0E9
:1052700000AF7860054B1A6A04497B6813430B62E0
:1052800000BF0C37BD465DF8047B7047000800582E
:1052900080B485B000AF78604FF0B0431A6D4FF026
:1052A000B0417B6813430B654FF0B0431A6D7B68C8
:1052B0001340FB60FB6800BF1437BD465DF8047BFC
:1052C000704780B485B000AF78604FF0B043D3F83A
:1052D00050214FF0B0417B681343C1F850314FF07B
:1052E000B043D3F850217B681340FB60FB6800BFDC
:1052F0001437BD465DF8047B704780B483B000AFBF
:1053000078607B681B6843F480327B681A6000BF5A
:105310000C37BD465DF8047B704780B483B000AFA6
:1053200078607B681B6843F001027B681A6000BFED
:105330000C37BD465DF8047B704780B483B000AF86
:10534000786039607B685A683B681B04DB431A400D
:105350007B685A6000BF0C37BD465DF8047B704720
:1053600080B483B000AF786039607B685A683B686E
:105370001B041A437B685A6000BF0C37BD465DF8BA
:10538000047B704780B483B000AF786039607B687D
:105390005A683B68DB431A407B685A6000BF0C3791
:1053A000BD465DF8047B704780B483B000AF786081
:1053B00039607B683A689A6000BF0C37BD465DF87B
:1053C000047B704780B483B000AF786039603B687D
:1053D0001A047B689A6000BF0C37BD465DF8047BF9
:1053E000704780B483B000AF786039607B68DA685A
:1053F0003B6813403A689A4201D1012300E0002340
:1054000018460C37BD465DF8047B704780B483B006
:1054100000AF786039607B68DA693B6813403A68AE
:105420009A4201D1012300E0002318460C37BD4603
:105430005DF8047B7047000080B500AF022118487A
:10544000FFF7E4FF0346002B08D0154B5B6803F021
:105450000203002B02D100F0D5F81EE00121104814
:10546000FFF7D4FF0346002B08D00D4B5B6803F019
:105470000103002B02D100F089F80EE00821084852
:10548000FFF7C4FF0346002B08D0054B5B6803F011
:105490000803002B02D100F001F900BF00BF80BD5E
:1054A000000C005880B500AF02211848FFF799FFA3
:1054B0000346002B08D1154B5B6803F40033002B27
:1054C00002D100F093F81EE008211048FFF789FF91
:1054D0000346002B08D10D4B5B6803F40023002B1F
:1054E00002D100F0BDF80EE020210848FFF779FF57
:1054F0000346002B08D1054B5B6803F40013002B17
:1055000002D100F04FF800BF00BF80BD000C005872
:1055100080B500AF4FF48010FFF7D3FE4FF400705A
:10552000FFF7A4FE4FF40070FFF78CFE40BF20BFD2
:10553000FFF778FE00BF80BD80B500AF4FF480104C
:10554000FFF7A6FE0648FFF7E8FE0548FFF7D5FE81
:105550002C2002F01CF92D2002F019F900BF80BDAB
:10556000000C005880B500AF01210248FFF70AFF88
:1055700000BF80BD000C005880B500AF012102487B
:10558000FFF720FF00BF80BD000C005880B500AFC2
:1055900009F038FC01210248FFF706FF00BF80BD7B
:1055A000000C005880B500AF20210348FFF7D8FE5B
:1055B00009F058FC00BF80BD000C005880B500AF5A
:1055C00002210248FFF7DEFE00BF80BD000C00583C
:1055D00080B500AF02210448FFF7F4FE0221024823
:1055E000FFF7ABFE00BF80BD000C005880B500AFD8
:1055F00002210348FFF7B4FE09F084FC00BF80BD20
:10560000000C005880B500AF09F092FC022102485E
:10561000FFF7CAFE00BF80BD000C005880B582B005
:1056200000AF786008210C48FFF7DBFE0346002B33
:1056300007D00A4A7B68136008210748FFF77DFE00
:1056400006E07B68984708210348FFF7BBFE00BFD0
:105650000837BD4680BD00BF000C0058F007002091
:1056600080B500AF08210648FFF77AFE054B1B689E
:10567000984708210248FFF7A5FE00BF80BD00BF84
:10568000000C0058F007002080B500AF0821024848
:10569000FFF778FE00BF80BD000C005880B500AF5A
:1056A00009F0EEFC08210248FFF77EFE00BF80BD36
:1056B000000C0058D458C4500433C4188C42F9D399
:1056C0007047036004308842FBD370470C4885461E
:1056D00000F0E4F80B480C490C4A0023FFF7EDFFFB
:1056E0000B480C490023FFF7EEFF0B480B49002342
:1056F000FFF7E9FF0BF0BCF8FDF79EF9FEE70000AD
:10570000000003200800002028020020B06D0108DE
:10571000A8030020781A0020E4010320670A032070
:10572000FEE780B485B000AF78604FF0B043DA6C2C
:105730004FF0B0417B681343CB644FF0B043DA6C59
:105740007B681340FB60FB6800BF1437BD465DF803
:10575000047B704780B582B000AF0346FB71FB79D4
:10576000074A52F82300FB79064A32F81330012227
:10577000194602F039FD00BF0837BD4680BD00BFA5
:10578000200000205C68010880B582B000AF0346AD
:10579000FB71FB79074A52F82300FB79064A32F87D
:1057A00013300022194602F01FFD00BF0837BD4626
:1057B00080BD00BF200000205C68010880B588B073
:1057C00000AF03460A46FB711346BB7107F10C0399
:1057D00000221A605A609A60DA601A61FB79002B25
:1057E00003D10420FFF79DFF0CE0FB79012B03D1CF
:1057F0000820FFF796FF05E0FB79022B02D1082075
:10580000FFF78FFFBB79002B17D1FB79204A32F8C5
:105810001330FB6000233B6101237B610223BB61EA
:10582000FB791C4A52F8233007F10C021146184646
:1058300002F06AFB0120FCF7FCF8BB79012B23D1B5
:10584000FB79134A32F81330FB6001237B614FF47C
:1058500004133B61FB790F4A52F8233007F10C0225
:105860001146184602F050FBFB790B4AD35C5BB241
:1058700000220F21184601F070FFFB79064AD35C25
:105880005BB2184601F083FF00BF2037BD4680BDE4
:10589000646801082C0000206C68010880B400AF27
:1058A000244BD3F88830234A43F47003C2F888307D
:1058B0004FF0B0431B684FF0B04243F00103136058
:1058C0004FF0B0434FF4E0229A604FF0B0431A68B3
:1058D0004FF0B041184B13400B604FF0B043D3F87A
:1058E00094304FF0B04223F00503C2F894304FF0EB
:1058F000B043D3F898304FF0B04223F00103C2F820
:1059000098304FF0B0430D4ADA604FF0B0430B4A85
:105910001A614FF0B0431B684FF0B04223F480236C
:1059200013604FF0B04300229A6100BFBD465DF89E
:10593000047B704700ED00E0FBFEF6FA0010042245
:1059400080B400AF054B5B68044A43F00103536029
:1059500000BFBD465DF8047B704700BF002004E037
:1059600080B400AF054B5B68044A43F00203536008
:1059700000BFBD465DF8047B704700BF002004E017
:1059800080B582B000AF0023FB710C4B1B680B4A43
:1059900043F480731360032001F0D4FE002000F074
:1059A0000FF80346002B02D00123FB7101E0FDF745
:1059B000AEFBFB7918460837BD4680BD0040005855
:1059C00080B584B000AF78600023FB73174B1B7861
:1059D000002B24D004F0B0F90246144B1B78194672
:1059E0004FF47A73B3FBF1F3B2FBF3F3184601F013
:1059F000EAFE0346002B0FD17B680F2B09D800224B
:105A000079684FF0FF3001F0A8FE094A7B68136007
:105A100007E00123FB7304E00123FB7301E0012392
:105A2000FB73FB7B18461037BD4680BD400000204D
:105A30003C00002080B400AF064B1B781A46064B92
:105A40001B681344044A136000BFBD465DF8047B25
:105A5000704700BF40000020F407002080B400AF72
:105A6000034B1B681846BD465DF8047B704700BFBA
:105A7000F407002080B400AF034B1B681846BD46F6
:105A80005DF8047B704700BF3C00002080B584B007
:105A900000AF0346FB710023FB730E4B1B78FA79B2
:105AA0009A4212D00B4B1B78BB730A4AFB791370D6
:105AB000094B1B681846FFF783FF0346FB73FB7B0C
:105AC000002B02D0034ABB7B1370FB7B18461037B8
:105AD000BD4680BD400000203C00002080B400AFE7
