:020000040800F2
:1000000000000320454000081525000823250008AE
:10001000292500082F2500083525000800000000CC
:100020000000000000000000000000003B25000868
:100030004925000800000000572500086525000834
:10004000994000089940000899400008712500086F
:100050009940000899400008FF2500080D26000877
:100060009940000899400008F125000899400008CF
:1000700099400008994000087D2500089940000833
:1000800099400008994000089940000899400008EC
:1000900099400008994000089940000899400008DC
:1000A00099400008994000089940000899400008CC
:1000B00099400008994000089940000899400008BC
:1000C00099400008994000089940000899400008AC
:1000D00091250008A52500089940000899400008CE
:1000E000994000089940000899400008994000088C
:1000F000B9250008C5250008D12500089940000849
:10010000994000089940000899400008994000086B
:10011000994000089940000899400008994000085B
:100120009940000899400008DD2500089940000822
:0C01300099400008994000089940000820
:1001400010B5054C237833B9044B13B10448AFF311
:1001500000800123237010BD240200200000000055
:100160003CCA000808B5034B1BB103490348AFF371
:10017000008008BD00000000280200203CCA0008E2
:10018000034613F8012B002AFBD1181A01387047D7
:1001900001F0FF01102A2BDB10F0070F08D010F838
:1001A000013B013A8B422DD010F0070F42B3F6D13C
:1001B000F0B441EA012141EA014122F007047FF055
:1001C00000070023F0E80256083C85EA010586EAAC
:1001D000010685FA47F5A3FA87F586FA47F6A5FAE8
:1001E00087F68EB9EED1F0BC01F0FF0102F00702F4
:1001F00032B110F8013B013A83EA010313B1F8D19F
:100200000020704701387047002D06BF354603387F
:10021000073815F0010F07D1013015F4807F02BFB8
:10022000013015F4C03F0130F0BC0138704700BF09
:1002300053B94AB9002908BF00281CBF4FF0FF314D
:100240004FF0FF3000F074B9ADF1080C6DE904CE49
:1002500000F006F8DDF804E0DDE9022304B07047A1
:100260002DE9F047089D04468E46002B4DD18A4269
:10027000944669D9B2FA82F252B101FA02F3C2F19C
:10028000200120FA01F10CFA02FC41EA030E94402D
:100290004FEA1C48210CBEFBF8F61FFA8CF708FB4E
:1002A00016E341EA034306FB07F199420AD91CEB26
:1002B000030306F1FF3080F01F81994240F21C8158
:1002C000023E63445B1AA4B2B3FBF8F008FB1033A0
:1002D00044EA034400FB07F7A7420AD91CEB0404D5
:1002E00000F1FF3380F00A81A74240F207816444A5
:1002F000023840EA0640E41B00261DB1D44000232A
:10030000C5E900433146BDE8F0878B4209D9002D8D
:1003100000F0EF800026C5E9000130463146BDE817
:10032000F087B3FA83F6002E4AD18B4202D3824281
:1003300000F2F980841A61EB030301209E46002D30
:10034000E0D0C5E9004EDDE702B9FFDEB2FA82F285
:10035000002A40F09280A1EB0C014FEA1C471FFAE3
:100360008CFE0126200CB1FBF7F307FB131140EACA
:1003700001410EFB03F0884208D91CEB010103F197
:10038000FF3802D2884200F2CB804346091AA4B259
:10039000B1FBF7F007FB101144EA01440EFB00FE2D
:1003A000A64508D91CEB040400F1FF3102D2A64592
:1003B00000F2BB800846A4EB0E0440EA03409CE731
:1003C000C6F12007B34022FA07FC4CEA030C20FADE
:1003D00007F401FA06F31C43F9404FEA1C4900FAFE
:1003E00006F3B1FBF9F8200C1FFA8CFE09FB18117B
:1003F00040EA014108FB0EF0884202FA06F20BD9EE
:100400001CEB010108F1FF3A80F08880884240F23D
:100410008580A8F102086144091AA4B2B1FBF9F081
:1004200009FB101144EA014100FB0EFE8E4508D97C
:100430001CEB010100F1FF346CD28E456AD9023801
:10044000614440EA0840A0FB0294A1EB0E01A142E6
:10045000C846A64656D353D05DB1B3EB080261EB54
:100460000E0101FA07F722FA06F3F1401F43C5E92E
:10047000007100263146BDE8F087C2F12003D84064
:100480000CFA02FC21FA03F3914001434FEA1C47A6
:100490001FFA8CFEB3FBF7F007FB10360B0C43EA98
:1004A000064300FB0EF69E4204FA02F408D91CEB48
:1004B000030300F1FF382FD29E422DD90238634446
:1004C0009B1B89B2B3FBF7F607FB163341EA0341E6
:1004D00006FB0EF38B4208D91CEB010106F1FF3835
:1004E00016D28B4214D9023E6144C91A46EA00462C
:1004F00038E72E46284605E70646E3E61846F8E6BE
:100500004B45A9D2B9EB020864EB0C0E0138A3E706
:100510004646EAE7204694E74046D1E7D0467BE7E7
:10052000023B614432E7304609E76444023842E75F
:10053000704700BF80B483B000AF7860064BD3F83B
:10054000902005497B681343C1F8903000BF0C37F9
:10055000BD465DF8047B70470008005880B485B044
:1005600000AF78604FF0B043DA6C4FF0B0417B6879
:100570001343CB644FF0B043DA6C7B681340FB60ED
:10058000FB6800BF1437BD465DF8047B704780B43C
:1005900085B000AF78604FF0B043D3F84C214FF0F6
:1005A000B0417B681343C1F84C314FF0B043D3F8EE
:1005B0004C217B681340FB60FB6800BF1437BD46CD
:1005C0005DF8047B704780B500AF03F065FF03F072
:1005D00069FF4FF48030FFF7ADFF09F041FA00F0FA
:1005E00021F800F0C3F800BF80BD0000B0B588B0AE
:1005F00000AF0B4B3C1D1D460FCD0FC495E8070007
:1006000003C422800234130C23700AF067FE3B1DE2
:10061000184609F098FC00BF2037BD46B0BD00BFAA
:1006200054CA000880B588B000AF3B1D00221A6094
:100630005A609A60DA601A610023BB8300237B83CF
:1006400000233B830023FB7738E0FB7F444ADB0039
:1006500013449B79002B2BD0FB7F414A52F8333057
:10066000404A93421BD03F4A934223D8B3F1904F64
:1006700003D03D4A934209D01CE0FB7F384ADB009F
:1006800013449A88BB8B1343BB8314E0FB7F344A2B
:10069000DB0013449A887B8B13437B830BE0FB7F47
:1006A0002F4ADB0013449A883B8B13433B8302E0C1
:1006B00000BF00E000BFFB7F0133FB77FB7F252BF2
:1006C000C3D90023FB600123BB6003233B61BB8BC9
:1006D000002B14D0BB8B7B600120FFF73FFF012074
:1006E000FFF755FF3B1D19464FF0904004F0ECFB1F
:1006F000BB8B002219464FF0904004F055FD7B8BD8
:10070000002B12D07B8B7B600220FFF727FF02209B
:10071000FFF73DFF3B1D1946134804F0D5FB7B8BCB
:1007200000221946104804F03FFD3B8B002B13D0EC
:100730003B8B7B600420FFF711FF0420FFF727FFAE
:100740003B1D1946074804F0BFFB3B8B00221946AE
:10075000044804F029FD00BF00BF2037BD4680BD1E
:1007600000D80008000800480004004880B400AF2A
:1007700000BFBD465DF8047B704780B500AF01F057
:100780001FFC00BF80BD80B584B000AFF8600B4691
:100790007A607B817A897B68F968002001F0BAFA77
:1007A00000BF1037BD4680BD80B483B000AF786015
:1007B000074BD3F8803023F0070205497B681343C9
:1007C000C1F8803000BF0C37BD465DF8047B704730
:1007D0000004005880B483B000AF7860064BD3F8B3
:1007E000902005497B681343C1F8903000BF0C3757
:1007F000BD465DF8047B70470008005880B483B0A4
:1008000000AF78604FF0B0430A4AC3F89C204FF025
:10081000B043D3F89C3023F47C527B681B024FF02A
:10082000B0411343C1F89C3000BF0C37BD465DF8A2
:10083000047B7047FECAFECA80B483B000AF786004
:100840004FF0B0439B6823F400424FF0B0417B6807
:1008500013438B6000BF0C37BD465DF8047B7047C7
:1008600080B400AF4FF0B043D3F890304FF0B042B7
:1008700043F48033C2F8903000BFBD465DF8047B7E
:10088000704780B400AF4FF0B043D3F890304FF0D2
:10089000B04223F48033C2F8903000BFBD465DF80B
:1008A000047B704780B400AF4FF0B043D3F894306E
:1008B00003F08063B3F1806F01D1012300E00023D6
:1008C0001846BD465DF8047B704780B400AF4FF01A
:1008D000B043D3F8943003F08053B3F1805F01D17B
:1008E000012300E000231846BD465DF8047B7047F5
:1008F00080B485B000AF78604FF0B0431A6D4FF010
:10090000B0417B6813430B654FF0B0431A6D7B68B1
:100910001340FB60FB6800BF1437BD465DF8047BE5
:100920007047000080B400AF044B1B681B0C9BB2E7
:100930001846BD465DF8047B704700BF002004E008
:1009400080B483B000AF786039607B685A683B68D8
:100950001B041A437B685A6000BF0C37BD465DF824
:10096000047B704780B483B000AF786039607B68E7
:100970005A683B681A437B685A6000BF0C37BD4613
:100980005DF8047B704780B483B000AF7860396055
:100990007B685A693B681B041A437B685A6100BF35
:1009A0000C37BD465DF8047B704780B483B000AF60
:1009B000786039607B685A693B681A437B685A6182
:1009C00000BF0C37BD465DF8047B704780B483B030
:1009D00000AF786039607B683A689A6000BF0C3776
:1009E000BD465DF8047B704780B483B000AF78608B
:1009F00039607B683A689A6100BF0C37BD465DF884
:100A0000047B704780B400AF054B1B69044A23F098
:100A10000403136100BFBD465DF8047B704700BF4F
:100A200000ED00E080B483B000AF78607B68FF2207
:100A30005A6200BF0C37BD465DF8047B704780B436
:100A400083B000AF78607B68CA225A627B68532209
:100A50005A6200BF0C37BD465DF8047B704780B416
:100A600083B000AF786039607B689B6823F0070231
:100A70003B681A437B689A6000BF0C37BD465DF83F
:100A8000047B704780B500AF044B4FF400421A61FD
:100A900000F02EF800F06EF800BF80BD0040005856
:100AA00080B500AF00F07AF800F092F80849002015
:100AB00000F0AEFEFFF787FD012101200AF0ACFC3B
:100AC00000F0DAF900F0E8F900F090F800BF80BD1E
:100AD0006C04002080B400AF00BFBD465DF8047B0D
:100AE000704780B500AF5020FFF774FE00BF80BD97
:100AF00080B500AF00F004F800F01AF800BF80BD28
:100B000080B500AFFFF7CEFE0346002B0DD0FFF7F8
:100B1000DCFE0346002B08D104F020FC04F01EFC90
:100B2000FFF79EFEFFF7ADFE00BF00BF80BD0000D7
:100B300080B500AF4FF48010FFF7DAFE3F210C487C
:100B4000FFF744FF3F210A48FFF74EFF3F210848C7
:100B5000FFF7F6FE3F210648FFF715FF3F21044847
:100B6000FFF700FF3F210248FFF71FFF00BF80BDD6
:100B7000000C005880B582B000AF002009F0A4F945
:100B800078607B68002B05D07B689B791846FFF75F
:100B900035FE00BF00BF0837BD4680BD80B500AF41
:100BA000FFF798FFFFF79DFF00F002F800BF80BD40
:100BB00080B500AF0548FFF742FF00210348FFF76B
:100BC0004EFF0248FFF72EFF00BF80BD0028004007
:100BD00080B500AF4FF40040FFF72EFE0AF00AFC8C
:100BE0000420FFF7E1FD00BF80BD000080B588B0A4
:100BF00000AF0AF0BDF9114A00214FF480700AF0ED
:100C000039FD0F4B3B600F4B7B603B4619460E484E
:100C100009F074FA0D4BBB600D4BFB600D4B3B6153
:100C200040F23C537B6107F1080318460AF0E2FAF0
:100C30000AF098F900BF2037BD4680BD35A10008F5
:100C400034070320590C0008710C00084C090320DC
:100C500040080320F801032080B483B000AF0346AE
:100C6000FB7100BF0C37BD465DF8047B7047000088
:100C700080B588B000AF78607B685B680B33FB6140
:100C8000FB691B889BB2A3F51243072B60D801A216
:100C900052F823F0B50C0008F70C0008050D000809
:100CA000510D0008210D0008310D0008390D000814
:100CB000490D000807F10C03184609F071F93B7B58
:100CC00019467B7B1A46BB7B24480AF055FE3B7CC9
:100CD000194623480AF050FEBB7D1946FB7D1A4693
:100CE0003B7E20480AF048FE1F480AF045FE78681F
:100CF00000F070F82DE01D480AF03EFE786800F024
:100D000043F826E01A480AF0D3FEFB69023319685B
:100D1000FB6902335B681A4616480AF02DFE18E09C
:100D2000FB6902331B68194613480AF025FE10E0E0
:100D300012480AF021FE0CE0FB6902331B681946D9
:100D40000F480AF019FE04E00E480AF015FE00E014
:100D500000BF00BF2037BD4680BD00BF70CA00087D
:100D600094CA0008B0CA0008C8CA0008E8CA000847
:100D70000CCB00085CCB000884CB0008C0CB00087B
:100D8000E4CB000820CC000880B584B000AF7860C8
:100D90007B685B680B33FB60FB680233BB60BB683E
:100DA0001B78194608480AF0E7FDBB681B78002B42
:100DB00003D106480AF07CFE03E005480AF078FEFD
:100DC00000BF1037BD4680BD44CC000874CC00087D
:100DD000B0CC000880B58AB000AF786007F10C0392
:100DE00000221A605A609A609A8100237B627B68B5
:100DF0005B680B333B623B6A0233FB61FB691B7828
:100E0000002B1ED118480AF053FEFFF7EFFB0D230D
:100E10003B737F23BB73FFF785FD7862796A1348C4
:100E20000AF0AAFD7B6A9BB23B8307F10C031846CC
:100E300009F0A0F801F09CFC002101200AF0ECFA76
:100E40000EE0FB691B78012B06D109480AF094FDDE
:100E50007B6800221A7003E006480AF08DFD00BF8F
:100E60002837BD4680BD00BFE8CC000804CD00088F
:100E700028CD00085CCD000880B500AF002003F04D
:100E800025F9012003F022F9022003F01FF90120C7
:100E900003F056F900BF80BD80B500AF01210020EE
:100EA00003F082F90121012003F07EF901210220E3
:100EB00003F07AF900BF80BD80B584B000AF7860E0
:100EC00003F0C6FAB8607B68FB60FB68B3F1FF3FD4
:100ED0000AD003F0D5FA03461A46FB681344FB60B8
:100EE00002E0FFF78FFD30BF03F0B2FA0246BB68A5
:100EF000D31AFA689A42F4D800BF00BF1037BD4633
:100F000080BD80B500AF4FF0FF300AF0B5FA00BFEA
:100F100080BD80B400AF00BFBD465DF8047B704764
:100F200080B582B000AF786039604FF0FF300AF0D2
:100F3000A3FA00BF0837BD4680BD80B582B000AFC0
:100F4000786000214FF480700AF0B6FB00BF0837CC
:100F5000BD4680BD80B582B000AF786002200AF047
:100F600017FC00BF0837BD4680BD80B582B000AF1A
:100F7000786002200AF02CFC00BF0837BD4680BD17
:100F800080B582B000AF0346FB80FB88102B06D0F3
:100F9000102B0DDC012B05D0022B06D008E001F050
:100FA00057FE06E001F064FE03E001F068FE00E099
:100FB00000BF00BF0837BD4680BD000080B483B0CD
:100FC00000AF7860064BD3F8802005497B68134357
:100FD000C1F8803000BF0C37BD465DF8047B704718
:100FE0000008005880B483B000AF7860054B1A68E1
:100FF00004497B6813430B6000BF0C37BD465DF8A6
:10100000047B70470008005880B483B000AF0D4BDC
:101010009B6A9BB27B600B4B9B6A9BB23B6005E07B
:101020003B687B60074B9B6A9BB23B607A683B687E
:101030009A42F5D13B6818460C37BD465DF8047BF3
:10104000704700BF0028004080B485B000AF034661
:101050000A46FB711346BB71BA791D4913465B0002
:101060001344DB000B4415331B78FB73FB7B062B0F
:1010700009D0FA7B164913465B001344DB000B448E
:101080001433FA791A70FA79114913465B00134444
:10109000DB000B441533FA7B1A70FA790C491346BE
:1010A0005B001344DB000B441433BA791A70BA792D
:1010B000074913465B001344DB000B441533FA79F0
:1010C0001A7000BF1437BD465DF8047B704700BF3F
:1010D0009C00002080B485B000AF03460A46FB7137
:1010E0001346BB71294B1B78DBB2BA799A4232D0D6
:1010F000BA79274913465B001344DB000B441433D1
:101100001B78FB73FA7B224913465B001344DB0018
:101110000B441533FA791A70FA791D4913465B00AE
:101120001344DB000B441533BA791A70FA79184965
:1011300013465B001344DB000B441433FA7B1A7034
:10114000BA79134913465B001344DB000B44143394
:10115000FA791A7014E0FA790D4913465B001344CA
:10116000DB000B441533BA791A70BA790849134673
:101170005B001344DB000B441433FA791A7000BF90
:101180001437BD465DF8047B704700BF2C0100207A
:101190009C00002080B584B000AF0346FB714E4B2D
:1011A0001B78DBB2062B18D14B4B1B78DAB24B4BBA
:1011B0001A70494AFB791370FA79494913465B0062
:1011C0001344DB000B44153306221A70454B4FF0D5
:1011D000FF321A600023FB8178E000F009F9034632
:1011E000FB81FA793E4913465B001344DB000B4454
:1011F00008331968FB89FA791944394813465B00AA
:101200001344DB00034408331960FA793449134668
:101210005B001344DB000B4408331B68BB602E4BA0
:101220001B78DBB219462E4A0B465B000B44DB00F1
:10123000134408331B68BA689A4237D3264B1B788D
:101240007B737A7B264913465B001344DB000B4417
:1012500015331B783B7313E07A7B214913465B00FF
:101260001344DB000B4415331B787B737A7B1C49DA
:1012700013465B001344DB000B4415331B783B73B0
:101280003B7B062B0BD03A7B154913465B0013447E
:10129000DB000B4408331B68BA689A42DCD27A7BC5
:1012A000FB7911461846FFF7CFFE0FE00A4B1B787B
:1012B000DAB2FB7911461846FFF70CFF064B1B7894
:1012C000DAB2064B1A70044AFB791370FB89184690
:1012D0001037BD4680BD00BF2C0100202D0100202D
:1012E0009C0000203001002080B485B000AF034690
:1012F0000A46FB711346BB71394B1B78DBB2FA7996
:101300009A4211D1364B1B78DAB2364B1A70FA7901
:10131000354913465B001344DB000B4415331B783F
:10132000DAB22F4B1A703EE0FA792F4913465B0070
:101330001344DB000B4414331B78FB73FA792A49FE
:1013400013465B001344DB000B4415331B78BB735F
:10135000F979FA7B24480B465B000B44DB0003441D
:1013600015331B78D8B2204913465B001344DB00C9
:101370000B44153302461A70BB7B062B13D0F97948
:10138000BA7B19480B465B000B44DB000344143363
:101390001B78D8B2144913465B001344DB000B449E
:1013A000143302461A70FA790F4913465B0013444E
:1013B000DB000B440C3301221A70094B1B78DBB2A3
:1013C000062B07D1BB79002B04D1084B4FF0FF321D
:1013D0001A6000BF00BF1437BD465DF8047B70473C
:1013E0002C0100202D0100209C0000203001002055
:1013F00080B582B000AF1A4B1B68B3F1FF3F26D017
:10140000FFF702FE7860164B1B687A689A4205D88F
:10141000134B1A687B68D31A7B600AE0114B1B8858
:101420001A467B68D31A3B600D4B1B683A6813441D
:101430007B600D4B1B781A467B6802FB03F37B60D5
:101440000A4B1B781A467B68D3407B6001E000237F
:101450007B607B689BB218460837BD4680BD00BFE5
:1014600030010020460200204502002044020020F6
:1014700080B582B000AF0346FB80FB88002B08D10B
:10148000FFF7C2FD0346244A1360032003F08DF9E1
:101490003EE0FB88012B03D8204B1B78012B02D0A8
:1014A000FB88013BFB8000BF1D4B1B681B68DB6892
:1014B00003F00403002BF7D0194B1B681B68DB6893
:1014C000DAB2174B1B681B6862F49062DA60154B46
:1014D0004FF40022DA60032003F075F9124B5B69C8
:1014E0001B0C1B04FA88104913434B61FFF78CFD5A
:1014F0000346094A13600A4B1B681B689A68084B2D
:101500001B681B6842F480629A60AFF3008000BFE2
:101510000837BD4680BD00BF3001002044020020D6
:1015200040020020000800580028004080B584B028
:1015300000AF474B9B6803F48063B3F5806F08D11D
:1015400000BF444B1B681B68DB6803F00403002BDF
:10155000F7D1404B1B681B689A683E4B1B681B68A1
:1015600022F480629A603C4B1B78FB73FA7B3B4908
:1015700013465B001344DB000B4408331B68BB605D
:10158000FFF736FF0346FB80FB88BA689A4205D214
:101590000023BB81324B01221A704DE0FB88314A97
:1015A000128892B213441A46BB68934206D92D4B57
:1015B0001B88BB812A4B00221A703DE0BB689AB29F
:1015C000FB88D31ABB81264B01221A7034E0FA7BC8
:1015D000224913465B001344DB000B4408331A68AE
:1015E000FB889A420AD2FA7B1C4913465B001344DB
:1015F000DB000B44083300221A6013E0FA7B174922
:1016000013465B001344DB000B4408331968FB8866
:10161000FA7BC91A114813465B001344DB000344EC
:1016200008331960FA7B0D4913465B001344DB0055
:101630000B4415331B78FB73FB7B062BC7D1BB898F
:101640001846FFF715FF00BF1037BD4680BD00BF2D
:1016500000280040400200202C0100209C000020B7
:10166000340100204802002080B58AB000AFEFF3BB
:1016700010837B617B697B6272B600BF5F4B1B6826
:101680001B68CA225A625D4B1B681B6853225A6250
:101690005A4B1B681B689A68584B1B681B6822F4DE
:1016A00080629A60564B1B7887F8233097F8232086
:1016B000544913465B001344DB000B440C331B7886
:1016C000DBB2022B72D197F823204E4913465B0000
:1016D0001344DB000B441B68FB6197F82320494946
:1016E00013465B001344DB000B4410331B68BB61E3
:1016F000454B1B78DBB2002B50D097F82320414993
:1017000013465B001344DB000B440D331B78DBB244
:10171000012B26D197F8233001211846FFF7E4FD6D
:101720007B6A3B613B6983F3108800BF97F82320F5
:10173000344913465B001344DB000B4404331A683E
:1017400097F823301146184600F04EFA2B4B1B68D1
:101750001B68CA225A62294B1B681B6853225A62B3
:1017600014E07B6AFB60FB6883F3108800BF97F886
:101770002330184600F0ACF9204B1B681B68CA22C6
:101780005A621E4B1B681B6853225A6297F823301B
:10179000FA691946B86900F0AFFA25E0FFF7C6FE0E
:1017A0007B6ABB60BB6883F310881DE000BF134BEE
:1017B0001B681B68DB6803F00403002BF7D00F4B9A
:1017C0001B681B68DB68DAB20C4B1B681B6862F491
:1017D0009062DA600D4B4FF40022DA607B6A7B6026
:1017E0007B6883F3108800BF044B1B681B68FF22D3
:1017F0005A6200BF2837BD4680BD00BF40020020AE
:101800002C0100209C00002034010020000800581A
:1018100080B588B000AF03463960FB71644A3B680D
:101820001360634B1B681B68CA225A62604B1B68BB
:101830001B6853225A625F4B9B685E4A43F0200349
:1018400093605C4B9B68DBB203F00703DBB2C3F130
:101850000403DAB2584B1A70564B1B6903F4FE03AB
:101860004FF4FE023A613A6992FAA2F2FA60FA681B
:101870007A617A69002A01D1202203E07A69B2FAFA
:1018800082F2D2B2D340DBB20133DAB24B4B1A70E0
:10189000484B1B699BB2C3F30E039BB201339AB250
:1018A000474B1A80464B1B88013B444A127802FB87
:1018B00003F3A3F5A073404A1278D340BB61BB6920
:1018C0004FF6FE72934204D93E4B4FF6FF721A80D8
:1018D00003E0BB699AB23B4B1A804FF40020FFF73C
:1018E00081FB4FF40020FFF769FBFB79002B43D10C
:1018F000354B01221A70354B4FF0FF321A6000232E
:10190000FB770CE0FA7F324913465B001344DB009F
:101910000B440C3300221A70FB7F0133FB77FB7FF3
:10192000052BEFD92B4B06221A70214B1B681B6825
:101930009A681F4B1B681B6822F480629A601C4BDC
:101940001B681B68DB68DAB2194B1B681B6862F402
:101950009062DA60204B4FF40022DA60032002F03C
:1019600032FF134B1B681B689A68114B1B681B687E
:1019700042F480429A600AE00D4B1B681B68DB68EA
:1019800003F48063002B02D0032002F00EFF084B0B
:101990001B681B68FF225A6200220321032002F009
:1019A000C2FE032002F0D9FE00BF2037BD4680BD35
:1019B0004002002000280040440200204502002090
:1019C000460200204802002034010020300100209F
:1019D0009C0000202C0100200008005880B48BB02F
:1019E00000AFF860B9603B601346FB71002387F8D5
:1019F0002630EFF31083FB61FB693B6272B600BFD8
:101A000004E097F82630013387F8263097F826301F
:101A1000052B0CD897F826202C4913465B0013445D
:101A2000DB000B440C331B78DBB2002BE9D197F8B9
:101A30002630062B38D097F82620244913465B0021
:101A40001344DB000B440C3301221A703B6ABB6168
:101A5000BB6983F3108800BF97F826201B49134603
:101A60005B001344DB000B441033FA681A6097F8EC
:101A70002620164913465B001344DB000B440D334C
:101A8000FA791A7097F82620104913465B00134420
:101A9000DB000B443A681A60BB6897F826201A707E
:101AA000002387F8273008E03B6A7B617B6983F37A
:101AB000108800BF012387F8273097F82730184691
:101AC0002C37BD465DF8047B704700BF9C000020AA
:101AD00080B586B000AF0346FB71EFF31083FB6067
:101AE000FB687B6172B600BF032002F044FE384BF6
:101AF0001B681B68CA225A62354B1B681B6853223D
:101B00005A62FA79334913465B001344DB000B44F5
:101B10000C331B78DBB2022B48D1FB79002118462D
:101B2000FFF7E2FB2C4B1B78FB74FB7C062B35D1BB
:101B30002A4B9B6803F48063B3F5806F08D100BF24
:101B4000234B1B681B68DB6803F00403002BF7D1F1
:101B50001F4B1B681B689A681D4B1B681B6822F48F
:101B600080629A6000BF1A4B1B681B68DB6803F039
:101B70000403002BF7D0164B1B681B68DB68DAB236
:101B8000134B1B681B6862F49062DA60144B4FF4CD
:101B90000022DA60032002F016FE07E0114B1B78EA
:101BA000DBB2FA7C9A4201D0FFF7C0FC084B1B68FD
:101BB0001B68FF225A62032002F0CFFD7B69BB60E5
:101BC000BB6883F3108800BF00BF1837BD4680BDD7
:101BD000400200209C0000202C0100200028004032
:101BE000000800582D01002080B586B000AF0346E4
:101BF0003960FB71FA793C4913465B001344DB0002
:101C00000B440C331B78DBB2022B03D1FB79184653
:101C1000FFF75EFFEFF31083FB60FB687B6172B63A
:101C200000BF032002F0A7FD304B1B681B68CA22CF
:101C30005A622E4B1B681B6853225A62FA792A4952
:101C400013465B001344DB000B440C3302221A7072
:101C5000FA79254913465B001344DB000B44083333
:101C60003A681A60FA79204913465B001344DB0096
:101C70000B4404333A681A60FB791846FFF78AFA76
:101C800003467B821A4B1B787B741A4B1B78DBB2A2
:101C90007A7C9A4202D0FFF749FC13E0FA791249A4
:101CA00013465B001344DB000B44083319687B8A3E
:101CB000FA79C91A0C4813465B001344DB0003444D
:101CC00008331960094B1B681B68FF225A62032006
:101CD00002F043FD7B69BB60BB6883F3108800BFE3
:101CE00000BF1837BD4680BD9C0000204002002088
:101CF0002C0100202D01002080B584B000AFF860D9
:101D00000B467A60FB727B68984700BF1037BD4670
:101D100080BD000080B586B000AFB9607B6003462F
:101D2000FB731346BB810023FB750023BB75FB7B54
:101D3000002B0ED1174A7B681360174B174A1A60A5
:101D4000BB891A46B968144805F024FB0346FB75A5
:101D500000E000BFFB7D032B16D801A252F823F050
:101D6000711D0008771D00087D1D0008831D0008F7
:101D70000023BB7509E00123BB7506E00223BB7598
:101D800003E00323BB7500E000BFBB7D1846183796
:101D9000BD4680BD4C0200201C03002000380140DD
:101DA00080B582B000AF78607B681B681A46094B2B
:101DB0009A4207D1084B1B68002B05D0064B1B68C5
:101DC000984701E000BF00E000BF00BF0837BD46F4
:101DD00080BD00BF003801404C02002080B483B0B9
:101DE00000AF78604FF0B043D3F8903023F0180282
:101DF0004FF0B0417B681343C1F8903000BF0C37FF
:101E0000BD465DF8047B704780B485B000AF786054
:101E10004FF0B0439A6C4FF0B0417B6813438B6432
:101E20004FF0B0439A6C7B681340FB60FB6800BFC7
:101E30001437BD465DF8047B704780B485B000AFB1
:101E400078604FF0B043DA6C4FF0B0417B681343D9
:101E5000CB644FF0B043DA6C7B681340FB60FB68E7
:101E600000BF1437BD465DF8047B704780B500AFF6
:101E700002F080FAFEF706FE00F012F800F06CF8AF
:101E800000F08AF800F043F900F024F900F0E6F8D9
:101E900000F0ECF8FEF704FEFFF733F8FCE7000073
:101EA00080B59AB000AF07F1200348220021184600
:101EB00009F05AFD3B1D00221A605A609A60DA60F0
:101EC0001A615A619A6103F049FA0020FFF786FF10
:101ED000204B1B6823F4C0631E4A43F40073136055
:101EE0001C4B1B6803F4C0633B603B6807233B62E9
:101EF0004FF480337B620123BB624FF48073FB623B
:101F000040233B630023FB6407F12003184603F0E2
:101F1000B9FD0346002B01D000F006F96F237B606A
:101F20000223BB600023FB6000233B6100237B6135
:101F30000023BB610023FB613B1D0121184604F017
:101F400015F90346002B01D000F0EEF800BF68370A
:101F5000BD4680BD0004005880B594B000AF3B463C
:101F600050220021184609F0FFFC4FF440533B601B
:101F70004FF480437B640223BB641023FB643B4625
:101F8000184604F030FD0346002B01D000F0CCF8D9
:101F900000BF5037BD4680BD80B500AF064B074A35
:101FA0001A60054803F054F90346002B01D000F0F5
:101FB000BBF800BF80BD00BF50020020000C0058DD
:101FC00080B500AF234B244A1A60224B4FF4E13214
:101FD0005A60204B00229A601E4B0022DA601D4B93
:101FE00000221A611B4B0C225A611A4B00229A6183
:101FF000184B4FF40042DA61164B00221A62154B5F
:1020000000225A62134B00229A62124805F072F9BC
:102010000346002B01D000F087F800210D4806F0A0
:1020200038FB0346002B01D000F07EF80021094860
:1020300006F06DFB0346002B01D000F075F8054853
:1020400006F0EEFA0346002B01D000F06DF800BF59
:1020500080BD00BF1C0300200038014080B400AFE9
:1020600000BFBD465DF8047B7047000080B500AF3F
:10207000164B174A1A60154B00225A60134B0F2259
:102080009A60124B47F6FF72DA60104B00221A6119
:102090000E4B00229A610D4B0022DA610B4B00229D
:1020A0005A610A4804F026FF0346002B01D000F0D5
:1020B0003BF800220021054805F00AF80346002BF2
:1020C00001D000F031F800BF80BD00BF6C040020DB
:1020D0000028004080B500AF0420FFF795FE0220E5
:1020E000FFF792FE0120FFF78FFE00220F210E2046
:1020F00002F019FB0E2002F030FB00220F213A20E3
:1021000002F011FB3A2002F028FB00BF80BD80B531
:1021100000AF0420FFF791FE0120FFF78EFE0220A2
:10212000FFF78BFE00BF80BD80B400AF00BFBD468F
:102130005DF8047B704780B400AF4FF0B043D3F834
:1021400090304FF0B04243F40043C2F8903000BFEB
:10215000BD465DF8047B704780B485B000AF786001
:102160004FF0B043DA6C4FF0B0417B681343CB645F
:102170004FF0B043DA6C7B681340FB60FB6800BF34
:102180001437BD465DF8047B704780B485B000AF5E
:1021900078604FF0B0431A6D4FF0B0417B68134345
:1021A0000B654FF0B0431A6D7B681340FB60FB6812
:1021B00000BF1437BD465DF8047B704780B485B01E
:1021C00000AF78604FF0B0439A6D4FF0B0417B683C
:1021D00013438B654FF0B0439A6D7B681340FB60EF
:1021E000FB6800BF1437BD465DF8047B704780B4C0
:1021F00085B000AF78604FF0B043DA6D4FF0B0417A
:102200007B681343CB654FF0B043DA6D7B681340B6
:10221000FB60FB6800BF1437BD465DF8047B704768
:1022200080B485B000AF78604FF0B0431A6E4FF0C5
:10223000B0417B6813430B664FF0B0431A6E7B6866
:102240001340FB60FB6800BF1437BD465DF8047B9C
:10225000704780B500AF4FF40020FFF796FF0022D3
:1022600000212E2002F05FFA2E2002F076FA00BF45
:1022700080BD000080B582B000AF78607B681B68CD
:102280000D4A934213D14FF48010FFF77EFF0022D6
:1022900000212C2002F047FA2C2002F05EFA0022E6
:1022A00000212D2002F03FFA2D2002F056FA00BF47
:1022B0000837BD4680BD00BF000C005880B5A0B0F7
:1022C00000AF786007F16C0300221A605A609A60D0
:1022D000DA601A6107F10C0350220021184609F058
:1022E00043FB7B681B68684A93426ED10223FB6004
:1022F0000023BB6207F10C03184604F074FB03468D
:10230000002B01D0FFF710FF0120FFF770FF012025
:10231000FFF722FF0C23FB6602233B6700237B674A
:102320000323BB670823FB6707F16C0319464FF0D3
:10233000904002F0C9FD554B554A1A60534B11228B
:102340005A60524B10229A60504B0022DA604F4B79
:1023500080221A614D4B00225A614C4B00229A6137
:102360004A4B0022DA61494B00221A62474802F0C8
:1023700039FA0346002B01D0FFF7D6FE4FF0885301
:10238000FB6500233B66002387F86430002387F851
:1023900065300123BB6607F15C0319463B4802F038
:1023A00053FD0346002B01D0FFF7BEFE7B68374A82
:1023B0009A67364A7B68936200220021252002F04A
:1023C000B2F9252002F0C9F95AE07B681B68314A4E
:1023D000934255D10123FB6000237B6207F10C037C
:1023E000184604F000FB0346002B01D0FFF79CFECB
:1023F0004FF48040FFF714FF0220FFF7ADFEC0232B
:10240000FB6602233B6701237B670323BB6707232C
:10241000FB6707F16C0319461F4802F055FD1F4B7F
:102420001F4A1A601D4B0F225A601C4B10229A60E3
:102430001A4B0022DA60194B80221A61174B0022D6
:102440005A61164B00229A61144B0022DA61134B39
:1024500000221A62114802F0C5F90346002B01D090
:10246000FFF762FE7B680D4A9A670C4A7B689362AD
:1024700000220021242002F056F9242002F06DF9F8
:1024800000BF8037BD4680BD00800040AC03002007
:102490004400024000380140000400480C040020C1
:1024A0004404024080B596B000AF786007F108039D
:1024B00050220021184609F057FA7B681B68144A1D
:1024C000934220D14FF40063BB604FF48073BB6430
:1024D00007F10803184604F086FA0346002B01D0E2
:1024E000FFF722FEFFF727FE4FF48060FFF766FE3E
:1024F00000220021032002F016F9032002F02DF93A
:10250000786804F0A1FE00BF5837BD4680BD00BF0B
:102510000028004080B400AF00BFBD465DF8047BDA
:10252000704780B400AFFEE780B400AFFEE780B430
:1025300000AFFEE780B400AFFEE780B400AF00BF9D
:10254000BD465DF8047B704780B400AF00BFBD4658
:102550005DF8047B704780B400AF00BFBD465DF8F6
:10256000047B704780B500AF01F05EFF00BF80BD07
:1025700080B500AFFFF778F800BF80BD80B500AF31
:10258000024802F010FB00BF80BD00BFAC0300207A
:1025900080B500AF024804F08FFF00BF80BD00BFD0
:1025A0001C03002080B500AF024804F085FF00BF87
:1025B00080BD00BF8C02002080B500AF01F0F2FBAF
:1025C00000BF80BD80B500AF01F024FC00BF80BD1E
:1025D00080B500AF02F018FE00BF80BD80B500AF2F
:1025E000024802F0E0FA00BF80BD00BF0C040020EA
:1025F00080B500AF102002F0EFFD00BF80BD80B5B8
:1026000000AF012002F0E8FD00BF80BD80B500AF43
:10261000022002F0E1FD00BF80BD80B586B000AFB2
:10262000F860B9607A6000237B610AE0AFF3008054
:102630000146BB685A1CBA60CAB21A707B69013382
:102640007B617A697B689A42F0DB7B6818461837B1
:10265000BD4680BD80B483B000AF78604FF0FF33DB
:1026600018460C37BD465DF8047B704780B483B0D4
:1026700000AF786039603B684FF400525A60002325
:1026800018460C37BD465DF8047B704780B483B0B4
:1026900000AF7860012318460C37BD465DF8047B17
:1026A000704780B485B000AFF860B9607A600023ED
:1026B00018461437BD465DF8047B704780B586B078
:1026C00000AF7860144A154BD31A7B617B693B617C
:1026D000134B1B68002B02D1114B124A1A60104B8E
:1026E0001A687B6813443A699A4207D209F004F9E0
:1026F00003460C221A604FF0FF3309E0084B1B68B9
:10270000FB60074B1A687B681344054A1360FB683B
:1027100018461837BD4680BD000003200010000099
:10272000900400200016002080B400AF034B1B680B
:102730001846BD465DF8047B704700BF8075FF1FDB
:1027400080B400AF034B1B68DBB21846BD465DF892
:10275000047B70478475FF1F80B400AF034B1B6878
:102760001B0A1846BD465DF8047B70478475FF1F41
:10277000B0B590B000AF922387F83F30314B3C1D8D
:102780001D460FCD0FC40FCD0FC40FCD0FC495E85C
:10279000030084E8030000F079FA0121022008F028
:1027A0003BFE294A0021102008F064FF3B1D18461B
:1027B00007F0B2FB034687F83E3097F83E30002B17
:1027C00008D097F83E301946204809F0D5F8FFF7B1
:1027D000ABFC02E01E4809F0CFF800F06DFA08F0FB
:1027E000FFFA1C4A0021012008F044FF1A4A002188
:1027F000022008F03FFF194B002283F880202020A0
:1028000006F0B9FF034687F83F3097F83F30002BBA
:1028100006D097F83F301946114809F0ADF802E0AC
:10282000104809F0A9F80A2009F0BEF800F0DCFC15
:102830000D4B00220D490020FFF7D0F800BF4037B4
:10284000BD46B0BD6CCE0008959B000890CD000839
:10285000C8CD0008C52F000821300008380100202D
:10286000F0CD000834CE00089D300008B9010020EA
:10287000F0B597B006AF78607B680133BB63BB6B84
:1028800002337B630023FB63922387F83330BB6BF7
:102890001B78FF2B09D0FF2B00F3B281052B00F032
:1028A000CB803E2B00F0E680AAE1A44B01221A70F7
:1028B000BB6B0233FB62FB6A1B889BB240F60202D1
:1028C000934230D040F60202934200F3B180042BD1
:1028D00000F0A38040F20742934240F0A980FB6AD7
:1028E00002337B627B6A1B78022B40F0A3807B6AF9
:1028F0005B78002B40F09E80002001F03BFC90486C
:1029000009F03AF88F4B93F88230012B40F0928017
:102910008C4B93F88030062B00F08C800021022035
:1029200008F0CAFE86E0FB6A0233BB62002006F0B4
:1029300022FF034687F8333097F83330002B06D058
:1029400097F833301946804809F016F802E07F48BE
:1029500009F012F8BB6A9A787D4B1A70BB6AB3F81B
:1029600003309AB27A4B5A80BB6AB3F805309AB2F8
:10297000774B9A80BB6AB3F807309AB2744BDA800F
:10298000BB6AB3F809309AB2714B1A81BB6AB3F8CB
:102990000B309AB26E4B5A816A4BD88A6C4B99882D
:1029A0006B4BDC886A4B1D89694B5B89684A1278DE
:1029B00001260496039210220292102201920093A3
:1029C0002B46224606F04FFF034687F8333097F830
:1029D0003330002B09D097F8333019465D4808F0A2
:1029E000CBFF022001F0ACFB02E05B4808F0C4FF23
:1029F000202006F0C0FE034687F8333097F83330C6
:102A0000002B06D097F8333019464F4808F0B4FF32
:102A100011E04E4808F0B0FF0DE0012001F090FBFE
:102A2000484B93F881300A211846FFF7DDF802E0A1
:102A300000BFE8E000BFE6E07B6BB3F801309AB27C
:102A4000404BDB8A9A4240F0DD803E4B0022DA8226
:102A50003C4B002283F88020404808F08DFF374B24
:102A600001221A70374BDA8A344B5A80334800F00F
:102A700001FCC7E0BB6B02333B623B6A1B78012B56
:102A800002D0022B2FD0BAE03B6A0133FB60FB6817
:102A9000B3F801309AB22B4BDA822A4B062283F824
:102AA00080202F4808F068FF244B00221A70254B25
:102AB000DA8A224B5A80214800F0DCFB214BDB8A6A
:102AC000184606F0D7FA0346FB72FB7A002B06D1B4
:102AD000244808F051FF244808F04EFF8FE02348B7
:102AE00008F04AFF8BE03B6A0133FB61FB695B78CE
:102AF000FB76FB695B7ABB76FB69093301337B614B
:102B00000023FB63FB7E002B78D173E0FB6B7A69BB
:102B100013441B78FB74FB6B01337A6913441B78F5
:102B2000BB74BB7CFF2B23D0FF2B59DC162B59D059
:102B3000162B55DC012B57D00A2B56E0A40400209D
:102B4000A4CE000838010020F0CD000834CE0008E3
:102B5000A8040020D4CE000824CF000864CF0008C9
:102B600090CF0008B8CF0008ECCF00081CD00008B8
:102B7000FB7C062B30D9FB6B02337A6913441B783C
:102B8000012B29D1224808F0F7FEFB6B03337A6949
:102B900013441B78832B21D11E4808F0EDFE1E4BF9
:102BA000012283F88220FB69DA781C4B1A70FB69DA
:102BB0001A791A4B5A70FB695A79184B9A70FB694B
:102BC0009A79164BDA70FB69DA79144B1A71FB6942
:102BD0001A7A124B5A7102E000BF06E000BF04E00F
:102BE00000BF02E000BF00E000BFFB7C0133FA6BD6
:102BF0001344FB63BB7EFA6B9A4287DB00BF02E0A3
:102C000000BF00E000BF012318464437BD46F0BDB9
:102C10005CD000087CD00008380100209C04002013
:102C200080B483B000AF0346FB80084BDB8AFA8890
:102C30009A4203D1054B93F8803000E000231846F8
:102C40000C37BD465DF8047B704700BF380100209B
:102C500080B500AF00F064FE0346062B04D00021CF
:102C6000012008F029FD01E000F036FB00BF80BD27
:102C700080B400AF00BFBD465DF8047B704780B4F0
:102C800000AF00BFBD465DF8047B704780B582B0E1
:102C900000AF064B3B60064B7B603B461946054840
:102CA00006F05CFF00BF0837BD4680BD280003204A
:102CB000B131000879310008F0B591B006AF0023BA
:102CC000BB80922387F82730A84808F055FE06F00D
:102CD000A6FD034687F8273097F82730002B06D04B
:102CE00097F827301946A24808F046FE02E0A148AE
:102CF00008F042FE00F0DAF938623A6A0621002054
:102D000006F04DFC034687F8273097F82730002B54
:102D100006D097F827301946974808F02DFE02E0B4
:102D2000964808F029FE4EF66E53FB60FFF7FCFC58
:102D30000346BB6007F108031A4606212E2006F061
:102D40002EFC034687F8273097F82730002B06D053
:102D500097F827301946884808F00EFE02E08748A9
:102D600008F00AFE864A1021182006F018FC0346D7
:102D700087F8273097F82730002B06D097F82730B0
:102D800019467D4808F0F8FD02E07C4808F0F4FDA3
:102D90007C4A1021082006F002FC034687F8273001
:102DA00097F82730002B06D097F82730194672483D
:102DB00008F0E2FD02E0714808F0DEFD1821012074
:102DC00006F072FC034687F8273097F82730002B6F
:102DD00006D097F8273019466B4808F0CDFD02E081
:102DE0006A4808F0C9FD06F077F8034687F82730EF
:102DF00097F82730002B06D097F8273019466448FB
:102E000008F0BAFD02E0634808F0B6FD0023FB7746
:102E1000FB7F43F00403FB77FB7F002B2FD05E4B3F
:102E2000BB6107F11602F87F07F11203019307F166
:102E30001403009313460722002105F00DFE0346FC
:102E400087F8273097F82730002B06D097F82730DF
:102E50001946524808F090FD02E0514808F08CFDF8
:102E6000FC8ABD8AB869FDF78BF90346DAB2BB6903
:102E70000093134600222946204606F052F8F88AAD
:102E8000798A3B1D00930223002206F04AF8454B45
:102E900001221A70434B1B78184605F0C5FC034607
:102EA00087F8273097F82730002B06D097F827307F
:102EB00019463D4808F060FD02E03C4808F05CFD22
:102EC000384B01225A70374B08221A71354B1022A9
:102ED0005A71344B0122DA70324B354A9A60314BC9
:102EE00001229A702F4B9C782E4B5D782D4B1B79CD
:102EF0002C4A52792B49C9782A48806800260496C2
:102F0000039002910192009300230122294620465A
:102F100005F0DEFC034687F8273097F82730002BB2
:102F200006D097F827301946224808F025FD02E020
:102F3000214808F021FD1B4B9B78002B12D005F097
:102F400038FE034687F8273097F82730002B06D045
:102F500097F827301946194808F00EFD02E0184886
:102F600008F00AFD00BF2C37BD46F0BDA0D0000818
:102F7000C8D00008F8D0000818D1000858D10008BF
:102F800038D9000848D9000888D10008C8D10008FD
:102F9000F8D100082CD2000850D2000858D20008FE
:102FA0008CD2000838010020B0D20008F0D200080E
:102FB00007B2010020D300086CD30008A8D3000892
:102FC000E8D3000880B582B000AF124B93F8803090
:102FD000062B1AD0002001F0B3F8012300224FF491
:102FE00048714FF4487005F008FE0346FB71FB7909
:102FF000002B03D1084808F0BFFC06E0022001F0D6
:103000009FF8064808F0B8FC00BF00BF0837BD466F
:1030100080BD00BF380100201CD400084CD400083B
:1030200080B58AB008AF1A4808F0A6FC194B93F88F
:103030008030062B28D010230693102305934FF4DD
:10304000FA730493002303935023029328230193DC
:1030500000230093104B00224FF448714FF4487046
:1030600005F05FFE0346FB71FB79002B04D1094B91
:10307000042283F8802007E0022001F061F8054B6C
:10308000002283F8802000BF00BF0837BD4680BD06
:103090007CD40008380100209C04002080B500AFDB
:1030A000012001F067F800BF80BD000080B586B048
:1030B00000AFFFF739FB38613B69B3F1FF3F23D025
:1030C000FFF74AFBB860FFF73BFB78603B69DAB279
:1030D000164B1A703B691B0ADAB2144B5A707B68A4
:1030E000DAB2124B9A70BB68DAB2104BDA70BB6876
:1030F0001B0ADAB20D4B1A71BB681B0CDAB20B4B10
:103100005A710A4B7B610BE0002006F0DDFEF8608F
:10311000FB68002B02D0FB687B6101E0044B7B6104
:103120007B6918461837BD4680BD00BF9404002057
:1031300030D9000880B582B000AF7860002110203F
:1031400008F0BAFA00BF0837BD4680BD80B582B02E
:1031500000AF7860012008F01BFB00BF0837BD46B8
:1031600080BD80B582B000AF7860012008F030FBF0
:1031700000BF0837BD4680BD80B584B000AF786021
:103180007B68FB60FB685B680833184607F07AFED3
:103190000346FB72FB7A002B03D0FB6801221A70F6
:1031A00003E0FB6800221A7000BF1037BD4680BDE7
:1031B00080B584B000AF0346FB71FB79002B02D0D1
:1031C000012B06D00BE0FF23FB60F86808F0A0FAA3
:1031D00005E0FF23FB60F86808F0BAFA00BF00BF03
:1031E0001037BD4680BD000080B582B000AF00231F
:1031F000FB711A4A0021042008F03CFA184A002109
:10320000202008F037FA174B00221A70154B0022C5
:10321000DA80144B00225A70124B00229A70114B24
:103220000122DA700F4B00221A710023FB7108E0B3
:10323000FB790D4A1B01134400221A70FB790133FC
:10324000FB71FB79002BF3D0084807F001FE08481A
:1032500008F02EFC00BF0837BD4680BDF5390008D8
:10326000AD390008CC010020BC010020E932000883
:10327000A8D4000880B584B000AF78607B681B7864
:10328000002B02D0012B05D01EE07B685A88104B22
:10329000DA8019E00023FB730D4B0022DA8005E091
:1032A000FB7B0C4A1B01134400221A70FB7B002B92
:1032B00006D1FB7B074A1B0113441B78002BEFD17F
:1032C000002000F057FF00BF00BF1037BD4680BD93
:1032D000CC010020BC01002080B500AF00212020DF
:1032E00008F0EAF900BF80BD80B594B000AF786007
:1032F000002387F845307B6801333B643B6C1B78C7
:10330000FF2B40F0B7823B6C0233FB63FB6B1B88E7
:103310009BB2A3F604430C2B00F2A08201A252F848
:1033200023F000BF693600085D3800080F3500083B
:103330005D3800085D3800085D3800085933000822
:103340005D3800085D3800085D3800085D38000809
:103350008537000807380008FB6B02333B633B6B83
:103360001A785B781B021343FB85002387F84D30E6
:103370002EE097F84D30B84A1B01134402331B88E6
:103380001846FFF74DFC034687F82D3097F84D306F
:10339000B14A1B0113441B78062B14D197F82D302A
:1033A000002B10D197F84D30AB4A1B01134400227B
:1033B0001A7097F84D30A84A1B01134402334FF698
:1033C000FF721A8010E097F84D30013387F84D30C6
:1033D00097F84D30002B07D197F84D309E4A1B01CE
:1033E00013441B78002BC4D197F84D30002B40F0CC
:1033F000378297F84D30984A1B0113440233FA8DF7
:103400001A803B6BDA783B6B9B78B2FBF3F387F85F
:103410002C303B6B9B78142B40F02282102387F8D2
:103420004E30002387F84F306AE097F84E303A6B01
:1034300013441B799AB297F84E30396B0B4404331E
:1034400001331B789BB21B029BB213437B857B8DA0
:103450004FF64062934249D197F84D307E4A1B01A6
:10346000134402331B8819467C4808F085FA97F804
:103470004E30103B3A6B13441B7999B297F84E309B
:10348000103B3A6B1344043301331B789BB21B028D
:103490009AB297F84D300A4391B26F4A1B01134418
:1034A00004330A461A8097F84E300E3B3A6B1344A9
:1034B0001B7999B297F84E300E3B3A6B13440433A4
:1034C00001331B789BB21B029AB297F84D300A4326
:1034D00091B2614A1B01134406330A461A8097F8D9
:1034E0004D305D4A1B01134408221A7097F84E3084
:1034F000063387F84E3097F84F30013387F84F3056
:1035000097F84F2097F82C309A428ED3A8E1FB6BA6
:1035100002337B62002387F84B3004E097F84B308E
:10352000013387F84B3097F84B30002B0BD197F8CD
:103530004B30494A1B01134402331A887B6A1B88AB
:103540009BB29A42EAD197F84B30002B40F08A8127
:10355000112387F84C307B6A9B78152B40F08281D1
:103560007B6ADB78013BDAB27B6ADA706FE097F84E
:103570004C307A6A13441B799AB297F84C30796AC6
:103580000B44043301331B789BB21B029BB21343E1
:103590007B8497F84C300E3B7A6A13441B799AB2BD
:1035A00097F84C300E3B796A0B44043301331B7897
:1035B0009BB21B029BB213433B847B8C4FF6416250
:1035C00093421AD197F84B30234A1B01134402331C
:1035D0001B881946224808F0CFF997F84B301E4A4D
:1035E0001B01134409221A7097F84B301A4A1B0129
:1035F000134408333A8C1A801EE07B8C4FF64262EB
:10360000934219D197F84B30134A1B0113440233EC
:103610001B881946134808F0AFF997F84B300E4A4B
:103620001B0113440A221A7097F84B300A4A1B01F7
:1036300013440C333A8C1A807B6ADB78153BDAB280
:103640007B6ADA7097F84C30153387F84C307B6A18
:10365000DB78002B8BD105E1BC010020C4D400082D
:1036600000D5000838D50008FB6B0233FB6100234E
:1036700087F8483004E097F84830013387F848303D
:1036800097F84830002B0BD197F848307D4A1B0142
:10369000134402331A88FB691B889BB29A42EAD111
:1036A00097F84830002B40F0DF80FB69DB789B08FF
:1036B000FB76002387F84A30FB699B78012B40F0AA
:1036C000D380002387F8493056E097F84A30FA69EA
:1036D00013441B799AB297F84A30F9690B440433C2
:1036E00001331B789BB21B029BB213433B8397F8B9
:1036F0004A300233FA6913441B799AB297F84A3078
:103700000233F9690B44043301331B789BB21B026B
:103710009BB21343FB82FB8A42F60212934221D1F1
:1037200097F84830574A1B01134402331B88194647
:10373000554808F021F997F84830524A1B011344C4
:103740001B780A2B0ED197F848304E4A1B011344C0
:103750000E333A8B1A8097F848304A4A1B011344BB
:103760000B221A7097F84A30043387F84A3097F8DA
:103770004930013387F8493097F84920FB7E9A4257
:10378000A3D371E0FB6B02337B63002387F84730E0
:1037900004E097F84730013387F8473097F847300F
:1037A000002B0BD197F84730364A1B0113440233E4
:1037B0001A887B6B1B889BB29A42EAD197F84730F4
:1037C000002B53D17B6B5B889AB297F847302D4919
:1037D0001B010B440C331B889A4247D17B6B1B792E
:1037E0001A462A4B1B689A4240D102233B727B6BDC
:1037F0001B793B747B6B0533FB6007F108031846AC
:1038000000F048F832E0FB6B0233BB63204808F05D
:103810004FF90A2008F0C8F8002387F8463004E082
:1038200097F84630013387F8463097F84630002B3A
:103830000BD197F84630134A1B01134402331A8800
:10384000BB6B1B889BB29A42EAD197F84630002B9B
:103850000ED10021042007F02FFF09E000BF0AE08D
:1038600000BF08E000BF06E000BF04E000BF02E0C8
:1038700000BF00E000BF97F8453018465037BD46FE
:1038800080BD00BFBC0100207CD5000808000020DE
:10389000C4D5000880B582B000AF78607B681B7823
:1038A000022B2DD17B685B681A78184B5A707B68A5
:1038B0005B681946164808F05FF8144B5B78012BDB
:1038C0001CD17B685B685A78104B9A700F4B9B78C1
:1038D000002B09D1002000F04DFC0E4808F04CF8F8
:1038E0000D4808F049F80AE00C4808F045F80A4885
:1038F00008F042F8002000F023FC00E000BF00E0E8
:1039000000BF00BF0837BD4680BD00BFCC0100200E
:10391000F4D5000808D6000848D600084CD60008A0
:1039200080B400AF034B1B781846BD465DF8047B9E
:10393000704700BFBC01002080B584B000AF0346D3
:103940003A60FB800B467B719223FB730023BB73B1
:103950001BE0FB884FF64162934212D1BB7B124AB7
:103960001B01134402331888BB7B0F4A1B0113440D
:10397000083319883B68022205F075FD0346FB7386
:1039800000E000BFBB7B0133BB73BB7B002B06D1C8
:10399000BB7B054A1B0113441B78002BD9D1FB7B51
:1039A00018461037BD4680BDBC01002080B500AF71
:1039B0000C4807F0E1FF0C4807F0DEFF0B4B1B79CA
:1039C000002B03D1094B01221A7102E0074B0022A0
:1039D0001A71074A00214FF64160FFF7ADFF00BFA3
:1039E00080BD00BF8CD6000848D60008CC0100205E
:1039F000CF01002080B582B000AF0123BB8000233F
:103A00007B800023FB71A5E0FB795A4A1B0113441C
:103A10001B78073B052B00F2998001A252F823F096
:103A2000393A0008413A0008733A0008A93A0008F8
:103A3000DF3A0008193B00084F4808F039F886E0E3
:103A40004E4808F035F8FB794A4A1B01134402330B
:103A50001888FB79474A1B01134404331988FB7902
:103A6000444A1B01134406331B881A4605F05AFBCF
:103A70006DE0434808F01CF8FB793E4A1B011344F3
:103A800002331888FB793B4A1B0113440833198819
:103A9000FB79384A1B01134408331B8802339BB25D
:103AA0001A4605F0C0FB52E0364808F001F8FB79F1
:103AB000304A1B01134402331888FB792D4A1B013D
:103AC00013440C331988FB792A4A1B0113440C3325
:103AD0001B8802339BB21A4605F0A5FB37E02A4843
:103AE00007F0E6FFFB79234A1B01134402331888D1
:103AF000FB79204A1B0113440E3319883B1D022217
:103B000005F012FCFB791B4A1B01134406221A70B4
:103B1000022000F02FFB1AE01C4807F0C9FFFB79D8
:103B2000144A1B01134402331888FB79114A1B0104
:103B300013440E331988BB1C022205F0F5FBFB79F8
:103B40000C4A1B01134406221A7000E000BFFB79E7
:103B50000133FB71FB79002B08D1FB79054A1B016E
:103B600013441B78002B7FF44FAF00BF00BF083712
:103B7000BD4680BDBC010020CCD60008E4D60008BC
:103B80000CD7000848D7000888D70008ACD7000831
:103B900080B400AF054BDB68044A43F40043D360B4
:103BA00000BFBD465DF8047B704700BF00040058AD
:103BB00080B483B000AF7860064BD3F8D4200549B9
:103BC0007B681343C1F8D43000BF0C37BD465DF8A5
:103BD000047B70470008005880B483B000AF786061
:103BE000054B1A6A04497B6813430B6200BF0C370C
:103BF000BD465DF8047B70470008005880B485B06E
:103C000000AF78604FF0B0431A6D4FF0B0417B6861
:103C100013430B654FF0B0431A6D7B681340FB6094
:103C2000FB6800BF1437BD465DF8047B704780B465
:103C300085B000AF78604FF0B043D3F850214FF01B
:103C4000B0417B681343C1F850314FF0B043D3F813
:103C500050217B681340FB60FB6800BF1437BD46F2
:103C60005DF8047B704780B483B000AF78607B68F8
:103C70001B6843F480327B681A6000BF0C37BD4676
:103C80005DF8047B704780B483B000AF78607B68D8
:103C90001B6843F001027B681A6000BF0C37BD4609
:103CA0005DF8047B704780B483B000AF7860396002
:103CB0007B685A683B681B04DB431A407B685A6088
:103CC00000BF0C37BD465DF8047B704780B483B0FD
:103CD00000AF786039607B685A683B681B041A4300
:103CE0007B685A6000BF0C37BD465DF8047B7047A7
:103CF00080B483B000AF786039607B685A683B68F5
:103D0000DB431A407B685A6000BF0C37BD465DF844
:103D1000047B704780B483B000AF786039607B6803
:103D20003A689A6000BF0C37BD465DF8047B704767
:103D300080B483B000AF786039603B681A047B6858
:103D40009A6000BF0C37BD465DF8047B704780B4B5
:103D500083B000AF786039607B68DA683B681340F5
:103D60003A689A4201D1012300E0002318460C373B
:103D7000BD465DF8047B704780B483B000AF7860C7
:103D800039607B68DA693B6813403A689A4201D12E
:103D9000012300E0002318460C37BD465DF8047B84
:103DA0007047000080B500AF02211948FFF7E4FF1B
:103DB0000346002B09D0164B5B68DB4303F002037C
:103DC000002B02D000F0DAF81FE001211048FFF7C5
:103DD000D3FF0346002B08D00D4B5B6803F00103B3
:103DE000002B02D100F08EF80FE008210848FFF701
:103DF000C3FF0346002B09D0054B5B68DB4303F090
:103E00000803002B02D000F005F900BF00BF80BD01
:103E1000000C005880B500AF02211A48FFF797FF49
:103E20000346002B09D1174B5B68DB4303F40033D7
:103E3000002B02D000F096F820E008211148FFF78F
:103E400086FF0346002B09D10E4B5B68DB4303F46E
:103E50000023002B02D000F0BFF80FE0202109481A
:103E6000FFF775FF0346002B09D1064B5B68DB4368
:103E700003F40013002B02D000F050F800BF00BF85
:103E800080BD00BF000C005880B500AF4FF480101B
:103E9000FFF7CDFE4FF40070FFF79EFE4FF4007069
:103EA000FFF786FE40BF20BFFFF772FE00BF80BD58
:103EB00080B500AF4FF48010FFF7A0FE0648FFF773
:103EC000E2FE0548FFF7CFFE2C2000F046FC2D2037
:103ED00000F043FC00BF80BD000C005880B500AF6F
:103EE00001210248FFF704FF00BF80BD000C00580D
:103EF00080B500AF01210248FFF71AFF00BF80BD67
:103F0000000C005880B500AF07F0BCF80121024852
:103F1000FFF700FF00BF80BD000C005880B500AF68
:103F200020210348FFF7D2FE07F0DCF800BF80BD78
:103F3000000C005880B500AF02210248FFF7D8FE00
:103F400000BF80BD000C005880B500AF02210448BE
:103F5000FFF7EEFE02210248FFF7A5FE00BF80BD7D
:103F6000000C005880B500AF02210348FFF7AEFEF9
:103F700007F008F900BF80BD000C005880B500AF05
:103F800007F016F902210248FFF7C4FE00BF80BD0A
:103F9000000C005880B582B000AF786008210C4852
:103FA000FFF7D5FE0346002B07D00A4A7B68136053
:103FB00008210748FFF777FE06E07B68984708214D
:103FC0000348FFF7B5FE00BF0837BD4680BD00BF00
:103FD000000C0058B404002080B500AF082106484A
:103FE000FFF774FE054B1B68984708210248FFF74E
:103FF0009FFE00BF80BD00BF000C0058B40400202D
:1040000080B500AF08210248FFF772FE00BF80BDF7
:10401000000C005880B500AF07F072F90821024883
:10402000FFF778FE00BF80BD000C0058D458C45084
:104030000433C4188C42F9D37047036004308842BB
:10404000FBD370470C48854600F01EF90B480C491D
:104050000C4A0023FFF7EDFF0B480C490023FFF744
:10406000EEFF0B480B490023FFF7E9FF07F04AFC7E
:10407000FDF7FCFEFEE70000000003200800002022
:104080009C000020ECDA000824020020001600202A
:10409000E4010320670A0320FEE780B485B000AF87
:1040A00078604FF0B043DA6C4FF0B0417B68134357
:1040B000CB644FF0B043DA6C7B681340FB60FB6865
:1040C00000BF1437BD465DF8047B704780B588B0EB
:1040D00000AF0346FB7107F10C0300221A605A601F
:1040E0009A60DA601A610220FFF7D7FFFB79124A63
:1040F00032F81330FB6001233B6100237B61022314
:10410000BB61FB790D4A52F8233007F10C021146CE
:10411000184600F0D9FEFB79084A52F82300FB79D3
:10412000054A32F813300022194601F03DF800BF6D
:104130002037BD4680BD00BF58D900080C000020C4
:1041400080B582B000AF0346FB71FB79074A52F895
:104150002300FB79064A32F813300122194601F098
:1041600023F800BF0837BD4680BD00BF0C0000200B
:1041700058D9000880B582B000AF0346FB71FB79C7
:10418000074A52F82300FB79064A32F8133000221E
:10419000194601F009F800BF0837BD4680BD00BFD1
:1041A0000C00002058D9000880B588B000AF034645
:1041B0000A46FB711346BB7107F10C0300221A601B
:1041C0005A609A60DA601A61FB79002B03D10420EF
:1041D000FFF763FF0CE0FB79012B03D10820FFF709
:1041E0005CFF05E0FB79022B02D10820FFF755FFA9
:1041F000BB79002B17D1FB79204A32F81330FB60D2
:1042000000233B6101237B610223BB61FB791C4AD4
:1042100052F8233007F10C021146184600F054FE04
:104220000120FCF749FEBB79012B23D1FB79134A0E
:1042300032F81330FB6001237B614FF404133B61C0
:10424000FB790F4A52F8233007F10C021146184649
:1042500000F03AFEFB790B4AD35C5BB200220F21DF
:10426000184600F060FAFB79064AD35C5BB2184648
:1042700000F073FA00BF2037BD4680BD60D900084A
:104280001800002068D9000880B400AF264B002237
:104290009A60254BD3F88830234A43F47003C2F860
:1042A00088304FF0B0431B684FF0B04243F0010339
:1042B00013604FF0B0434FF4E0229A604FF0B043E8
:1042C0001A684FF0B041194B13400B604FF0B043E8
:1042D000D3F894304FF0B04223F00503C2F8943085
:1042E0004FF0B043D3F898304FF0B04223F00103C1
:1042F000C2F898304FF0B0430D4ADA604FF0B04347
:104300000B4A1A614FF0B0431B684FF0B04223F4E0
:10431000802313604FF0B04300229A6100BFBD4676
:104320005DF8047B704700BF00ED00E0FBFEF6FA8D
:104330000010042280B400AF054B5B68044A43F0D0
:104340000103536000BFBD465DF8047B704700BFAA
:10435000002004E080B400AF054B5B68044A43F0E2
:104360000203536000BFBD465DF8047B704700BF89
:10437000002004E080B582B000AF0023FB710C4B3D
:104380001B680B4A43F480731360032000F0C0F9EC
:10439000002000F00FF80346002B02D00123FB7130
:1043A00001E0FDF756FFFB7918460837BD4680BD92
:1043B0000040005880B584B000AF78600023FB73E4
:1043C000174B1B78002B24D002F07CF80246144BCC
:1043D0001B7819464FF47A73B3FBF1F3B2FBF3F396
:1043E000184600F0D6F90346002B0FD17B680F2B3F
:1043F00009D8002279684FF0FF3000F094F9094A9B
:104400007B68136007E00123FB7304E00123FB7367
:1044100001E00123FB73FB7B18461037BD4680BDCE
:104420002C0000202800002080B400AF064B1B7831
:104430001A46064B1B681344044A136000BFBD466E
:104440005DF8047B704700BF2C000020B8040020FA
:1044500080B400AF034B1B681846BD465DF8047B73
:10446000704700BFB804002080B400AF034B1B6846
:104470001846BD465DF8047B704700BF2800002049
:1044800080B400AF034B1B781846BD465DF8047B33
:10449000704700BF2C00002080B500AFFFF74AFF37
:1044A00000BF80BD80B500AFFFF754FF00BF80BDE7
:1044B00080B485B000AF78607B6803F00703FB60D1
:1044C0000C4BDB68BB60BA684FF6FF031340BB6060
:1044D000FB681A02BB68134343F0BF6343F4003325
:1044E000BB60044ABB68D36000BF1437BD465DF8AB
:1044F000047B704700ED00E080B400AF044BDB6844
:104500001B0A03F007031846BD465DF8047B70479D
:1045100000ED00E080B483B000AF0346FB7197F973
:104520000730002B0BDBFB7903F01F02074997F9DB
:1045300007305B09012000FA02F241F8232000BF96
:104540000C37BD465DF8047B704700BF00E100E01A
:1045500080B483B000AF0346FB7197F90730002B9E
:1045600012DBFB7903F01F020A4997F907305B0958
:10457000012000FA02F2203341F82320BFF34F8FCD
:1045800000BFBFF36F8F00BF00BF0C37BD465DF8A3
:10459000047B704700E100E080B483B000AF0346C5
:1045A000FB7197F90730002B0CDBFB7903F01F023E
:1045B000074997F907305B09012000FA02F24033FE
:1045C00041F8232000BF0C37BD465DF8047B7047DF
:1045D00000E100E080B483B000AF0346FB7197F9BF
:1045E0000730002B0CDBFB7903F01F02074997F91A
:1045F00007305B09012000FA02F2603341F8232002
:1046000000BF0C37BD465DF8047B704700E100E059
:1046100080B483B000AF03463960FB7197F907306F
:10462000002B0ADB3B68DAB20C4997F9073012011C
:10463000D2B20B4483F800230AE03B68DAB208499F
:10464000FB7903F00F03043B1201D2B20B441A763C
:1046500000BF0C37BD465DF8047B704700E100E009
:1046600000ED00E080B489B000AFF860B9607A6016
:10467000FB6803F00703FB61FB69C3F10703042B2D
:1046800028BF0423BB61FB690433062B02D9FB69F5
:10469000033B00E000237B614FF0FF32BB6902FA6D
:1046A00003F3DA43BB681A407B699A404FF0FF314D
:1046B0007B6901FA03F3D9437B680B401343184627
:1046C0002437BD465DF8047B7047000080B582B09A
:1046D00000AF78607B68013BB3F1807F01D3012399
:1046E0000FE00A4A7B68013B53600F214FF0FF3017
:1046F000FFF78EFF054B00229A60044B07221A60D9
:10470000002318460837BD4680BD00BF10E000E01A
:1047100080B582B000AF78607868FFF7C9FE00BF4F
:104720000837BD4680BD80B586B000AF0346B9608E
:104730007A60FB73FFF7E0FE78617A68B9687869A0
:10474000FFF790FF024697F90F3011461846FFF722
:104750005FFF00BF1837BD4680BD80B582B000AF97
:104760000346FB7197F907301846FFF7D3FE00BFE9
:104770000837BD4680BD80B582B000AF0346FB71EF
:1047800097F907301846FFF7E3FE00BF0837BD462C
:1047900080BD80B582B000AF78607868FFF796FF83
:1047A000034618460837BD4680BD80B582B000AFCD
:1047B0000346FB7197F907301846FFF7EDFE00BF7F
:1047C0000837BD4680BD80B582B000AF0346FB719F
:1047D00097F907301846FFF7FDFE00BF0837BD46C2
:1047E00080BD000080B584B000AF78607B68002B8E
:1047F00001D101238EE07B681B681A46474B9A4221
:104800000FD87B681B681A46454B1344454AA2FBE8
:1048100003231B099A007B685A647B68424A1A6426
:104820000EE07B681B681A46404B13443D4AA2FBCE
:1048300003231B099A007B685A647B683C4A1A640C
:104840007B68022283F825207B681B681B68FB605D
:10485000FB6823F4FF4323F07003FB607B689A68D6
:104860007B68DB681A437B681B691A437B685B695A
:104870001A437B689B691A437B68DB691A437B6830
:104880001B6A1343FA681343FB607B681B68FA6872
:104890001A60786800F074FA7B689B68B3F5804F03
:1048A00002D17B6800225A607B685A687B689B6CE7
:1048B00002F03F021A607B68DB6C7A68126D5A6006
:1048C0007B685B68002B10D07B685B68042B0CD87E
:1048D000786800F093FA7B685B6D00221A607B6851
:1048E0009B6D7A68D26D5A6008E07B6800225A6539
:1048F0007B6800229A657B680022DA657B6800226B
:10490000DA637B68012283F825207B68002283F824
:104910002420002318461037BD4680BD07040240FE
:10492000F8FFFDBFCDCCCCCC00000240F8FBFDBFB2
:104930000004024080B586B000AFF860B9607A60CC
:104940003B600023FB75FB6893F82430012B01D1F9
:10495000022366E0FB68012283F82420FB6893F8B9
:104960002530DBB2012B55D1FB68022283F82520CC
:10497000FB680022DA63FB681B681A68FB681B6827
:1049800022F001021A603B687A68B968F86800F0A2
:10499000B9F9FB681B6B002B08D0FB681B681A6811
:1049A000FB681B6842F00E021A600FE0FB681B6890
:1049B0001A68FB681B6822F004021A60FB681B6817
:1049C0001A68FB681B6842F00A021A60FB689B6C5D
:1049D0001B6803F48033002B07D0FB689B6C1A68BC
:1049E000FB689B6C42F480721A60FB685B6D002B65
:1049F00007D0FB685B6D1A68FB685B6D42F48072E0
:104A00001A60FB681B681A68FB681B6842F00102A9
:104A10001A6005E0FB68002283F824200223FB755E
:104A2000FB7D18461837BD4680BD80B483B000AF0B
:104A300078607B68002B01D101234FE07B6893F8FD
:104A40002530DBB2022B08D07B680422DA637B6856
:104A5000002283F82420012340E07B681B681A6849
:104A60007B681B6822F00E021A607B689B6C1A68D8
:104A70007B689B6C22F480721A607B681B681A68E2
:104A80007B681B6822F001021A607B685B6C03F094
:104A90001C027B681B6C012101FA02F25A607B68E0
:104AA000DB6C7A68126D5A607B685B6D002B0CD0F2
:104AB0007B685B6D1A687B685B6D22F480721A609C
:104AC0007B689B6D7A68D26D5A607B68012283F89F
:104AD00025207B68002283F82420002318460C3709
:104AE000BD465DF8047B704780B584B000AF786048
:104AF0000023FB737B6893F82530DBB2022B05D0D3
:104B00007B680422DA630123FB7347E07B681B6840
:104B10001A687B681B6822F00E021A607B681B68AB
:104B20001A687B681B6822F001021A607B689B6C24
:104B30001A687B689B6C22F480721A607B685B6CDD
:104B400003F01C027B681B6C012101FA02F25A601F
:104B50007B68DB6C7A68126D5A607B685B6D002B3A
:104B60000CD07B685B6D1A687B685B6D22F4807289
:104B70001A607B689B6D7A68D26D5A607B680122EF
:104B800083F825207B68002283F824207B689B6BB8
:104B9000002B03D07B689B6B78689847FB7B18469B
:104BA0001037BD4680BD80B584B000AF78607B68AB
:104BB0001B6C1B68FB607B681B681B68BB607B68A9
:104BC0005B6C03F01C0304229A40FB681340002B2B
:104BD00026D0BB6803F00403002B21D07B681B6840
:104BE0001B6803F02003002B07D17B681B681A6841
:104BF0007B681B6822F004021A607B685B6C03F020
:104C00001C027B681B6C042101FA02F25A607B686B
:104C10001B6B002B71D07B681B6B786898476CE02E
:104C20007B685B6C03F01C0302229A40FB68134014
:104C3000002B2ED0BB6803F00203002B29D07B6829
:104C40001B681B6803F02003002B0BD17B681B68DB
:104C50001A687B681B6822F00A021A607B680122CE
:104C600083F825207B685B6C03F01C027B681B6C5F
:104C7000022101FA02F25A607B68002283F82420A4
:104C80007B68DB6A002B38D07B68DB6A78689847E2
:104C900033E07B685B6C03F01C0308229A40FB68DE
:104CA0001340002B2AD0BB6803F00803002B25D04B
:104CB0007B681B681A687B681B6822F00E021A600A
:104CC0007B685B6C03F01C027B681B6C012101FAA2
:104CD00002F25A607B680122DA637B68012283F862
:104CE00025207B68002283F824207B685B6B002BE7
:104CF00004D07B685B6B7868984700BF00BF1037B3
:104D0000BD4680BD80B485B000AFF860B9607A6000
:104D10003B60FB68DB6CFA68126D5A60FB685B6D88
:104D2000002B04D0FB689B6DFA68D26D5A60FB685B
:104D30005B6C03F01C02FB681B6C012101FA02F2A0
:104D40005A60FB681B683A685A60FB689B68102BC6
:104D500008D1FB681B687A689A60FB681B68BA68B0
:104D6000DA6007E0FB681B68BA689A60FB681B683A
:104D70007A68DA6000BF1437BD465DF8047B70477F
:104D800080B485B000AF78607B681B681A46174B0B
:104D90009A420AD87B685B6C9B089B0003F18043B6
:104DA00003F502337A68936407E07B685B6C9B08C9
:104DB0009A000F4B13447A6893647B681B68DBB2DC
:104DC000083B0C4AA2FB03231B09FB607B680A4AD1
:104DD000DA64FB6803F01F0301229A407B681A65BE
:104DE00000BF1437BD465DF8047B704707040240DE
:104DF0001C080240CDCCCCCC8008024080B485B0E9
:104E000000AF78607B685B6803F03F03FB60FA6883
:104E10000B4B13449B001A467B685A657B68094A12
:104E20009A65FB68013B03F0030301229A407B680B
:104E3000DA6500BF1437BD465DF8047B704700BFDC
:104E40003F8200104009024080B483B000AF786018
:104E500039607B6893F82530DBB2012B2BD17B685E
:104E600093F82430012B01D1022325E07B68012235
:104E700083F824207B689B6C1A68124B13403A68B5
:104E800011683A68D268013AD20411433A6852680C
:104E900011433A68127A120411433A68527A520264
:104EA00011437A68926C0B4313607B68002283F88D
:104EB0002420002300E0012318460C37BD465DF88E
:104EC000047B7047FFFD00E080B487B000AF7860DE
:104ED000396000237B614CE13B681A6801217B69E2
:104EE00001FA03F31340FB60FB68002B00F03E81E6
:104EF0003B685B6803F00303012B05D03B685B68EC
:104F000003F00303022B30D17B689B683B617B6914
:104F10005B00032202FA03F3DB433A6913403B616F
:104F20003B68DA687B695B0002FA03F33A69134372
:104F30003B617B683A699A607B685B683B610122F0
:104F40007B6902FA03F3DB433A6913403B613B6838
:104F50005B681B0903F001027B6902FA03F33A69FB
:104F600013433B617B683A695A603B685B6803F0B6
:104F70000303032B17D07B68DB683B617B695B0015
:104F8000032202FA03F3DB433A6913403B613B68B7
:104F90009A687B695B0002FA03F33A6913433B6149
:104FA0007B683A69DA603B685B6803F00303022BB5
:104FB00023D17B69DA087B68083253F822303B61E1
:104FC0007B6903F007039B000F2202FA03F3DB4324
:104FD0003A6913403B613B681A697B6903F0070338
:104FE0009B0002FA03F33A6913433B617B69DA08D9
:104FF0007B680832396943F822107B681B683B6183
:105000007B695B00032202FA03F3DB433A69134036
:105010003B613B685B6803F003027B695B0002FA5B
:1050200003F33A6913433B617B683A691A603B6852
:105030005B6803F44033002B00F09880544A7B698E
:105040009B08023352F823303B617B6903F0030372
:105050009B000F2202FA03F3DB433A6913403B61E2
:105060007B68B3F1904F19D07B684A4A934213D0C2
:105070007B68494A93420DD07B68484A934207D0E7
:105080007B68474A934201D1042308E0072306E0E6
:10509000032304E0022302E0012300E000237A69F5
:1050A00002F00302920093403A6913433B6138498E
:1050B0007B699B0802333A6941F82320394B1B680E
:1050C0003B61FB68DB433A6913403B613B685B68CB
:1050D00003F48013002B03D03A69FB6813433B6150
:1050E000304A3B6913602F4B5B683B61FB68DB43D5
:1050F0003A6913403B613B685B6803F40013002B83
:1051000003D03A69FB6813433B61264A3B6953600D
:10511000244BD3F880303B61FB68DB433A69134092
:105120003B613B685B6803F48033002B03D03A6932
:10513000FB6813433B611B4A3B69C2F88030194B43
:10514000D3F884303B61FB68DB433A6913403B6131
:105150003B685B6803F40033002B03D03A69FB68BB
:1051600013433B610F4A3B69C2F884307B690133CA
:105170007B613B681A687B6922FA03F3002B7FF49A
:10518000ABAE00BF00BF1C37BD465DF8047B704767
:10519000000001400004004800080048000C0048DE
:1051A000001000480008005880B483B000AF786059
:1051B0000B467B8013467B707B78002B03D07A886C
:1051C0007B689A6102E07A887B689A6200BF0C373C
:1051D000BD465DF8047B704780B582B000AF0346E2
:1051E000FB80084BDA68FB881340002B06D0054A89
:1051F000FB88D360FB881846FBF7C2FE00BF083768
:10520000BD4680BD0008005880B582B000AF0A4B93
:10521000DB687B60084B1A687B68DB4306491340F8
:105220000B60054A7B685360786800F007F800BFA0
:105230000837BD4680BD00BF0015005880B483B05C
:1052400000AF786000BF0C37BD465DF8047B704747
:1052500080B584B000AF78600023FB737B68002BBF
:105260001ED0134BBB607B6893F83830DBB2002B49
:1052700002D17868FCF7FEFFB86800F05BF8BB6805
:105280001B6843F00112BB681A60786800F02CF8C4
:105290007B6800225A637B68012283F8382001E092
:1052A0000123FB73FB7B18461037BD4680BD00BF52
:1052B000000C005880B485B000AFF860B9601346A8
:1052C000FB7100BF1437BD465DF8047B704780B4A6
:1052D00085B000AFF860B9601346FB7100BF1437AA
:1052E000BD465DF8047B704780B485B000AF786040
:1052F0000023FB600FE07A68FB689B0013440B4AB5
:105300005A607A68FB6806339B001344084A5A6067
:10531000FB680133FB60FB68052BECD900BF00BFC5
:105320001437BD465DF8047B704700BFB5520008D6
:10533000CF52000880B483B000AF78607B68002251
:105340001A607B684FF03F125A607B683F229A6078
:1053500000BF0C37BD465DF8047B704780B400AFDA
:10536000054B1B68044A43F48073136000BFBD46BD
:105370005DF8047B704700BF0004005880B400AFA4
:10538000044B1B6803F4C0631846BD465DF8047BFC
:10539000704700BF0004005880B400AF4FF0B04326
:1053A0001B6803F48013B3F5801F01D1012300E0D3
:1053B00000231846BD465DF8047B704780B400AFFB
:1053C0004FF0B0431B684FF0B04243F4803313609A
:1053D00000BFBD465DF8047B704780B400AF4FF05E
:1053E000B0431B684FF0B04223F48033136000BF1A
:1053F000BD465DF8047B704780B400AF4FF0B0430A
:105400001B6803F40033B3F5003F01D1012300E032
:1054100000231846BD465DF8047B704780B400AF9A
:105420004FF0B0431B684FF0B04243F480731360F9
:1054300000BFBD465DF8047B704780B400AF4FF0FD
:10544000B0431B684FF0B04223F48073136000BF79
:10545000BD465DF8047B704780B400AF4FF0B043A9
:105460001B6803F48063B3F5806F01D1012300E072
:1054700000231846BD465DF8047B704780B483B0B6
:1054800000AF78604FF0B0435B6823F0FE427B686A
:105490001B064FF0B04113434B6000BF0C37BD46B5
:1054A0005DF8047B704780B400AF4FF0B043D3F891
:1054B00098304FF0B04243F00103C2F8983000BF7B
:1054C000BD465DF8047B704780B400AF4FF0B04339
:1054D000D3F898304FF0B04223F00103C2F898306F
:1054E00000BFBD465DF8047B704780B400AF4FF04D
:1054F000B043D3F8983003F00203022B01D101230B
:1055000000E000231846BD465DF8047B704780B478
:1055100000AF4FF0B043D3F890304FF0B04243F0BB
:105520000103C2F8903000BFBD465DF8047B7047B0
:1055300080B400AF4FF0B043D3F890304FF0B0429A
:1055400023F00103C2F8903000BFBD465DF8047B34
:10555000704780B400AF4FF0B043D3F890304FF0B5
:10556000B04243F00403C2F8903000BFBD465DF87E
:10557000047B704780B400AF4FF0B043D3F8903055
:105580004FF0B04223F00403C2F8903000BFBD4694
:105590005DF8047B704780B400AF4FF0B043D3F8A0
:1055A000903003F00203022B01D1012300E000231D
:1055B0001846BD465DF8047B704780B400AF4FF0DD
:1055C000B043D3F894304FF0B04243F00103C2F837
:1055D000943000BFBD465DF8047B704780B400AFD7
:1055E0004FF0B043D3F894304FF0B04223F00103B2
:1055F000C2F8943000BFBD465DF8047B704780B4AC
:1056000000AF4FF0B043D3F8943003F00203022B05
:1056100001D1012300E000231846BD465DF8047B5C
:10562000704780B400AF4FF0B043D3F894304FF0E0
:10563000B04243F00403C2F8943000BFBD465DF8A9
:10564000047B704780B400AF4FF0B043D3F8943080
:105650004FF0B04223F00403C2F8943000BFBD46BF
:105660005DF8047B704780B400AF4FF0B043D3F8CF
:10567000943003F00803082B01D1012300E000233C
:105680001846BD465DF8047B704780B483B000AF18
:1056900078604FF0B043D3F8943023F470627B68A5
:1056A0001B024FF0B0411343C1F8943000BF0C37D8
:1056B000BD465DF8047B704780B400AF4FF0B04347
:1056C0001B684FF0B04243F00103136000BFBD46BA
:1056D0005DF8047B704780B400AF4FF0B0431B68A7
:1056E0004FF0B04223F00103136000BFBD465DF8E8
:1056F000047B704780B400AF4FF0B0431B6803F0E9
:105700000203022B01D1012300E000231846BD460D
:105710005DF8047B704780B483B000AF78604FF0D1
:10572000B0431B6823F0F0024FF0B0417B68134395
:105730000B6000BF0C37BD465DF8047B704780B43A
:1057400083B000AF4FF0B0431B6803F0F0037B6001
:105750007B68B02B01D9B0237B607B6818460C377F
:10576000BD465DF8047B704780B483B000AF7860BD
:105770004FF0B0435B6823F47F427B681B024FF01D
:10578000B04113434B6000BF0C37BD465DF8047B4E
:10579000704780B483B000AF78604FF0B0439B682F
:1057A00023F003024FF0B0417B6813438B6000BFCE
:1057B0000C37BD465DF8047B704780B400AF4FF0F6
:1057C000B0439B6803F00C031846BD465DF8047BAC
:1057D000704780B483B000AF78604FF0B0439B68EF
:1057E00023F0F0024FF0B0417B6813438B6000BFA1
:1057F0000C37BD465DF8047B704780B483B000AFC2
:1058000078604FF0B043D3F8083123F0F0024FF046
:10581000B0417B681343C1F8083100BF0C37BD4667
:105820005DF8047B704780B483B000AF78604FF0C0
:10583000B043D3F8083123F00F027B681B094FF007
:10584000B0411343C1F8083100BF0C37BD465DF8C5
:10585000047B704780B483B000AF78604FF0B043F2
:105860009B6823F4E0624FF0B0417B6813438B6088
:1058700000BF0C37BD465DF8047B704780B483B031
:1058800000AF78604FF0B0439B6823F460524FF054
:10589000B0417B6813438B6000BF0C37BD465DF899
:1058A000047B704780B400AF4FF0B0439B6803F0B7
:1058B000F0031846BD465DF8047B704780B400AF26
:1058C0004FF0B043D3F808311B0103F0F003184642
:1058D000BD465DF8047B704780B400AF4FF0B04325
:1058E0009B6803F4E0631846BD465DF8047B70478F
:1058F00080B400AF4FF0B0439B6803F46053184688
:10590000BD465DF8047B704780B400AF4FF0B043F4
:105910001B684FF0B04243F08073136000BFBD4678
:105920005DF8047B704780B400AF4FF0B0431B6854
:105930004FF0B04223F08073136000BFBD465DF8A6
:10594000047B704780B400AF4FF0B0431B6803F096
:105950000073B3F1007F01D1012300E0002318465A
:10596000BD465DF8047B704780B400AF4FF0B04394
:10597000DB681B0A03F07F031846BD465DF8047B15
:10598000704780B400AF4FF0B043DB6803F0604372
:105990001846BD465DF8047B704780B400AF4FF0F9
:1059A000B043DB6803F070031846BD465DF8047B26
:1059B000704780B400AF4FF0B043DB6803F00303DF
:1059C0001846BD465DF8047B704780B400AF4FF0C9
:1059D000B0439B6803F48033B3F5803F01D10123CA
:1059E00000E000231846BD465DF8047B704780B494
:1059F00000AF4FF0B043D3F8083103F40033B3F5F0
:105A0000003F01D1012300E000231846BD465DF8A8
:105A1000047B704780B400AF4FF0B043D3F8083137
:105A200003F48033B3F5803F01D1012300E000236C
:105A30001846BD465DF8047B704780B400AF4FF058
:105A4000B0439B6803F40033B3F5003F01D1012359
:105A500000E000231846BD465DF8047B704780B423
:105A600000AF4FF0B0439B6803F48023B3F5802F61
:105A700001D1012300E000231846BD465DF8047BF8
:105A80007047000090B58DB000AF78607B68002B48
:105A900001D1012363E37B681B6803F02003002B23
:105AA00000F08D80FFF789FEF862FFF782FFB86291
:105AB000FB6A002B05D0FB6A0C2B47D1BB6A012B7C
:105AC00044D17B68DB69002B01D1012347E37B686C
:105AD0005C6AFFF734FE03469C4214D97B685B6A1C
